{
	"contract-54a644c577.sol": {
		"GrimaceMandalaNFT": {
			"abi": [
				{
					"inputs": [],
					"stateMutability": "nonpayable",
					"type": "constructor"
				},
				{
					"anonymous": false,
					"inputs": [
						{
							"indexed": true,
							"internalType": "address",
							"name": "owner",
							"type": "address"
						},
						{
							"indexed": true,
							"internalType": "address",
							"name": "spender",
							"type": "address"
						},
						{
							"indexed": false,
							"internalType": "uint256",
							"name": "value",
							"type": "uint256"
						}
					],
					"name": "Approval",
					"type": "event"
				},
				{
					"anonymous": false,
					"inputs": [
						{
							"indexed": true,
							"internalType": "address",
							"name": "previousOwner",
							"type": "address"
						},
						{
							"indexed": true,
							"internalType": "address",
							"name": "newOwner",
							"type": "address"
						}
					],
					"name": "OwnershipTransferred",
					"type": "event"
				},
				{
					"anonymous": false,
					"inputs": [
						{
							"indexed": false,
							"internalType": "address",
							"name": "account",
							"type": "address"
						}
					],
					"name": "Paused",
					"type": "event"
				},
				{
					"anonymous": false,
					"inputs": [
						{
							"indexed": true,
							"internalType": "address",
							"name": "from",
							"type": "address"
						},
						{
							"indexed": true,
							"internalType": "address",
							"name": "to",
							"type": "address"
						},
						{
							"indexed": false,
							"internalType": "uint256",
							"name": "value",
							"type": "uint256"
						}
					],
					"name": "Transfer",
					"type": "event"
				},
				{
					"anonymous": false,
					"inputs": [
						{
							"indexed": false,
							"internalType": "address",
							"name": "account",
							"type": "address"
						}
					],
					"name": "Unpaused",
					"type": "event"
				},
				{
					"inputs": [
						{
							"internalType": "address",
							"name": "owner",
							"type": "address"
						},
						{
							"internalType": "address",
							"name": "spender",
							"type": "address"
						}
					],
					"name": "allowance",
					"outputs": [
						{
							"internalType": "uint256",
							"name": "",
							"type": "uint256"
						}
					],
					"stateMutability": "view",
					"type": "function"
				},
				{
					"inputs": [
						{
							"internalType": "address",
							"name": "spender",
							"type": "address"
						},
						{
							"internalType": "uint256",
							"name": "amount",
							"type": "uint256"
						}
					],
					"name": "approve",
					"outputs": [
						{
							"internalType": "bool",
							"name": "",
							"type": "bool"
						}
					],
					"stateMutability": "nonpayable",
					"type": "function"
				},
				{
					"inputs": [
						{
							"internalType": "address",
							"name": "account",
							"type": "address"
						}
					],
					"name": "balanceOf",
					"outputs": [
						{
							"internalType": "uint256",
							"name": "",
							"type": "uint256"
						}
					],
					"stateMutability": "view",
					"type": "function"
				},
				{
					"inputs": [
						{
							"internalType": "uint256",
							"name": "amount",
							"type": "uint256"
						}
					],
					"name": "burn",
					"outputs": [],
					"stateMutability": "nonpayable",
					"type": "function"
				},
				{
					"inputs": [
						{
							"internalType": "address",
							"name": "account",
							"type": "address"
						},
						{
							"internalType": "uint256",
							"name": "amount",
							"type": "uint256"
						}
					],
					"name": "burnFrom",
					"outputs": [],
					"stateMutability": "nonpayable",
					"type": "function"
				},
				{
					"inputs": [],
					"name": "decimals",
					"outputs": [
						{
							"internalType": "uint8",
							"name": "",
							"type": "uint8"
						}
					],
					"stateMutability": "view",
					"type": "function"
				},
				{
					"inputs": [
						{
							"internalType": "address",
							"name": "spender",
							"type": "address"
						},
						{
							"internalType": "uint256",
							"name": "subtractedValue",
							"type": "uint256"
						}
					],
					"name": "decreaseAllowance",
					"outputs": [
						{
							"internalType": "bool",
							"name": "",
							"type": "bool"
						}
					],
					"stateMutability": "nonpayable",
					"type": "function"
				},
				{
					"inputs": [
						{
							"internalType": "address",
							"name": "spender",
							"type": "address"
						},
						{
							"internalType": "uint256",
							"name": "addedValue",
							"type": "uint256"
						}
					],
					"name": "increaseAllowance",
					"outputs": [
						{
							"internalType": "bool",
							"name": "",
							"type": "bool"
						}
					],
					"stateMutability": "nonpayable",
					"type": "function"
				},
				{
					"inputs": [
						{
							"internalType": "address",
							"name": "to",
							"type": "address"
						},
						{
							"internalType": "uint256",
							"name": "amount",
							"type": "uint256"
						}
					],
					"name": "mint",
					"outputs": [],
					"stateMutability": "nonpayable",
					"type": "function"
				},
				{
					"inputs": [],
					"name": "name",
					"outputs": [
						{
							"internalType": "string",
							"name": "",
							"type": "string"
						}
					],
					"stateMutability": "view",
					"type": "function"
				},
				{
					"inputs": [],
					"name": "owner",
					"outputs": [
						{
							"internalType": "address",
							"name": "",
							"type": "address"
						}
					],
					"stateMutability": "view",
					"type": "function"
				},
				{
					"inputs": [],
					"name": "pause",
					"outputs": [],
					"stateMutability": "nonpayable",
					"type": "function"
				},
				{
					"inputs": [],
					"name": "paused",
					"outputs": [
						{
							"internalType": "bool",
							"name": "",
							"type": "bool"
						}
					],
					"stateMutability": "view",
					"type": "function"
				},
				{
					"inputs": [],
					"name": "renounceOwnership",
					"outputs": [],
					"stateMutability": "nonpayable",
					"type": "function"
				},
				{
					"inputs": [],
					"name": "symbol",
					"outputs": [
						{
							"internalType": "string",
							"name": "",
							"type": "string"
						}
					],
					"stateMutability": "view",
					"type": "function"
				},
				{
					"inputs": [
						{
							"internalType": "uint256",
							"name": "index",
							"type": "uint256"
						}
					],
					"name": "tokenByIndex",
					"outputs": [
						{
							"internalType": "uint256",
							"name": "",
							"type": "uint256"
						}
					],
					"stateMutability": "view",
					"type": "function"
				},
				{
					"inputs": [
						{
							"internalType": "address",
							"name": "owner",
							"type": "address"
						},
						{
							"internalType": "uint256",
							"name": "index",
							"type": "uint256"
						}
					],
					"name": "tokenOfOwnerByIndex",
					"outputs": [
						{
							"internalType": "uint256",
							"name": "",
							"type": "uint256"
						}
					],
					"stateMutability": "view",
					"type": "function"
				},
				{
					"inputs": [],
					"name": "totalSupply",
					"outputs": [
						{
							"internalType": "uint256",
							"name": "",
							"type": "uint256"
						}
					],
					"stateMutability": "view",
					"type": "function"
				},
				{
					"inputs": [
						{
							"internalType": "address",
							"name": "to",
							"type": "address"
						},
						{
							"internalType": "uint256",
							"name": "amount",
							"type": "uint256"
						}
					],
					"name": "transfer",
					"outputs": [
						{
							"internalType": "bool",
							"name": "",
							"type": "bool"
						}
					],
					"stateMutability": "nonpayable",
					"type": "function"
				},
				{
					"inputs": [
						{
							"internalType": "address",
							"name": "from",
							"type": "address"
						},
						{
							"internalType": "address",
							"name": "to",
							"type": "address"
						},
						{
							"internalType": "uint256",
							"name": "amount",
							"type": "uint256"
						}
					],
					"name": "transferFrom",
					"outputs": [
						{
							"internalType": "bool",
							"name": "",
							"type": "bool"
						}
					],
					"stateMutability": "nonpayable",
					"type": "function"
				},
				{
					"inputs": [
						{
							"internalType": "address",
							"name": "newOwner",
							"type": "address"
						}
					],
					"name": "transferOwnership",
					"outputs": [],
					"stateMutability": "nonpayable",
					"type": "function"
				},
				{
					"inputs": [],
					"name": "unpause",
					"outputs": [],
					"stateMutability": "nonpayable",
					"type": "function"
				}
			],
			"devdoc": {
				"events": {
					"Approval(address,address,uint256)": {
						"details": "Emitted when the allowance of a `spender` for an `owner` is set by a call to {approve}. `value` is the new allowance."
					},
					"Paused(address)": {
						"details": "Emitted when the pause is triggered by `account`."
					},
					"Transfer(address,address,uint256)": {
						"details": "Emitted when `value` tokens are moved from one account (`from`) to another (`to`). Note that `value` may be zero."
					},
					"Unpaused(address)": {
						"details": "Emitted when the pause is lifted by `account`."
					}
				},
				"kind": "dev",
				"methods": {
					"allowance(address,address)": {
						"details": "See {IERC20-allowance}."
					},
					"approve(address,uint256)": {
						"details": "See {IERC20-approve}. NOTE: If `amount` is the maximum `uint256`, the allowance is not updated on `transferFrom`. This is semantically equivalent to an infinite approval. Requirements: - `spender` cannot be the zero address."
					},
					"balanceOf(address)": {
						"details": "See {IERC20-balanceOf}."
					},
					"burn(uint256)": {
						"details": "Destroys `amount` tokens from the caller. See {ERC20-_burn}."
					},
					"burnFrom(address,uint256)": {
						"details": "Destroys `amount` tokens from `account`, deducting from the caller's allowance. See {ERC20-_burn} and {ERC20-allowance}. Requirements: - the caller must have allowance for ``accounts``'s tokens of at least `amount`."
					},
					"decimals()": {
						"details": "Returns the number of decimals used to get its user representation. For example, if `decimals` equals `2`, a balance of `505` tokens should be displayed to a user as `5.05` (`505 / 10 ** 2`). Tokens usually opt for a value of 18, imitating the relationship between Ether and Wei. This is the default value returned by this function, unless it's overridden. NOTE: This information is only used for _display_ purposes: it in no way affects any of the arithmetic of the contract, including {IERC20-balanceOf} and {IERC20-transfer}."
					},
					"decreaseAllowance(address,uint256)": {
						"details": "Atomically decreases the allowance granted to `spender` by the caller. This is an alternative to {approve} that can be used as a mitigation for problems described in {IERC20-approve}. Emits an {Approval} event indicating the updated allowance. Requirements: - `spender` cannot be the zero address. - `spender` must have allowance for the caller of at least `subtractedValue`."
					},
					"increaseAllowance(address,uint256)": {
						"details": "Atomically increases the allowance granted to `spender` by the caller. This is an alternative to {approve} that can be used as a mitigation for problems described in {IERC20-approve}. Emits an {Approval} event indicating the updated allowance. Requirements: - `spender` cannot be the zero address."
					},
					"name()": {
						"details": "Returns the name of the token."
					},
					"owner()": {
						"details": "Returns the address of the current owner."
					},
					"paused()": {
						"details": "Returns true if the contract is paused, and false otherwise."
					},
					"renounceOwnership()": {
						"details": "Leaves the contract without owner. It will not be possible to call `onlyOwner` functions. Can only be called by the current owner. NOTE: Renouncing ownership will leave the contract without an owner, thereby disabling any functionality that is only available to the owner."
					},
					"symbol()": {
						"details": "Returns the symbol of the token, usually a shorter version of the name."
					},
					"totalSupply()": {
						"details": "See {IERC20-totalSupply}."
					},
					"transfer(address,uint256)": {
						"details": "See {IERC20-transfer}. Requirements: - `to` cannot be the zero address. - the caller must have a balance of at least `amount`."
					},
					"transferFrom(address,address,uint256)": {
						"details": "See {IERC20-transferFrom}. Emits an {Approval} event indicating the updated allowance. This is not required by the EIP. See the note at the beginning of {ERC20}. NOTE: Does not update the allowance if the current allowance is the maximum `uint256`. Requirements: - `from` and `to` cannot be the zero address. - `from` must have a balance of at least `amount`. - the caller must have allowance for ``from``'s tokens of at least `amount`."
					},
					"transferOwnership(address)": {
						"details": "Transfers ownership of the contract to a new account (`newOwner`). Can only be called by the current owner."
					}
				},
				"version": 1
			},
			"evm": {
				"assembly": "    /* \"contract-54a644c577.sol\":322:1255  contract GrimaceMandalaNFT is ERC20, ERC20Burnable, Pausable, Ownable {... */\n  mstore(0x40, 0x80)\n    /* \"contract-54a644c577.sol\":398:448  constructor() ERC20(\"GrimaceMandalaNFT\", \"MTK\") {} */\n  callvalue\n  dup1\n  iszero\n  tag_1\n  jumpi\n  0x00\n  dup1\n  revert\ntag_1:\n  pop\n    /* \"@openzeppelin/contracts@4.9.2/token/ERC20/ERC20.sol\":1980:2093  constructor(string memory name_, string memory symbol_) {... */\n  mload(0x40)\n  dup1\n  0x40\n  add\n  0x40\n  mstore\n  dup1\n  0x11\n  dup2\n  mstore\n  0x20\n  add\n  0x4772696d6163654d616e64616c614e4654000000000000000000000000000000\n  dup2\n  mstore\n  pop\n  mload(0x40)\n  dup1\n  0x40\n  add\n  0x40\n  mstore\n  dup1\n  0x03\n  dup2\n  mstore\n  0x20\n  add\n  0x4d544b0000000000000000000000000000000000000000000000000000000000\n  dup2\n  mstore\n  pop\n    /* \"@openzeppelin/contracts@4.9.2/token/ERC20/ERC20.sol\":2054:2059  name_ */\n  dup2\n    /* \"@openzeppelin/contracts@4.9.2/token/ERC20/ERC20.sol\":2046:2051  _name */\n  0x03\n    /* \"@openzeppelin/contracts@4.9.2/token/ERC20/ERC20.sol\":2046:2059  _name = name_ */\n  swap1\n  dup2\n  tag_7\n  swap2\n  swap1\n  tag_8\n  jump\t// in\ntag_7:\n  pop\n    /* \"@openzeppelin/contracts@4.9.2/token/ERC20/ERC20.sol\":2079:2086  symbol_ */\n  dup1\n    /* \"@openzeppelin/contracts@4.9.2/token/ERC20/ERC20.sol\":2069:2076  _symbol */\n  0x04\n    /* \"@openzeppelin/contracts@4.9.2/token/ERC20/ERC20.sol\":2069:2086  _symbol = symbol_ */\n  swap1\n  dup2\n  tag_9\n  swap2\n  swap1\n  tag_8\n  jump\t// in\ntag_9:\n  pop\n    /* \"@openzeppelin/contracts@4.9.2/token/ERC20/ERC20.sol\":1980:2093  constructor(string memory name_, string memory symbol_) {... */\n  pop\n  pop\n    /* \"@openzeppelin/contracts@4.9.2/security/Pausable.sol\":1006:1011  false */\n  0x00\n    /* \"@openzeppelin/contracts@4.9.2/security/Pausable.sol\":996:1003  _paused */\n  0x05\n  0x00\n    /* \"@openzeppelin/contracts@4.9.2/security/Pausable.sol\":996:1011  _paused = false */\n  0x0100\n  exp\n  dup2\n  sload\n  dup2\n  0xff\n  mul\n  not\n  and\n  swap1\n  dup4\n  iszero\n  iszero\n  mul\n  or\n  swap1\n  sstore\n  pop\n    /* \"@openzeppelin/contracts@4.9.2/access/Ownable.sol\":936:968  _transferOwnership(_msgSender()) */\n  tag_12\n    /* \"@openzeppelin/contracts@4.9.2/access/Ownable.sol\":955:967  _msgSender() */\n  tag_13\n    /* \"@openzeppelin/contracts@4.9.2/access/Ownable.sol\":955:965  _msgSender */\n  shl(0x20, tag_14)\n    /* \"@openzeppelin/contracts@4.9.2/access/Ownable.sol\":955:967  _msgSender() */\n  0x20\n  shr\n  jump\t// in\ntag_13:\n    /* \"@openzeppelin/contracts@4.9.2/access/Ownable.sol\":936:954  _transferOwnership */\n  shl(0x20, tag_15)\n    /* \"@openzeppelin/contracts@4.9.2/access/Ownable.sol\":936:968  _transferOwnership(_msgSender()) */\n  0x20\n  shr\n  jump\t// in\ntag_12:\n    /* \"contract-54a644c577.sol\":322:1255  contract GrimaceMandalaNFT is ERC20, ERC20Burnable, Pausable, Ownable {... */\n  jump(tag_17)\n    /* \"@openzeppelin/contracts@4.9.2/utils/Context.sol\":640:736  function _msgSender() internal view virtual returns (address) {... */\ntag_14:\n    /* \"@openzeppelin/contracts@4.9.2/utils/Context.sol\":693:700  address */\n  0x00\n    /* \"@openzeppelin/contracts@4.9.2/utils/Context.sol\":719:729  msg.sender */\n  caller\n    /* \"@openzeppelin/contracts@4.9.2/utils/Context.sol\":712:729  return msg.sender */\n  swap1\n  pop\n    /* \"@openzeppelin/contracts@4.9.2/utils/Context.sol\":640:736  function _msgSender() internal view virtual returns (address) {... */\n  swap1\n  jump\t// out\n    /* \"@openzeppelin/contracts@4.9.2/access/Ownable.sol\":2426:2613  function _transferOwnership(address newOwner) internal virtual {... */\ntag_15:\n    /* \"@openzeppelin/contracts@4.9.2/access/Ownable.sol\":2499:2515  address oldOwner */\n  0x00\n    /* \"@openzeppelin/contracts@4.9.2/access/Ownable.sol\":2518:2524  _owner */\n  0x05\n  0x01\n  swap1\n  sload\n  swap1\n  0x0100\n  exp\n  swap1\n  div\n  0xffffffffffffffffffffffffffffffffffffffff\n  and\n    /* \"@openzeppelin/contracts@4.9.2/access/Ownable.sol\":2499:2524  address oldOwner = _owner */\n  swap1\n  pop\n    /* \"@openzeppelin/contracts@4.9.2/access/Ownable.sol\":2543:2551  newOwner */\n  dup2\n    /* \"@openzeppelin/contracts@4.9.2/access/Ownable.sol\":2534:2540  _owner */\n  0x05\n  0x01\n    /* \"@openzeppelin/contracts@4.9.2/access/Ownable.sol\":2534:2551  _owner = newOwner */\n  0x0100\n  exp\n  dup2\n  sload\n  dup2\n  0xffffffffffffffffffffffffffffffffffffffff\n  mul\n  not\n  and\n  swap1\n  dup4\n  0xffffffffffffffffffffffffffffffffffffffff\n  and\n  mul\n  or\n  swap1\n  sstore\n  pop\n    /* \"@openzeppelin/contracts@4.9.2/access/Ownable.sol\":2597:2605  newOwner */\n  dup2\n    /* \"@openzeppelin/contracts@4.9.2/access/Ownable.sol\":2566:2606  OwnershipTransferred(oldOwner, newOwner) */\n  0xffffffffffffffffffffffffffffffffffffffff\n  and\n    /* \"@openzeppelin/contracts@4.9.2/access/Ownable.sol\":2587:2595  oldOwner */\n  dup2\n    /* \"@openzeppelin/contracts@4.9.2/access/Ownable.sol\":2566:2606  OwnershipTransferred(oldOwner, newOwner) */\n  0xffffffffffffffffffffffffffffffffffffffff\n  and\n  0x8be0079c531659141344cd1fd0a4f28419497f9722a3daafe3b4186f6b6457e0\n  mload(0x40)\n  mload(0x40)\n  dup1\n  swap2\n  sub\n  swap1\n  log3\n    /* \"@openzeppelin/contracts@4.9.2/access/Ownable.sol\":2489:2613  {... */\n  pop\n    /* \"@openzeppelin/contracts@4.9.2/access/Ownable.sol\":2426:2613  function _transferOwnership(address newOwner) internal virtual {... */\n  pop\n  jump\t// out\n    /* \"#utility.yul\":7:106   */\ntag_20:\n    /* \"#utility.yul\":59:65   */\n  0x00\n    /* \"#utility.yul\":93:98   */\n  dup2\n    /* \"#utility.yul\":87:99   */\n  mload\n    /* \"#utility.yul\":77:99   */\n  swap1\n  pop\n    /* \"#utility.yul\":7:106   */\n  swap2\n  swap1\n  pop\n  jump\t// out\n    /* \"#utility.yul\":112:292   */\ntag_21:\n    /* \"#utility.yul\":160:237   */\n  0x4e487b7100000000000000000000000000000000000000000000000000000000\n    /* \"#utility.yul\":157:158   */\n  0x00\n    /* \"#utility.yul\":150:238   */\n  mstore\n    /* \"#utility.yul\":257:261   */\n  0x41\n    /* \"#utility.yul\":254:255   */\n  0x04\n    /* \"#utility.yul\":247:262   */\n  mstore\n    /* \"#utility.yul\":281:285   */\n  0x24\n    /* \"#utility.yul\":278:279   */\n  0x00\n    /* \"#utility.yul\":271:286   */\n  revert\n    /* \"#utility.yul\":298:478   */\ntag_22:\n    /* \"#utility.yul\":346:423   */\n  0x4e487b7100000000000000000000000000000000000000000000000000000000\n    /* \"#utility.yul\":343:344   */\n  0x00\n    /* \"#utility.yul\":336:424   */\n  mstore\n    /* \"#utility.yul\":443:447   */\n  0x22\n    /* \"#utility.yul\":440:441   */\n  0x04\n    /* \"#utility.yul\":433:448   */\n  mstore\n    /* \"#utility.yul\":467:471   */\n  0x24\n    /* \"#utility.yul\":464:465   */\n  0x00\n    /* \"#utility.yul\":457:472   */\n  revert\n    /* \"#utility.yul\":484:804   */\ntag_23:\n    /* \"#utility.yul\":528:534   */\n  0x00\n    /* \"#utility.yul\":565:566   */\n  0x02\n    /* \"#utility.yul\":559:563   */\n  dup3\n    /* \"#utility.yul\":555:567   */\n  div\n    /* \"#utility.yul\":545:567   */\n  swap1\n  pop\n    /* \"#utility.yul\":612:613   */\n  0x01\n    /* \"#utility.yul\":606:610   */\n  dup3\n    /* \"#utility.yul\":602:614   */\n  and\n    /* \"#utility.yul\":633:651   */\n  dup1\n    /* \"#utility.yul\":623:704   */\n  tag_45\n  jumpi\n    /* \"#utility.yul\":689:693   */\n  0x7f\n    /* \"#utility.yul\":681:687   */\n  dup3\n    /* \"#utility.yul\":677:694   */\n  and\n    /* \"#utility.yul\":667:694   */\n  swap2\n  pop\n    /* \"#utility.yul\":623:704   */\ntag_45:\n    /* \"#utility.yul\":751:753   */\n  0x20\n    /* \"#utility.yul\":743:749   */\n  dup3\n    /* \"#utility.yul\":740:754   */\n  lt\n    /* \"#utility.yul\":720:738   */\n  dup2\n    /* \"#utility.yul\":717:755   */\n  sub\n    /* \"#utility.yul\":714:798   */\n  tag_46\n  jumpi\n    /* \"#utility.yul\":770:788   */\n  tag_47\n  tag_22\n  jump\t// in\ntag_47:\n    /* \"#utility.yul\":714:798   */\ntag_46:\n    /* \"#utility.yul\":535:804   */\n  pop\n    /* \"#utility.yul\":484:804   */\n  swap2\n  swap1\n  pop\n  jump\t// out\n    /* \"#utility.yul\":810:951   */\ntag_24:\n    /* \"#utility.yul\":859:863   */\n  0x00\n    /* \"#utility.yul\":882:885   */\n  dup2\n    /* \"#utility.yul\":874:885   */\n  swap1\n  pop\n    /* \"#utility.yul\":905:908   */\n  dup2\n    /* \"#utility.yul\":902:903   */\n  0x00\n    /* \"#utility.yul\":895:909   */\n  mstore\n    /* \"#utility.yul\":939:943   */\n  0x20\n    /* \"#utility.yul\":936:937   */\n  0x00\n    /* \"#utility.yul\":926:944   */\n  keccak256\n    /* \"#utility.yul\":918:944   */\n  swap1\n  pop\n    /* \"#utility.yul\":810:951   */\n  swap2\n  swap1\n  pop\n  jump\t// out\n    /* \"#utility.yul\":957:1050   */\ntag_25:\n    /* \"#utility.yul\":994:1000   */\n  0x00\n    /* \"#utility.yul\":1041:1043   */\n  0x20\n    /* \"#utility.yul\":1036:1038   */\n  0x1f\n    /* \"#utility.yul\":1029:1034   */\n  dup4\n    /* \"#utility.yul\":1025:1039   */\n  add\n    /* \"#utility.yul\":1021:1044   */\n  div\n    /* \"#utility.yul\":1011:1044   */\n  swap1\n  pop\n    /* \"#utility.yul\":957:1050   */\n  swap2\n  swap1\n  pop\n  jump\t// out\n    /* \"#utility.yul\":1056:1163   */\ntag_26:\n    /* \"#utility.yul\":1100:1108   */\n  0x00\n    /* \"#utility.yul\":1150:1155   */\n  dup3\n    /* \"#utility.yul\":1144:1148   */\n  dup3\n    /* \"#utility.yul\":1140:1156   */\n  shl\n    /* \"#utility.yul\":1119:1156   */\n  swap1\n  pop\n    /* \"#utility.yul\":1056:1163   */\n  swap3\n  swap2\n  pop\n  pop\n  jump\t// out\n    /* \"#utility.yul\":1169:1562   */\ntag_27:\n    /* \"#utility.yul\":1238:1244   */\n  0x00\n    /* \"#utility.yul\":1288:1289   */\n  0x08\n    /* \"#utility.yul\":1276:1286   */\n  dup4\n    /* \"#utility.yul\":1272:1290   */\n  mul\n    /* \"#utility.yul\":1311:1408   */\n  tag_52\n    /* \"#utility.yul\":1341:1407   */\n  0xffffffffffffffffffffffffffffffffffffffffffffffffffffffffffffffff\n    /* \"#utility.yul\":1330:1339   */\n  dup3\n    /* \"#utility.yul\":1311:1408   */\n  tag_26\n  jump\t// in\ntag_52:\n    /* \"#utility.yul\":1429:1468   */\n  tag_53\n    /* \"#utility.yul\":1459:1467   */\n  dup7\n    /* \"#utility.yul\":1448:1457   */\n  dup4\n    /* \"#utility.yul\":1429:1468   */\n  tag_26\n  jump\t// in\ntag_53:\n    /* \"#utility.yul\":1417:1468   */\n  swap6\n  pop\n    /* \"#utility.yul\":1501:1505   */\n  dup1\n    /* \"#utility.yul\":1497:1506   */\n  not\n    /* \"#utility.yul\":1490:1495   */\n  dup5\n    /* \"#utility.yul\":1486:1507   */\n  and\n    /* \"#utility.yul\":1477:1507   */\n  swap4\n  pop\n    /* \"#utility.yul\":1550:1554   */\n  dup1\n    /* \"#utility.yul\":1540:1548   */\n  dup7\n    /* \"#utility.yul\":1536:1555   */\n  and\n    /* \"#utility.yul\":1529:1534   */\n  dup5\n    /* \"#utility.yul\":1526:1556   */\n  or\n    /* \"#utility.yul\":1516:1556   */\n  swap3\n  pop\n    /* \"#utility.yul\":1245:1562   */\n  pop\n  pop\n    /* \"#utility.yul\":1169:1562   */\n  swap4\n  swap3\n  pop\n  pop\n  pop\n  jump\t// out\n    /* \"#utility.yul\":1568:1645   */\ntag_28:\n    /* \"#utility.yul\":1605:1612   */\n  0x00\n    /* \"#utility.yul\":1634:1639   */\n  dup2\n    /* \"#utility.yul\":1623:1639   */\n  swap1\n  pop\n    /* \"#utility.yul\":1568:1645   */\n  swap2\n  swap1\n  pop\n  jump\t// out\n    /* \"#utility.yul\":1651:1711   */\ntag_29:\n    /* \"#utility.yul\":1679:1682   */\n  0x00\n    /* \"#utility.yul\":1700:1705   */\n  dup2\n    /* \"#utility.yul\":1693:1705   */\n  swap1\n  pop\n    /* \"#utility.yul\":1651:1711   */\n  swap2\n  swap1\n  pop\n  jump\t// out\n    /* \"#utility.yul\":1717:1859   */\ntag_30:\n    /* \"#utility.yul\":1767:1776   */\n  0x00\n    /* \"#utility.yul\":1800:1853   */\n  tag_57\n    /* \"#utility.yul\":1818:1852   */\n  tag_58\n    /* \"#utility.yul\":1827:1851   */\n  tag_59\n    /* \"#utility.yul\":1845:1850   */\n  dup5\n    /* \"#utility.yul\":1827:1851   */\n  tag_28\n  jump\t// in\ntag_59:\n    /* \"#utility.yul\":1818:1852   */\n  tag_29\n  jump\t// in\ntag_58:\n    /* \"#utility.yul\":1800:1853   */\n  tag_28\n  jump\t// in\ntag_57:\n    /* \"#utility.yul\":1787:1853   */\n  swap1\n  pop\n    /* \"#utility.yul\":1717:1859   */\n  swap2\n  swap1\n  pop\n  jump\t// out\n    /* \"#utility.yul\":1865:1940   */\ntag_31:\n    /* \"#utility.yul\":1908:1911   */\n  0x00\n    /* \"#utility.yul\":1929:1934   */\n  dup2\n    /* \"#utility.yul\":1922:1934   */\n  swap1\n  pop\n    /* \"#utility.yul\":1865:1940   */\n  swap2\n  swap1\n  pop\n  jump\t// out\n    /* \"#utility.yul\":1946:2215   */\ntag_32:\n    /* \"#utility.yul\":2056:2095   */\n  tag_62\n    /* \"#utility.yul\":2087:2094   */\n  dup4\n    /* \"#utility.yul\":2056:2095   */\n  tag_30\n  jump\t// in\ntag_62:\n    /* \"#utility.yul\":2117:2208   */\n  tag_63\n    /* \"#utility.yul\":2166:2207   */\n  tag_64\n    /* \"#utility.yul\":2190:2206   */\n  dup3\n    /* \"#utility.yul\":2166:2207   */\n  tag_31\n  jump\t// in\ntag_64:\n    /* \"#utility.yul\":2158:2164   */\n  dup5\n    /* \"#utility.yul\":2151:2155   */\n  dup5\n    /* \"#utility.yul\":2145:2156   */\n  sload\n    /* \"#utility.yul\":2117:2208   */\n  tag_27\n  jump\t// in\ntag_63:\n    /* \"#utility.yul\":2111:2115   */\n  dup3\n    /* \"#utility.yul\":2104:2209   */\n  sstore\n    /* \"#utility.yul\":2022:2215   */\n  pop\n    /* \"#utility.yul\":1946:2215   */\n  pop\n  pop\n  pop\n  jump\t// out\n    /* \"#utility.yul\":2221:2294   */\ntag_33:\n    /* \"#utility.yul\":2266:2269   */\n  0x00\n    /* \"#utility.yul\":2221:2294   */\n  swap1\n  jump\t// out\n    /* \"#utility.yul\":2300:2489   */\ntag_34:\n    /* \"#utility.yul\":2377:2409   */\n  tag_67\n  tag_33\n  jump\t// in\ntag_67:\n    /* \"#utility.yul\":2418:2483   */\n  tag_68\n    /* \"#utility.yul\":2476:2482   */\n  dup2\n    /* \"#utility.yul\":2468:2474   */\n  dup5\n    /* \"#utility.yul\":2462:2466   */\n  dup5\n    /* \"#utility.yul\":2418:2483   */\n  tag_32\n  jump\t// in\ntag_68:\n    /* \"#utility.yul\":2353:2489   */\n  pop\n    /* \"#utility.yul\":2300:2489   */\n  pop\n  pop\n  jump\t// out\n    /* \"#utility.yul\":2495:2681   */\ntag_35:\n    /* \"#utility.yul\":2555:2675   */\ntag_70:\n    /* \"#utility.yul\":2572:2575   */\n  dup2\n    /* \"#utility.yul\":2565:2570   */\n  dup2\n    /* \"#utility.yul\":2562:2576   */\n  lt\n    /* \"#utility.yul\":2555:2675   */\n  iszero\n  tag_72\n  jumpi\n    /* \"#utility.yul\":2626:2665   */\n  tag_73\n    /* \"#utility.yul\":2663:2664   */\n  0x00\n    /* \"#utility.yul\":2656:2661   */\n  dup3\n    /* \"#utility.yul\":2626:2665   */\n  tag_34\n  jump\t// in\ntag_73:\n    /* \"#utility.yul\":2599:2600   */\n  0x01\n    /* \"#utility.yul\":2592:2597   */\n  dup2\n    /* \"#utility.yul\":2588:2601   */\n  add\n    /* \"#utility.yul\":2579:2601   */\n  swap1\n  pop\n    /* \"#utility.yul\":2555:2675   */\n  jump(tag_70)\ntag_72:\n    /* \"#utility.yul\":2495:2681   */\n  pop\n  pop\n  jump\t// out\n    /* \"#utility.yul\":2687:3230   */\ntag_36:\n    /* \"#utility.yul\":2788:2790   */\n  0x1f\n    /* \"#utility.yul\":2783:2786   */\n  dup3\n    /* \"#utility.yul\":2780:2791   */\n  gt\n    /* \"#utility.yul\":2777:3223   */\n  iszero\n  tag_75\n  jumpi\n    /* \"#utility.yul\":2822:2860   */\n  tag_76\n    /* \"#utility.yul\":2854:2859   */\n  dup2\n    /* \"#utility.yul\":2822:2860   */\n  tag_24\n  jump\t// in\ntag_76:\n    /* \"#utility.yul\":2906:2935   */\n  tag_77\n    /* \"#utility.yul\":2924:2934   */\n  dup5\n    /* \"#utility.yul\":2906:2935   */\n  tag_25\n  jump\t// in\ntag_77:\n    /* \"#utility.yul\":2896:2904   */\n  dup2\n    /* \"#utility.yul\":2892:2936   */\n  add\n    /* \"#utility.yul\":3089:3091   */\n  0x20\n    /* \"#utility.yul\":3077:3087   */\n  dup6\n    /* \"#utility.yul\":3074:3092   */\n  lt\n    /* \"#utility.yul\":3071:3120   */\n  iszero\n  tag_78\n  jumpi\n    /* \"#utility.yul\":3110:3118   */\n  dup2\n    /* \"#utility.yul\":3095:3118   */\n  swap1\n  pop\n    /* \"#utility.yul\":3071:3120   */\ntag_78:\n    /* \"#utility.yul\":3133:3213   */\n  tag_79\n    /* \"#utility.yul\":3189:3211   */\n  tag_80\n    /* \"#utility.yul\":3207:3210   */\n  dup6\n    /* \"#utility.yul\":3189:3211   */\n  tag_25\n  jump\t// in\ntag_80:\n    /* \"#utility.yul\":3179:3187   */\n  dup4\n    /* \"#utility.yul\":3175:3212   */\n  add\n    /* \"#utility.yul\":3162:3173   */\n  dup3\n    /* \"#utility.yul\":3133:3213   */\n  tag_35\n  jump\t// in\ntag_79:\n    /* \"#utility.yul\":2792:3223   */\n  pop\n  pop\n    /* \"#utility.yul\":2777:3223   */\ntag_75:\n    /* \"#utility.yul\":2687:3230   */\n  pop\n  pop\n  pop\n  jump\t// out\n    /* \"#utility.yul\":3236:3353   */\ntag_37:\n    /* \"#utility.yul\":3290:3298   */\n  0x00\n    /* \"#utility.yul\":3340:3345   */\n  dup3\n    /* \"#utility.yul\":3334:3338   */\n  dup3\n    /* \"#utility.yul\":3330:3346   */\n  shr\n    /* \"#utility.yul\":3309:3346   */\n  swap1\n  pop\n    /* \"#utility.yul\":3236:3353   */\n  swap3\n  swap2\n  pop\n  pop\n  jump\t// out\n    /* \"#utility.yul\":3359:3528   */\ntag_38:\n    /* \"#utility.yul\":3403:3409   */\n  0x00\n    /* \"#utility.yul\":3436:3487   */\n  tag_83\n    /* \"#utility.yul\":3484:3485   */\n  0x00\n    /* \"#utility.yul\":3480:3486   */\n  not\n    /* \"#utility.yul\":3472:3477   */\n  dup5\n    /* \"#utility.yul\":3469:3470   */\n  0x08\n    /* \"#utility.yul\":3465:3478   */\n  mul\n    /* \"#utility.yul\":3436:3487   */\n  tag_37\n  jump\t// in\ntag_83:\n    /* \"#utility.yul\":3432:3488   */\n  not\n    /* \"#utility.yul\":3517:3521   */\n  dup1\n    /* \"#utility.yul\":3511:3515   */\n  dup4\n    /* \"#utility.yul\":3507:3522   */\n  and\n    /* \"#utility.yul\":3497:3522   */\n  swap2\n  pop\n    /* \"#utility.yul\":3410:3528   */\n  pop\n    /* \"#utility.yul\":3359:3528   */\n  swap3\n  swap2\n  pop\n  pop\n  jump\t// out\n    /* \"#utility.yul\":3533:3828   */\ntag_39:\n    /* \"#utility.yul\":3609:3613   */\n  0x00\n    /* \"#utility.yul\":3755:3784   */\n  tag_85\n    /* \"#utility.yul\":3780:3783   */\n  dup4\n    /* \"#utility.yul\":3774:3778   */\n  dup4\n    /* \"#utility.yul\":3755:3784   */\n  tag_38\n  jump\t// in\ntag_85:\n    /* \"#utility.yul\":3747:3784   */\n  swap2\n  pop\n    /* \"#utility.yul\":3817:3820   */\n  dup3\n    /* \"#utility.yul\":3814:3815   */\n  0x02\n    /* \"#utility.yul\":3810:3821   */\n  mul\n    /* \"#utility.yul\":3804:3808   */\n  dup3\n    /* \"#utility.yul\":3801:3822   */\n  or\n    /* \"#utility.yul\":3793:3822   */\n  swap1\n  pop\n    /* \"#utility.yul\":3533:3828   */\n  swap3\n  swap2\n  pop\n  pop\n  jump\t// out\n    /* \"#utility.yul\":3833:5228   */\ntag_8:\n    /* \"#utility.yul\":3950:3987   */\n  tag_87\n    /* \"#utility.yul\":3983:3986   */\n  dup3\n    /* \"#utility.yul\":3950:3987   */\n  tag_20\n  jump\t// in\ntag_87:\n    /* \"#utility.yul\":4052:4070   */\n  0xffffffffffffffff\n    /* \"#utility.yul\":4044:4050   */\n  dup2\n    /* \"#utility.yul\":4041:4071   */\n  gt\n    /* \"#utility.yul\":4038:4094   */\n  iszero\n  tag_88\n  jumpi\n    /* \"#utility.yul\":4074:4092   */\n  tag_89\n  tag_21\n  jump\t// in\ntag_89:\n    /* \"#utility.yul\":4038:4094   */\ntag_88:\n    /* \"#utility.yul\":4118:4156   */\n  tag_90\n    /* \"#utility.yul\":4150:4154   */\n  dup3\n    /* \"#utility.yul\":4144:4155   */\n  sload\n    /* \"#utility.yul\":4118:4156   */\n  tag_23\n  jump\t// in\ntag_90:\n    /* \"#utility.yul\":4203:4270   */\n  tag_91\n    /* \"#utility.yul\":4263:4269   */\n  dup3\n    /* \"#utility.yul\":4255:4261   */\n  dup3\n    /* \"#utility.yul\":4249:4253   */\n  dup6\n    /* \"#utility.yul\":4203:4270   */\n  tag_36\n  jump\t// in\ntag_91:\n    /* \"#utility.yul\":4297:4298   */\n  0x00\n    /* \"#utility.yul\":4321:4325   */\n  0x20\n    /* \"#utility.yul\":4308:4325   */\n  swap1\n  pop\n    /* \"#utility.yul\":4353:4355   */\n  0x1f\n    /* \"#utility.yul\":4345:4351   */\n  dup4\n    /* \"#utility.yul\":4342:4356   */\n  gt\n    /* \"#utility.yul\":4370:4371   */\n  0x01\n    /* \"#utility.yul\":4365:4983   */\n  dup2\n  eq\n  tag_93\n  jumpi\n    /* \"#utility.yul\":5027:5028   */\n  0x00\n    /* \"#utility.yul\":5044:5050   */\n  dup5\n    /* \"#utility.yul\":5041:5118   */\n  iszero\n  tag_94\n  jumpi\n    /* \"#utility.yul\":5093:5102   */\n  dup3\n    /* \"#utility.yul\":5088:5091   */\n  dup8\n    /* \"#utility.yul\":5084:5103   */\n  add\n    /* \"#utility.yul\":5078:5104   */\n  mload\n    /* \"#utility.yul\":5069:5104   */\n  swap1\n  pop\n    /* \"#utility.yul\":5041:5118   */\ntag_94:\n    /* \"#utility.yul\":5144:5211   */\n  tag_95\n    /* \"#utility.yul\":5204:5210   */\n  dup6\n    /* \"#utility.yul\":5197:5202   */\n  dup3\n    /* \"#utility.yul\":5144:5211   */\n  tag_39\n  jump\t// in\ntag_95:\n    /* \"#utility.yul\":5138:5142   */\n  dup7\n    /* \"#utility.yul\":5131:5212   */\n  sstore\n    /* \"#utility.yul\":5000:5222   */\n  pop\n    /* \"#utility.yul\":4335:5222   */\n  jump(tag_92)\n    /* \"#utility.yul\":4365:4983   */\ntag_93:\n    /* \"#utility.yul\":4417:4421   */\n  0x1f\n    /* \"#utility.yul\":4413:4422   */\n  not\n    /* \"#utility.yul\":4405:4411   */\n  dup5\n    /* \"#utility.yul\":4401:4423   */\n  and\n    /* \"#utility.yul\":4451:4488   */\n  tag_96\n    /* \"#utility.yul\":4483:4487   */\n  dup7\n    /* \"#utility.yul\":4451:4488   */\n  tag_24\n  jump\t// in\ntag_96:\n    /* \"#utility.yul\":4510:4511   */\n  0x00\n    /* \"#utility.yul\":4524:4732   */\ntag_97:\n    /* \"#utility.yul\":4538:4545   */\n  dup3\n    /* \"#utility.yul\":4535:4536   */\n  dup2\n    /* \"#utility.yul\":4532:4546   */\n  lt\n    /* \"#utility.yul\":4524:4732   */\n  iszero\n  tag_99\n  jumpi\n    /* \"#utility.yul\":4617:4626   */\n  dup5\n    /* \"#utility.yul\":4612:4615   */\n  dup10\n    /* \"#utility.yul\":4608:4627   */\n  add\n    /* \"#utility.yul\":4602:4628   */\n  mload\n    /* \"#utility.yul\":4594:4600   */\n  dup3\n    /* \"#utility.yul\":4587:4629   */\n  sstore\n    /* \"#utility.yul\":4668:4669   */\n  0x01\n    /* \"#utility.yul\":4660:4666   */\n  dup3\n    /* \"#utility.yul\":4656:4670   */\n  add\n    /* \"#utility.yul\":4646:4670   */\n  swap2\n  pop\n    /* \"#utility.yul\":4715:4717   */\n  0x20\n    /* \"#utility.yul\":4704:4713   */\n  dup6\n    /* \"#utility.yul\":4700:4718   */\n  add\n    /* \"#utility.yul\":4687:4718   */\n  swap5\n  pop\n    /* \"#utility.yul\":4561:4565   */\n  0x20\n    /* \"#utility.yul\":4558:4559   */\n  dup2\n    /* \"#utility.yul\":4554:4566   */\n  add\n    /* \"#utility.yul\":4549:4566   */\n  swap1\n  pop\n    /* \"#utility.yul\":4524:4732   */\n  jump(tag_97)\ntag_99:\n    /* \"#utility.yul\":4760:4766   */\n  dup7\n    /* \"#utility.yul\":4751:4758   */\n  dup4\n    /* \"#utility.yul\":4748:4767   */\n  lt\n    /* \"#utility.yul\":4745:4924   */\n  iszero\n  tag_100\n  jumpi\n    /* \"#utility.yul\":4818:4827   */\n  dup5\n    /* \"#utility.yul\":4813:4816   */\n  dup10\n    /* \"#utility.yul\":4809:4828   */\n  add\n    /* \"#utility.yul\":4803:4829   */\n  mload\n    /* \"#utility.yul\":4861:4909   */\n  tag_101\n    /* \"#utility.yul\":4903:4907   */\n  0x1f\n    /* \"#utility.yul\":4895:4901   */\n  dup10\n    /* \"#utility.yul\":4891:4908   */\n  and\n    /* \"#utility.yul\":4880:4889   */\n  dup3\n    /* \"#utility.yul\":4861:4909   */\n  tag_38\n  jump\t// in\ntag_101:\n    /* \"#utility.yul\":4853:4859   */\n  dup4\n    /* \"#utility.yul\":4846:4910   */\n  sstore\n    /* \"#utility.yul\":4768:4924   */\n  pop\n    /* \"#utility.yul\":4745:4924   */\ntag_100:\n    /* \"#utility.yul\":4970:4971   */\n  0x01\n    /* \"#utility.yul\":4966:4967   */\n  0x02\n    /* \"#utility.yul\":4958:4964   */\n  dup9\n    /* \"#utility.yul\":4954:4968   */\n  mul\n    /* \"#utility.yul\":4950:4972   */\n  add\n    /* \"#utility.yul\":4944:4948   */\n  dup9\n    /* \"#utility.yul\":4937:4973   */\n  sstore\n    /* \"#utility.yul\":4372:4983   */\n  pop\n  pop\n  pop\n    /* \"#utility.yul\":4335:5222   */\ntag_92:\n  pop\n    /* \"#utility.yul\":3925:5228   */\n  pop\n  pop\n  pop\n    /* \"#utility.yul\":3833:5228   */\n  pop\n  pop\n  jump\t// out\n    /* \"contract-54a644c577.sol\":322:1255  contract GrimaceMandalaNFT is ERC20, ERC20Burnable, Pausable, Ownable {... */\ntag_17:\n  dataSize(sub_0)\n  dup1\n  dataOffset(sub_0)\n  0x00\n  codecopy\n  0x00\n  return\nstop\n\nsub_0: assembly {\n        /* \"contract-54a644c577.sol\":322:1255  contract GrimaceMandalaNFT is ERC20, ERC20Burnable, Pausable, Ownable {... */\n      mstore(0x40, 0x80)\n      callvalue\n      dup1\n      iszero\n      tag_1\n      jumpi\n      0x00\n      dup1\n      revert\n    tag_1:\n      pop\n      jumpi(tag_2, lt(calldatasize, 0x04))\n      shr(0xe0, calldataload(0x00))\n      dup1\n      0x5c975abb\n      gt\n      tag_25\n      jumpi\n      dup1\n      0x8da5cb5b\n      gt\n      tag_26\n      jumpi\n      dup1\n      0x8da5cb5b\n      eq\n      tag_19\n      jumpi\n      dup1\n      0x95d89b41\n      eq\n      tag_20\n      jumpi\n      dup1\n      0xa457c2d7\n      eq\n      tag_21\n      jumpi\n      dup1\n      0xa9059cbb\n      eq\n      tag_22\n      jumpi\n      dup1\n      0xdd62ed3e\n      eq\n      tag_23\n      jumpi\n      dup1\n      0xf2fde38b\n      eq\n      tag_24\n      jumpi\n      jump(tag_2)\n    tag_26:\n      dup1\n      0x5c975abb\n      eq\n      tag_14\n      jumpi\n      dup1\n      0x70a08231\n      eq\n      tag_15\n      jumpi\n      dup1\n      0x715018a6\n      eq\n      tag_16\n      jumpi\n      dup1\n      0x79cc6790\n      eq\n      tag_17\n      jumpi\n      dup1\n      0x8456cb59\n      eq\n      tag_18\n      jumpi\n      jump(tag_2)\n    tag_25:\n      dup1\n      0x313ce567\n      gt\n      tag_27\n      jumpi\n      dup1\n      0x313ce567\n      eq\n      tag_8\n      jumpi\n      dup1\n      0x39509351\n      eq\n      tag_9\n      jumpi\n      dup1\n      0x3f4ba83a\n      eq\n      tag_10\n      jumpi\n      dup1\n      0x40c10f19\n      eq\n      tag_11\n      jumpi\n      dup1\n      0x42966c68\n      eq\n      tag_12\n      jumpi\n      dup1\n      0x4f6ccce7\n      eq\n      tag_13\n      jumpi\n      jump(tag_2)\n    tag_27:\n      dup1\n      0x06fdde03\n      eq\n      tag_3\n      jumpi\n      dup1\n      0x095ea7b3\n      eq\n      tag_4\n      jumpi\n      dup1\n      0x18160ddd\n      eq\n      tag_5\n      jumpi\n      dup1\n      0x23b872dd\n      eq\n      tag_6\n      jumpi\n      dup1\n      0x2f745c59\n      eq\n      tag_7\n      jumpi\n    tag_2:\n      0x00\n      dup1\n      revert\n        /* \"@openzeppelin/contracts@4.9.2/token/ERC20/ERC20.sol\":2158:2256  function name() public view virtual override returns (string memory) {... */\n    tag_3:\n      tag_28\n      tag_29\n      jump\t// in\n    tag_28:\n      mload(0x40)\n      tag_30\n      swap2\n      swap1\n      tag_31\n      jump\t// in\n    tag_30:\n      mload(0x40)\n      dup1\n      swap2\n      sub\n      swap1\n      return\n        /* \"@openzeppelin/contracts@4.9.2/token/ERC20/ERC20.sol\":4444:4641  function approve(address spender, uint256 amount) public virtual override returns (bool) {... */\n    tag_4:\n      tag_32\n      0x04\n      dup1\n      calldatasize\n      sub\n      dup2\n      add\n      swap1\n      tag_33\n      swap2\n      swap1\n      tag_34\n      jump\t// in\n    tag_33:\n      tag_35\n      jump\t// in\n    tag_32:\n      mload(0x40)\n      tag_36\n      swap2\n      swap1\n      tag_37\n      jump\t// in\n    tag_36:\n      mload(0x40)\n      dup1\n      swap2\n      sub\n      swap1\n      return\n        /* \"@openzeppelin/contracts@4.9.2/token/ERC20/ERC20.sol\":3255:3361  function totalSupply() public view virtual override returns (uint256) {... */\n    tag_5:\n      tag_38\n      tag_39\n      jump\t// in\n    tag_38:\n      mload(0x40)\n      tag_40\n      swap2\n      swap1\n      tag_41\n      jump\t// in\n    tag_40:\n      mload(0x40)\n      dup1\n      swap2\n      sub\n      swap1\n      return\n        /* \"@openzeppelin/contracts@4.9.2/token/ERC20/ERC20.sol\":5203:5459  function transferFrom(address from, address to, uint256 amount) public virtual override returns (bool) {... */\n    tag_6:\n      tag_42\n      0x04\n      dup1\n      calldatasize\n      sub\n      dup2\n      add\n      swap1\n      tag_43\n      swap2\n      swap1\n      tag_44\n      jump\t// in\n    tag_43:\n      tag_45\n      jump\t// in\n    tag_42:\n      mload(0x40)\n      tag_46\n      swap2\n      swap1\n      tag_37\n      jump\t// in\n    tag_46:\n      mload(0x40)\n      dup1\n      swap2\n      sub\n      swap1\n      return\n        /* \"contract-54a644c577.sol\":886:1084  function tokenOfOwnerByIndex(address owner, uint256 index) public view returns (uint256) {... */\n    tag_7:\n      tag_47\n      0x04\n      dup1\n      calldatasize\n      sub\n      dup2\n      add\n      swap1\n      tag_48\n      swap2\n      swap1\n      tag_34\n      jump\t// in\n    tag_48:\n      tag_49\n      jump\t// in\n    tag_47:\n      mload(0x40)\n      tag_50\n      swap2\n      swap1\n      tag_41\n      jump\t// in\n    tag_50:\n      mload(0x40)\n      dup1\n      swap2\n      sub\n      swap1\n      return\n        /* \"@openzeppelin/contracts@4.9.2/token/ERC20/ERC20.sol\":3104:3195  function decimals() public view virtual override returns (uint8) {... */\n    tag_8:\n      tag_51\n      tag_52\n      jump\t// in\n    tag_51:\n      mload(0x40)\n      tag_53\n      swap2\n      swap1\n      tag_54\n      jump\t// in\n    tag_53:\n      mload(0x40)\n      dup1\n      swap2\n      sub\n      swap1\n      return\n        /* \"@openzeppelin/contracts@4.9.2/token/ERC20/ERC20.sol\":5854:6088  function increaseAllowance(address spender, uint256 addedValue) public virtual returns (bool) {... */\n    tag_9:\n      tag_55\n      0x04\n      dup1\n      calldatasize\n      sub\n      dup2\n      add\n      swap1\n      tag_56\n      swap2\n      swap1\n      tag_34\n      jump\t// in\n    tag_56:\n      tag_57\n      jump\t// in\n    tag_55:\n      mload(0x40)\n      tag_58\n      swap2\n      swap1\n      tag_37\n      jump\t// in\n    tag_58:\n      mload(0x40)\n      dup1\n      swap2\n      sub\n      swap1\n      return\n        /* \"contract-54a644c577.sol\":519:582  function unpause() public onlyOwner {... */\n    tag_10:\n      tag_59\n      tag_60\n      jump\t// in\n    tag_59:\n      stop\n        /* \"contract-54a644c577.sol\":588:681  function mint(address to, uint256 amount) public onlyOwner {... */\n    tag_11:\n      tag_61\n      0x04\n      dup1\n      calldatasize\n      sub\n      dup2\n      add\n      swap1\n      tag_62\n      swap2\n      swap1\n      tag_34\n      jump\t// in\n    tag_62:\n      tag_63\n      jump\t// in\n    tag_61:\n      stop\n        /* \"@openzeppelin/contracts@4.9.2/token/ERC20/extensions/ERC20Burnable.sol\":578:667  function burn(uint256 amount) public virtual {... */\n    tag_12:\n      tag_64\n      0x04\n      dup1\n      calldatasize\n      sub\n      dup2\n      add\n      swap1\n      tag_65\n      swap2\n      swap1\n      tag_66\n      jump\t// in\n    tag_65:\n      tag_67\n      jump\t// in\n    tag_64:\n      stop\n        /* \"contract-54a644c577.sol\":1090:1253  function tokenByIndex(uint256 index) public view returns (uint256) {... */\n    tag_13:\n      tag_68\n      0x04\n      dup1\n      calldatasize\n      sub\n      dup2\n      add\n      swap1\n      tag_69\n      swap2\n      swap1\n      tag_66\n      jump\t// in\n    tag_69:\n      tag_70\n      jump\t// in\n    tag_68:\n      mload(0x40)\n      tag_71\n      swap2\n      swap1\n      tag_41\n      jump\t// in\n    tag_71:\n      mload(0x40)\n      dup1\n      swap2\n      sub\n      swap1\n      return\n        /* \"@openzeppelin/contracts@4.9.2/security/Pausable.sol\":1615:1699  function paused() public view virtual returns (bool) {... */\n    tag_14:\n      tag_72\n      tag_73\n      jump\t// in\n    tag_72:\n      mload(0x40)\n      tag_74\n      swap2\n      swap1\n      tag_37\n      jump\t// in\n    tag_74:\n      mload(0x40)\n      dup1\n      swap2\n      sub\n      swap1\n      return\n        /* \"@openzeppelin/contracts@4.9.2/token/ERC20/ERC20.sol\":3419:3544  function balanceOf(address account) public view virtual override returns (uint256) {... */\n    tag_15:\n      tag_75\n      0x04\n      dup1\n      calldatasize\n      sub\n      dup2\n      add\n      swap1\n      tag_76\n      swap2\n      swap1\n      tag_77\n      jump\t// in\n    tag_76:\n      tag_78\n      jump\t// in\n    tag_75:\n      mload(0x40)\n      tag_79\n      swap2\n      swap1\n      tag_41\n      jump\t// in\n    tag_79:\n      mload(0x40)\n      dup1\n      swap2\n      sub\n      swap1\n      return\n        /* \"@openzeppelin/contracts@4.9.2/access/Ownable.sol\":1824:1925  function renounceOwnership() public virtual onlyOwner {... */\n    tag_16:\n      tag_80\n      tag_81\n      jump\t// in\n    tag_80:\n      stop\n        /* \"@openzeppelin/contracts@4.9.2/token/ERC20/extensions/ERC20Burnable.sol\":973:1134  function burnFrom(address account, uint256 amount) public virtual {... */\n    tag_17:\n      tag_82\n      0x04\n      dup1\n      calldatasize\n      sub\n      dup2\n      add\n      swap1\n      tag_83\n      swap2\n      swap1\n      tag_34\n      jump\t// in\n    tag_83:\n      tag_84\n      jump\t// in\n    tag_82:\n      stop\n        /* \"contract-54a644c577.sol\":454:513  function pause() public onlyOwner {... */\n    tag_18:\n      tag_85\n      tag_86\n      jump\t// in\n    tag_85:\n      stop\n        /* \"@openzeppelin/contracts@4.9.2/access/Ownable.sol\":1201:1286  function owner() public view virtual returns (address) {... */\n    tag_19:\n      tag_87\n      tag_88\n      jump\t// in\n    tag_87:\n      mload(0x40)\n      tag_89\n      swap2\n      swap1\n      tag_90\n      jump\t// in\n    tag_89:\n      mload(0x40)\n      dup1\n      swap2\n      sub\n      swap1\n      return\n        /* \"@openzeppelin/contracts@4.9.2/token/ERC20/ERC20.sol\":2369:2471  function symbol() public view virtual override returns (string memory) {... */\n    tag_20:\n      tag_91\n      tag_92\n      jump\t// in\n    tag_91:\n      mload(0x40)\n      tag_93\n      swap2\n      swap1\n      tag_31\n      jump\t// in\n    tag_93:\n      mload(0x40)\n      dup1\n      swap2\n      sub\n      swap1\n      return\n        /* \"@openzeppelin/contracts@4.9.2/token/ERC20/ERC20.sol\":6575:7002  function decreaseAllowance(address spender, uint256 subtractedValue) public virtual returns (bool) {... */\n    tag_21:\n      tag_94\n      0x04\n      dup1\n      calldatasize\n      sub\n      dup2\n      add\n      swap1\n      tag_95\n      swap2\n      swap1\n      tag_34\n      jump\t// in\n    tag_95:\n      tag_96\n      jump\t// in\n    tag_94:\n      mload(0x40)\n      tag_97\n      swap2\n      swap1\n      tag_37\n      jump\t// in\n    tag_97:\n      mload(0x40)\n      dup1\n      swap2\n      sub\n      swap1\n      return\n        /* \"@openzeppelin/contracts@4.9.2/token/ERC20/ERC20.sol\":3740:3929  function transfer(address to, uint256 amount) public virtual override returns (bool) {... */\n    tag_22:\n      tag_98\n      0x04\n      dup1\n      calldatasize\n      sub\n      dup2\n      add\n      swap1\n      tag_99\n      swap2\n      swap1\n      tag_34\n      jump\t// in\n    tag_99:\n      tag_100\n      jump\t// in\n    tag_98:\n      mload(0x40)\n      tag_101\n      swap2\n      swap1\n      tag_37\n      jump\t// in\n    tag_101:\n      mload(0x40)\n      dup1\n      swap2\n      sub\n      swap1\n      return\n        /* \"@openzeppelin/contracts@4.9.2/token/ERC20/ERC20.sol\":3987:4136  function allowance(address owner, address spender) public view virtual override returns (uint256) {... */\n    tag_23:\n      tag_102\n      0x04\n      dup1\n      calldatasize\n      sub\n      dup2\n      add\n      swap1\n      tag_103\n      swap2\n      swap1\n      tag_104\n      jump\t// in\n    tag_103:\n      tag_105\n      jump\t// in\n    tag_102:\n      mload(0x40)\n      tag_106\n      swap2\n      swap1\n      tag_41\n      jump\t// in\n    tag_106:\n      mload(0x40)\n      dup1\n      swap2\n      sub\n      swap1\n      return\n        /* \"@openzeppelin/contracts@4.9.2/access/Ownable.sol\":2074:2272  function transferOwnership(address newOwner) public virtual onlyOwner {... */\n    tag_24:\n      tag_107\n      0x04\n      dup1\n      calldatasize\n      sub\n      dup2\n      add\n      swap1\n      tag_108\n      swap2\n      swap1\n      tag_77\n      jump\t// in\n    tag_108:\n      tag_109\n      jump\t// in\n    tag_107:\n      stop\n        /* \"@openzeppelin/contracts@4.9.2/token/ERC20/ERC20.sol\":2158:2256  function name() public view virtual override returns (string memory) {... */\n    tag_29:\n        /* \"@openzeppelin/contracts@4.9.2/token/ERC20/ERC20.sol\":2212:2225  string memory */\n      0x60\n        /* \"@openzeppelin/contracts@4.9.2/token/ERC20/ERC20.sol\":2244:2249  _name */\n      0x03\n        /* \"@openzeppelin/contracts@4.9.2/token/ERC20/ERC20.sol\":2237:2249  return _name */\n      dup1\n      sload\n      tag_111\n      swap1\n      tag_112\n      jump\t// in\n    tag_111:\n      dup1\n      0x1f\n      add\n      0x20\n      dup1\n      swap2\n      div\n      mul\n      0x20\n      add\n      mload(0x40)\n      swap1\n      dup2\n      add\n      0x40\n      mstore\n      dup1\n      swap3\n      swap2\n      swap1\n      dup2\n      dup2\n      mstore\n      0x20\n      add\n      dup3\n      dup1\n      sload\n      tag_113\n      swap1\n      tag_112\n      jump\t// in\n    tag_113:\n      dup1\n      iszero\n      tag_114\n      jumpi\n      dup1\n      0x1f\n      lt\n      tag_115\n      jumpi\n      0x0100\n      dup1\n      dup4\n      sload\n      div\n      mul\n      dup4\n      mstore\n      swap2\n      0x20\n      add\n      swap2\n      jump(tag_114)\n    tag_115:\n      dup3\n      add\n      swap2\n      swap1\n      0x00\n      mstore\n      keccak256(0x00, 0x20)\n      swap1\n    tag_116:\n      dup2\n      sload\n      dup2\n      mstore\n      swap1\n      0x01\n      add\n      swap1\n      0x20\n      add\n      dup1\n      dup4\n      gt\n      tag_116\n      jumpi\n      dup3\n      swap1\n      sub\n      0x1f\n      and\n      dup3\n      add\n      swap2\n    tag_114:\n      pop\n      pop\n      pop\n      pop\n      pop\n      swap1\n      pop\n        /* \"@openzeppelin/contracts@4.9.2/token/ERC20/ERC20.sol\":2158:2256  function name() public view virtual override returns (string memory) {... */\n      swap1\n      jump\t// out\n        /* \"@openzeppelin/contracts@4.9.2/token/ERC20/ERC20.sol\":4444:4641  function approve(address spender, uint256 amount) public virtual override returns (bool) {... */\n    tag_35:\n        /* \"@openzeppelin/contracts@4.9.2/token/ERC20/ERC20.sol\":4527:4531  bool */\n      0x00\n        /* \"@openzeppelin/contracts@4.9.2/token/ERC20/ERC20.sol\":4543:4556  address owner */\n      dup1\n        /* \"@openzeppelin/contracts@4.9.2/token/ERC20/ERC20.sol\":4559:4571  _msgSender() */\n      tag_118\n        /* \"@openzeppelin/contracts@4.9.2/token/ERC20/ERC20.sol\":4559:4569  _msgSender */\n      tag_119\n        /* \"@openzeppelin/contracts@4.9.2/token/ERC20/ERC20.sol\":4559:4571  _msgSender() */\n      jump\t// in\n    tag_118:\n        /* \"@openzeppelin/contracts@4.9.2/token/ERC20/ERC20.sol\":4543:4571  address owner = _msgSender() */\n      swap1\n      pop\n        /* \"@openzeppelin/contracts@4.9.2/token/ERC20/ERC20.sol\":4581:4613  _approve(owner, spender, amount) */\n      tag_120\n        /* \"@openzeppelin/contracts@4.9.2/token/ERC20/ERC20.sol\":4590:4595  owner */\n      dup2\n        /* \"@openzeppelin/contracts@4.9.2/token/ERC20/ERC20.sol\":4597:4604  spender */\n      dup6\n        /* \"@openzeppelin/contracts@4.9.2/token/ERC20/ERC20.sol\":4606:4612  amount */\n      dup6\n        /* \"@openzeppelin/contracts@4.9.2/token/ERC20/ERC20.sol\":4581:4589  _approve */\n      tag_121\n        /* \"@openzeppelin/contracts@4.9.2/token/ERC20/ERC20.sol\":4581:4613  _approve(owner, spender, amount) */\n      jump\t// in\n    tag_120:\n        /* \"@openzeppelin/contracts@4.9.2/token/ERC20/ERC20.sol\":4630:4634  true */\n      0x01\n        /* \"@openzeppelin/contracts@4.9.2/token/ERC20/ERC20.sol\":4623:4634  return true */\n      swap2\n      pop\n      pop\n        /* \"@openzeppelin/contracts@4.9.2/token/ERC20/ERC20.sol\":4444:4641  function approve(address spender, uint256 amount) public virtual override returns (bool) {... */\n      swap3\n      swap2\n      pop\n      pop\n      jump\t// out\n        /* \"@openzeppelin/contracts@4.9.2/token/ERC20/ERC20.sol\":3255:3361  function totalSupply() public view virtual override returns (uint256) {... */\n    tag_39:\n        /* \"@openzeppelin/contracts@4.9.2/token/ERC20/ERC20.sol\":3316:3323  uint256 */\n      0x00\n        /* \"@openzeppelin/contracts@4.9.2/token/ERC20/ERC20.sol\":3342:3354  _totalSupply */\n      sload(0x02)\n        /* \"@openzeppelin/contracts@4.9.2/token/ERC20/ERC20.sol\":3335:3354  return _totalSupply */\n      swap1\n      pop\n        /* \"@openzeppelin/contracts@4.9.2/token/ERC20/ERC20.sol\":3255:3361  function totalSupply() public view virtual override returns (uint256) {... */\n      swap1\n      jump\t// out\n        /* \"@openzeppelin/contracts@4.9.2/token/ERC20/ERC20.sol\":5203:5459  function transferFrom(address from, address to, uint256 amount) public virtual override returns (bool) {... */\n    tag_45:\n        /* \"@openzeppelin/contracts@4.9.2/token/ERC20/ERC20.sol\":5300:5304  bool */\n      0x00\n        /* \"@openzeppelin/contracts@4.9.2/token/ERC20/ERC20.sol\":5316:5331  address spender */\n      dup1\n        /* \"@openzeppelin/contracts@4.9.2/token/ERC20/ERC20.sol\":5334:5346  _msgSender() */\n      tag_124\n        /* \"@openzeppelin/contracts@4.9.2/token/ERC20/ERC20.sol\":5334:5344  _msgSender */\n      tag_119\n        /* \"@openzeppelin/contracts@4.9.2/token/ERC20/ERC20.sol\":5334:5346  _msgSender() */\n      jump\t// in\n    tag_124:\n        /* \"@openzeppelin/contracts@4.9.2/token/ERC20/ERC20.sol\":5316:5346  address spender = _msgSender() */\n      swap1\n      pop\n        /* \"@openzeppelin/contracts@4.9.2/token/ERC20/ERC20.sol\":5356:5394  _spendAllowance(from, spender, amount) */\n      tag_125\n        /* \"@openzeppelin/contracts@4.9.2/token/ERC20/ERC20.sol\":5372:5376  from */\n      dup6\n        /* \"@openzeppelin/contracts@4.9.2/token/ERC20/ERC20.sol\":5378:5385  spender */\n      dup3\n        /* \"@openzeppelin/contracts@4.9.2/token/ERC20/ERC20.sol\":5387:5393  amount */\n      dup6\n        /* \"@openzeppelin/contracts@4.9.2/token/ERC20/ERC20.sol\":5356:5371  _spendAllowance */\n      tag_126\n        /* \"@openzeppelin/contracts@4.9.2/token/ERC20/ERC20.sol\":5356:5394  _spendAllowance(from, spender, amount) */\n      jump\t// in\n    tag_125:\n        /* \"@openzeppelin/contracts@4.9.2/token/ERC20/ERC20.sol\":5404:5431  _transfer(from, to, amount) */\n      tag_127\n        /* \"@openzeppelin/contracts@4.9.2/token/ERC20/ERC20.sol\":5414:5418  from */\n      dup6\n        /* \"@openzeppelin/contracts@4.9.2/token/ERC20/ERC20.sol\":5420:5422  to */\n      dup6\n        /* \"@openzeppelin/contracts@4.9.2/token/ERC20/ERC20.sol\":5424:5430  amount */\n      dup6\n        /* \"@openzeppelin/contracts@4.9.2/token/ERC20/ERC20.sol\":5404:5413  _transfer */\n      tag_128\n        /* \"@openzeppelin/contracts@4.9.2/token/ERC20/ERC20.sol\":5404:5431  _transfer(from, to, amount) */\n      jump\t// in\n    tag_127:\n        /* \"@openzeppelin/contracts@4.9.2/token/ERC20/ERC20.sol\":5448:5452  true */\n      0x01\n        /* \"@openzeppelin/contracts@4.9.2/token/ERC20/ERC20.sol\":5441:5452  return true */\n      swap2\n      pop\n      pop\n        /* \"@openzeppelin/contracts@4.9.2/token/ERC20/ERC20.sol\":5203:5459  function transferFrom(address from, address to, uint256 amount) public virtual override returns (bool) {... */\n      swap4\n      swap3\n      pop\n      pop\n      pop\n      jump\t// out\n        /* \"contract-54a644c577.sol\":886:1084  function tokenOfOwnerByIndex(address owner, uint256 index) public view returns (uint256) {... */\n    tag_49:\n        /* \"contract-54a644c577.sol\":966:973  uint256 */\n      0x00\n        /* \"contract-54a644c577.sol\":1001:1017  balanceOf(owner) */\n      tag_130\n        /* \"contract-54a644c577.sol\":1011:1016  owner */\n      dup4\n        /* \"contract-54a644c577.sol\":1001:1010  balanceOf */\n      tag_78\n        /* \"contract-54a644c577.sol\":1001:1017  balanceOf(owner) */\n      jump\t// in\n    tag_130:\n        /* \"contract-54a644c577.sol\":993:998  index */\n      dup3\n        /* \"contract-54a644c577.sol\":993:1017  index < balanceOf(owner) */\n      lt\n        /* \"contract-54a644c577.sol\":985:1041  require(index < balanceOf(owner), \"Invalid token index\") */\n      tag_131\n      jumpi\n      mload(0x40)\n      0x08c379a000000000000000000000000000000000000000000000000000000000\n      dup2\n      mstore\n      0x04\n      add\n      tag_132\n      swap1\n      tag_133\n      jump\t// in\n    tag_132:\n      mload(0x40)\n      dup1\n      swap2\n      sub\n      swap1\n      revert\n    tag_131:\n        /* \"contract-54a644c577.sol\":1058:1077  tokenByIndex(index) */\n      tag_134\n        /* \"contract-54a644c577.sol\":1071:1076  index */\n      dup3\n        /* \"contract-54a644c577.sol\":1058:1070  tokenByIndex */\n      tag_70\n        /* \"contract-54a644c577.sol\":1058:1077  tokenByIndex(index) */\n      jump\t// in\n    tag_134:\n        /* \"contract-54a644c577.sol\":1051:1077  return tokenByIndex(index) */\n      swap1\n      pop\n        /* \"contract-54a644c577.sol\":886:1084  function tokenOfOwnerByIndex(address owner, uint256 index) public view returns (uint256) {... */\n      swap3\n      swap2\n      pop\n      pop\n      jump\t// out\n        /* \"@openzeppelin/contracts@4.9.2/token/ERC20/ERC20.sol\":3104:3195  function decimals() public view virtual override returns (uint8) {... */\n    tag_52:\n        /* \"@openzeppelin/contracts@4.9.2/token/ERC20/ERC20.sol\":3162:3167  uint8 */\n      0x00\n        /* \"@openzeppelin/contracts@4.9.2/token/ERC20/ERC20.sol\":3186:3188  18 */\n      0x12\n        /* \"@openzeppelin/contracts@4.9.2/token/ERC20/ERC20.sol\":3179:3188  return 18 */\n      swap1\n      pop\n        /* \"@openzeppelin/contracts@4.9.2/token/ERC20/ERC20.sol\":3104:3195  function decimals() public view virtual override returns (uint8) {... */\n      swap1\n      jump\t// out\n        /* \"@openzeppelin/contracts@4.9.2/token/ERC20/ERC20.sol\":5854:6088  function increaseAllowance(address spender, uint256 addedValue) public virtual returns (bool) {... */\n    tag_57:\n        /* \"@openzeppelin/contracts@4.9.2/token/ERC20/ERC20.sol\":5942:5946  bool */\n      0x00\n        /* \"@openzeppelin/contracts@4.9.2/token/ERC20/ERC20.sol\":5958:5971  address owner */\n      dup1\n        /* \"@openzeppelin/contracts@4.9.2/token/ERC20/ERC20.sol\":5974:5986  _msgSender() */\n      tag_137\n        /* \"@openzeppelin/contracts@4.9.2/token/ERC20/ERC20.sol\":5974:5984  _msgSender */\n      tag_119\n        /* \"@openzeppelin/contracts@4.9.2/token/ERC20/ERC20.sol\":5974:5986  _msgSender() */\n      jump\t// in\n    tag_137:\n        /* \"@openzeppelin/contracts@4.9.2/token/ERC20/ERC20.sol\":5958:5986  address owner = _msgSender() */\n      swap1\n      pop\n        /* \"@openzeppelin/contracts@4.9.2/token/ERC20/ERC20.sol\":5996:6060  _approve(owner, spender, allowance(owner, spender) + addedValue) */\n      tag_138\n        /* \"@openzeppelin/contracts@4.9.2/token/ERC20/ERC20.sol\":6005:6010  owner */\n      dup2\n        /* \"@openzeppelin/contracts@4.9.2/token/ERC20/ERC20.sol\":6012:6019  spender */\n      dup6\n        /* \"@openzeppelin/contracts@4.9.2/token/ERC20/ERC20.sol\":6049:6059  addedValue */\n      dup6\n        /* \"@openzeppelin/contracts@4.9.2/token/ERC20/ERC20.sol\":6021:6046  allowance(owner, spender) */\n      tag_139\n        /* \"@openzeppelin/contracts@4.9.2/token/ERC20/ERC20.sol\":6031:6036  owner */\n      dup6\n        /* \"@openzeppelin/contracts@4.9.2/token/ERC20/ERC20.sol\":6038:6045  spender */\n      dup10\n        /* \"@openzeppelin/contracts@4.9.2/token/ERC20/ERC20.sol\":6021:6030  allowance */\n      tag_105\n        /* \"@openzeppelin/contracts@4.9.2/token/ERC20/ERC20.sol\":6021:6046  allowance(owner, spender) */\n      jump\t// in\n    tag_139:\n        /* \"@openzeppelin/contracts@4.9.2/token/ERC20/ERC20.sol\":6021:6059  allowance(owner, spender) + addedValue */\n      tag_140\n      swap2\n      swap1\n      tag_141\n      jump\t// in\n    tag_140:\n        /* \"@openzeppelin/contracts@4.9.2/token/ERC20/ERC20.sol\":5996:6004  _approve */\n      tag_121\n        /* \"@openzeppelin/contracts@4.9.2/token/ERC20/ERC20.sol\":5996:6060  _approve(owner, spender, allowance(owner, spender) + addedValue) */\n      jump\t// in\n    tag_138:\n        /* \"@openzeppelin/contracts@4.9.2/token/ERC20/ERC20.sol\":6077:6081  true */\n      0x01\n        /* \"@openzeppelin/contracts@4.9.2/token/ERC20/ERC20.sol\":6070:6081  return true */\n      swap2\n      pop\n      pop\n        /* \"@openzeppelin/contracts@4.9.2/token/ERC20/ERC20.sol\":5854:6088  function increaseAllowance(address spender, uint256 addedValue) public virtual returns (bool) {... */\n      swap3\n      swap2\n      pop\n      pop\n      jump\t// out\n        /* \"contract-54a644c577.sol\":519:582  function unpause() public onlyOwner {... */\n    tag_60:\n        /* \"@openzeppelin/contracts@4.9.2/access/Ownable.sol\":1094:1107  _checkOwner() */\n      tag_143\n        /* \"@openzeppelin/contracts@4.9.2/access/Ownable.sol\":1094:1105  _checkOwner */\n      tag_144\n        /* \"@openzeppelin/contracts@4.9.2/access/Ownable.sol\":1094:1107  _checkOwner() */\n      jump\t// in\n    tag_143:\n        /* \"contract-54a644c577.sol\":565:575  _unpause() */\n      tag_146\n        /* \"contract-54a644c577.sol\":565:573  _unpause */\n      tag_147\n        /* \"contract-54a644c577.sol\":565:575  _unpause() */\n      jump\t// in\n    tag_146:\n        /* \"contract-54a644c577.sol\":519:582  function unpause() public onlyOwner {... */\n      jump\t// out\n        /* \"contract-54a644c577.sol\":588:681  function mint(address to, uint256 amount) public onlyOwner {... */\n    tag_63:\n        /* \"@openzeppelin/contracts@4.9.2/access/Ownable.sol\":1094:1107  _checkOwner() */\n      tag_149\n        /* \"@openzeppelin/contracts@4.9.2/access/Ownable.sol\":1094:1105  _checkOwner */\n      tag_144\n        /* \"@openzeppelin/contracts@4.9.2/access/Ownable.sol\":1094:1107  _checkOwner() */\n      jump\t// in\n    tag_149:\n        /* \"contract-54a644c577.sol\":657:674  _mint(to, amount) */\n      tag_151\n        /* \"contract-54a644c577.sol\":663:665  to */\n      dup3\n        /* \"contract-54a644c577.sol\":667:673  amount */\n      dup3\n        /* \"contract-54a644c577.sol\":657:662  _mint */\n      tag_152\n        /* \"contract-54a644c577.sol\":657:674  _mint(to, amount) */\n      jump\t// in\n    tag_151:\n        /* \"contract-54a644c577.sol\":588:681  function mint(address to, uint256 amount) public onlyOwner {... */\n      pop\n      pop\n      jump\t// out\n        /* \"@openzeppelin/contracts@4.9.2/token/ERC20/extensions/ERC20Burnable.sol\":578:667  function burn(uint256 amount) public virtual {... */\n    tag_67:\n        /* \"@openzeppelin/contracts@4.9.2/token/ERC20/extensions/ERC20Burnable.sol\":633:660  _burn(_msgSender(), amount) */\n      tag_154\n        /* \"@openzeppelin/contracts@4.9.2/token/ERC20/extensions/ERC20Burnable.sol\":639:651  _msgSender() */\n      tag_155\n        /* \"@openzeppelin/contracts@4.9.2/token/ERC20/extensions/ERC20Burnable.sol\":639:649  _msgSender */\n      tag_119\n        /* \"@openzeppelin/contracts@4.9.2/token/ERC20/extensions/ERC20Burnable.sol\":639:651  _msgSender() */\n      jump\t// in\n    tag_155:\n        /* \"@openzeppelin/contracts@4.9.2/token/ERC20/extensions/ERC20Burnable.sol\":653:659  amount */\n      dup3\n        /* \"@openzeppelin/contracts@4.9.2/token/ERC20/extensions/ERC20Burnable.sol\":633:638  _burn */\n      tag_156\n        /* \"@openzeppelin/contracts@4.9.2/token/ERC20/extensions/ERC20Burnable.sol\":633:660  _burn(_msgSender(), amount) */\n      jump\t// in\n    tag_154:\n        /* \"@openzeppelin/contracts@4.9.2/token/ERC20/extensions/ERC20Burnable.sol\":578:667  function burn(uint256 amount) public virtual {... */\n      pop\n      jump\t// out\n        /* \"contract-54a644c577.sol\":1090:1253  function tokenByIndex(uint256 index) public view returns (uint256) {... */\n    tag_70:\n        /* \"contract-54a644c577.sol\":1148:1155  uint256 */\n      0x00\n        /* \"contract-54a644c577.sol\":1183:1196  totalSupply() */\n      tag_158\n        /* \"contract-54a644c577.sol\":1183:1194  totalSupply */\n      tag_39\n        /* \"contract-54a644c577.sol\":1183:1196  totalSupply() */\n      jump\t// in\n    tag_158:\n        /* \"contract-54a644c577.sol\":1175:1180  index */\n      dup3\n        /* \"contract-54a644c577.sol\":1175:1196  index < totalSupply() */\n      lt\n        /* \"contract-54a644c577.sol\":1167:1220  require(index < totalSupply(), \"Invalid token index\") */\n      tag_159\n      jumpi\n      mload(0x40)\n      0x08c379a000000000000000000000000000000000000000000000000000000000\n      dup2\n      mstore\n      0x04\n      add\n      tag_160\n      swap1\n      tag_133\n      jump\t// in\n    tag_160:\n      mload(0x40)\n      dup1\n      swap2\n      sub\n      swap1\n      revert\n    tag_159:\n        /* \"contract-54a644c577.sol\":1245:1246  1 */\n      0x01\n        /* \"contract-54a644c577.sol\":1237:1242  index */\n      dup3\n        /* \"contract-54a644c577.sol\":1237:1246  index + 1 */\n      tag_161\n      swap2\n      swap1\n      tag_141\n      jump\t// in\n    tag_161:\n        /* \"contract-54a644c577.sol\":1230:1246  return index + 1 */\n      swap1\n      pop\n        /* \"contract-54a644c577.sol\":1090:1253  function tokenByIndex(uint256 index) public view returns (uint256) {... */\n      swap2\n      swap1\n      pop\n      jump\t// out\n        /* \"@openzeppelin/contracts@4.9.2/security/Pausable.sol\":1615:1699  function paused() public view virtual returns (bool) {... */\n    tag_73:\n        /* \"@openzeppelin/contracts@4.9.2/security/Pausable.sol\":1662:1666  bool */\n      0x00\n        /* \"@openzeppelin/contracts@4.9.2/security/Pausable.sol\":1685:1692  _paused */\n      0x05\n      0x00\n      swap1\n      sload\n      swap1\n      0x0100\n      exp\n      swap1\n      div\n      0xff\n      and\n        /* \"@openzeppelin/contracts@4.9.2/security/Pausable.sol\":1678:1692  return _paused */\n      swap1\n      pop\n        /* \"@openzeppelin/contracts@4.9.2/security/Pausable.sol\":1615:1699  function paused() public view virtual returns (bool) {... */\n      swap1\n      jump\t// out\n        /* \"@openzeppelin/contracts@4.9.2/token/ERC20/ERC20.sol\":3419:3544  function balanceOf(address account) public view virtual override returns (uint256) {... */\n    tag_78:\n        /* \"@openzeppelin/contracts@4.9.2/token/ERC20/ERC20.sol\":3493:3500  uint256 */\n      0x00\n        /* \"@openzeppelin/contracts@4.9.2/token/ERC20/ERC20.sol\":3519:3528  _balances */\n      dup1\n        /* \"@openzeppelin/contracts@4.9.2/token/ERC20/ERC20.sol\":3519:3537  _balances[account] */\n      0x00\n        /* \"@openzeppelin/contracts@4.9.2/token/ERC20/ERC20.sol\":3529:3536  account */\n      dup4\n        /* \"@openzeppelin/contracts@4.9.2/token/ERC20/ERC20.sol\":3519:3537  _balances[account] */\n      0xffffffffffffffffffffffffffffffffffffffff\n      and\n      0xffffffffffffffffffffffffffffffffffffffff\n      and\n      dup2\n      mstore\n      0x20\n      add\n      swap1\n      dup2\n      mstore\n      0x20\n      add\n      0x00\n      keccak256\n      sload\n        /* \"@openzeppelin/contracts@4.9.2/token/ERC20/ERC20.sol\":3512:3537  return _balances[account] */\n      swap1\n      pop\n        /* \"@openzeppelin/contracts@4.9.2/token/ERC20/ERC20.sol\":3419:3544  function balanceOf(address account) public view virtual override returns (uint256) {... */\n      swap2\n      swap1\n      pop\n      jump\t// out\n        /* \"@openzeppelin/contracts@4.9.2/access/Ownable.sol\":1824:1925  function renounceOwnership() public virtual onlyOwner {... */\n    tag_81:\n        /* \"@openzeppelin/contracts@4.9.2/access/Ownable.sol\":1094:1107  _checkOwner() */\n      tag_165\n        /* \"@openzeppelin/contracts@4.9.2/access/Ownable.sol\":1094:1105  _checkOwner */\n      tag_144\n        /* \"@openzeppelin/contracts@4.9.2/access/Ownable.sol\":1094:1107  _checkOwner() */\n      jump\t// in\n    tag_165:\n        /* \"@openzeppelin/contracts@4.9.2/access/Ownable.sol\":1888:1918  _transferOwnership(address(0)) */\n      tag_167\n        /* \"@openzeppelin/contracts@4.9.2/access/Ownable.sol\":1915:1916  0 */\n      0x00\n        /* \"@openzeppelin/contracts@4.9.2/access/Ownable.sol\":1888:1906  _transferOwnership */\n      tag_168\n        /* \"@openzeppelin/contracts@4.9.2/access/Ownable.sol\":1888:1918  _transferOwnership(address(0)) */\n      jump\t// in\n    tag_167:\n        /* \"@openzeppelin/contracts@4.9.2/access/Ownable.sol\":1824:1925  function renounceOwnership() public virtual onlyOwner {... */\n      jump\t// out\n        /* \"@openzeppelin/contracts@4.9.2/token/ERC20/extensions/ERC20Burnable.sol\":973:1134  function burnFrom(address account, uint256 amount) public virtual {... */\n    tag_84:\n        /* \"@openzeppelin/contracts@4.9.2/token/ERC20/extensions/ERC20Burnable.sol\":1049:1095  _spendAllowance(account, _msgSender(), amount) */\n      tag_170\n        /* \"@openzeppelin/contracts@4.9.2/token/ERC20/extensions/ERC20Burnable.sol\":1065:1072  account */\n      dup3\n        /* \"@openzeppelin/contracts@4.9.2/token/ERC20/extensions/ERC20Burnable.sol\":1074:1086  _msgSender() */\n      tag_171\n        /* \"@openzeppelin/contracts@4.9.2/token/ERC20/extensions/ERC20Burnable.sol\":1074:1084  _msgSender */\n      tag_119\n        /* \"@openzeppelin/contracts@4.9.2/token/ERC20/extensions/ERC20Burnable.sol\":1074:1086  _msgSender() */\n      jump\t// in\n    tag_171:\n        /* \"@openzeppelin/contracts@4.9.2/token/ERC20/extensions/ERC20Burnable.sol\":1088:1094  amount */\n      dup4\n        /* \"@openzeppelin/contracts@4.9.2/token/ERC20/extensions/ERC20Burnable.sol\":1049:1064  _spendAllowance */\n      tag_126\n        /* \"@openzeppelin/contracts@4.9.2/token/ERC20/extensions/ERC20Burnable.sol\":1049:1095  _spendAllowance(account, _msgSender(), amount) */\n      jump\t// in\n    tag_170:\n        /* \"@openzeppelin/contracts@4.9.2/token/ERC20/extensions/ERC20Burnable.sol\":1105:1127  _burn(account, amount) */\n      tag_172\n        /* \"@openzeppelin/contracts@4.9.2/token/ERC20/extensions/ERC20Burnable.sol\":1111:1118  account */\n      dup3\n        /* \"@openzeppelin/contracts@4.9.2/token/ERC20/extensions/ERC20Burnable.sol\":1120:1126  amount */\n      dup3\n        /* \"@openzeppelin/contracts@4.9.2/token/ERC20/extensions/ERC20Burnable.sol\":1105:1110  _burn */\n      tag_156\n        /* \"@openzeppelin/contracts@4.9.2/token/ERC20/extensions/ERC20Burnable.sol\":1105:1127  _burn(account, amount) */\n      jump\t// in\n    tag_172:\n        /* \"@openzeppelin/contracts@4.9.2/token/ERC20/extensions/ERC20Burnable.sol\":973:1134  function burnFrom(address account, uint256 amount) public virtual {... */\n      pop\n      pop\n      jump\t// out\n        /* \"contract-54a644c577.sol\":454:513  function pause() public onlyOwner {... */\n    tag_86:\n        /* \"@openzeppelin/contracts@4.9.2/access/Ownable.sol\":1094:1107  _checkOwner() */\n      tag_174\n        /* \"@openzeppelin/contracts@4.9.2/access/Ownable.sol\":1094:1105  _checkOwner */\n      tag_144\n        /* \"@openzeppelin/contracts@4.9.2/access/Ownable.sol\":1094:1107  _checkOwner() */\n      jump\t// in\n    tag_174:\n        /* \"contract-54a644c577.sol\":498:506  _pause() */\n      tag_176\n        /* \"contract-54a644c577.sol\":498:504  _pause */\n      tag_177\n        /* \"contract-54a644c577.sol\":498:506  _pause() */\n      jump\t// in\n    tag_176:\n        /* \"contract-54a644c577.sol\":454:513  function pause() public onlyOwner {... */\n      jump\t// out\n        /* \"@openzeppelin/contracts@4.9.2/access/Ownable.sol\":1201:1286  function owner() public view virtual returns (address) {... */\n    tag_88:\n        /* \"@openzeppelin/contracts@4.9.2/access/Ownable.sol\":1247:1254  address */\n      0x00\n        /* \"@openzeppelin/contracts@4.9.2/access/Ownable.sol\":1273:1279  _owner */\n      0x05\n      0x01\n      swap1\n      sload\n      swap1\n      0x0100\n      exp\n      swap1\n      div\n      0xffffffffffffffffffffffffffffffffffffffff\n      and\n        /* \"@openzeppelin/contracts@4.9.2/access/Ownable.sol\":1266:1279  return _owner */\n      swap1\n      pop\n        /* \"@openzeppelin/contracts@4.9.2/access/Ownable.sol\":1201:1286  function owner() public view virtual returns (address) {... */\n      swap1\n      jump\t// out\n        /* \"@openzeppelin/contracts@4.9.2/token/ERC20/ERC20.sol\":2369:2471  function symbol() public view virtual override returns (string memory) {... */\n    tag_92:\n        /* \"@openzeppelin/contracts@4.9.2/token/ERC20/ERC20.sol\":2425:2438  string memory */\n      0x60\n        /* \"@openzeppelin/contracts@4.9.2/token/ERC20/ERC20.sol\":2457:2464  _symbol */\n      0x04\n        /* \"@openzeppelin/contracts@4.9.2/token/ERC20/ERC20.sol\":2450:2464  return _symbol */\n      dup1\n      sload\n      tag_180\n      swap1\n      tag_112\n      jump\t// in\n    tag_180:\n      dup1\n      0x1f\n      add\n      0x20\n      dup1\n      swap2\n      div\n      mul\n      0x20\n      add\n      mload(0x40)\n      swap1\n      dup2\n      add\n      0x40\n      mstore\n      dup1\n      swap3\n      swap2\n      swap1\n      dup2\n      dup2\n      mstore\n      0x20\n      add\n      dup3\n      dup1\n      sload\n      tag_181\n      swap1\n      tag_112\n      jump\t// in\n    tag_181:\n      dup1\n      iszero\n      tag_182\n      jumpi\n      dup1\n      0x1f\n      lt\n      tag_183\n      jumpi\n      0x0100\n      dup1\n      dup4\n      sload\n      div\n      mul\n      dup4\n      mstore\n      swap2\n      0x20\n      add\n      swap2\n      jump(tag_182)\n    tag_183:\n      dup3\n      add\n      swap2\n      swap1\n      0x00\n      mstore\n      keccak256(0x00, 0x20)\n      swap1\n    tag_184:\n      dup2\n      sload\n      dup2\n      mstore\n      swap1\n      0x01\n      add\n      swap1\n      0x20\n      add\n      dup1\n      dup4\n      gt\n      tag_184\n      jumpi\n      dup3\n      swap1\n      sub\n      0x1f\n      and\n      dup3\n      add\n      swap2\n    tag_182:\n      pop\n      pop\n      pop\n      pop\n      pop\n      swap1\n      pop\n        /* \"@openzeppelin/contracts@4.9.2/token/ERC20/ERC20.sol\":2369:2471  function symbol() public view virtual override returns (string memory) {... */\n      swap1\n      jump\t// out\n        /* \"@openzeppelin/contracts@4.9.2/token/ERC20/ERC20.sol\":6575:7002  function decreaseAllowance(address spender, uint256 subtractedValue) public virtual returns (bool) {... */\n    tag_96:\n        /* \"@openzeppelin/contracts@4.9.2/token/ERC20/ERC20.sol\":6668:6672  bool */\n      0x00\n        /* \"@openzeppelin/contracts@4.9.2/token/ERC20/ERC20.sol\":6684:6697  address owner */\n      dup1\n        /* \"@openzeppelin/contracts@4.9.2/token/ERC20/ERC20.sol\":6700:6712  _msgSender() */\n      tag_186\n        /* \"@openzeppelin/contracts@4.9.2/token/ERC20/ERC20.sol\":6700:6710  _msgSender */\n      tag_119\n        /* \"@openzeppelin/contracts@4.9.2/token/ERC20/ERC20.sol\":6700:6712  _msgSender() */\n      jump\t// in\n    tag_186:\n        /* \"@openzeppelin/contracts@4.9.2/token/ERC20/ERC20.sol\":6684:6712  address owner = _msgSender() */\n      swap1\n      pop\n        /* \"@openzeppelin/contracts@4.9.2/token/ERC20/ERC20.sol\":6722:6746  uint256 currentAllowance */\n      0x00\n        /* \"@openzeppelin/contracts@4.9.2/token/ERC20/ERC20.sol\":6749:6774  allowance(owner, spender) */\n      tag_187\n        /* \"@openzeppelin/contracts@4.9.2/token/ERC20/ERC20.sol\":6759:6764  owner */\n      dup3\n        /* \"@openzeppelin/contracts@4.9.2/token/ERC20/ERC20.sol\":6766:6773  spender */\n      dup7\n        /* \"@openzeppelin/contracts@4.9.2/token/ERC20/ERC20.sol\":6749:6758  allowance */\n      tag_105\n        /* \"@openzeppelin/contracts@4.9.2/token/ERC20/ERC20.sol\":6749:6774  allowance(owner, spender) */\n      jump\t// in\n    tag_187:\n        /* \"@openzeppelin/contracts@4.9.2/token/ERC20/ERC20.sol\":6722:6774  uint256 currentAllowance = allowance(owner, spender) */\n      swap1\n      pop\n        /* \"@openzeppelin/contracts@4.9.2/token/ERC20/ERC20.sol\":6812:6827  subtractedValue */\n      dup4\n        /* \"@openzeppelin/contracts@4.9.2/token/ERC20/ERC20.sol\":6792:6808  currentAllowance */\n      dup2\n        /* \"@openzeppelin/contracts@4.9.2/token/ERC20/ERC20.sol\":6792:6827  currentAllowance >= subtractedValue */\n      lt\n      iszero\n        /* \"@openzeppelin/contracts@4.9.2/token/ERC20/ERC20.sol\":6784:6869  require(currentAllowance >= subtractedValue, \"ERC20: decreased allowance below zero\") */\n      tag_188\n      jumpi\n      mload(0x40)\n      0x08c379a000000000000000000000000000000000000000000000000000000000\n      dup2\n      mstore\n      0x04\n      add\n      tag_189\n      swap1\n      tag_190\n      jump\t// in\n    tag_189:\n      mload(0x40)\n      dup1\n      swap2\n      sub\n      swap1\n      revert\n    tag_188:\n        /* \"@openzeppelin/contracts@4.9.2/token/ERC20/ERC20.sol\":6903:6963  _approve(owner, spender, currentAllowance - subtractedValue) */\n      tag_191\n        /* \"@openzeppelin/contracts@4.9.2/token/ERC20/ERC20.sol\":6912:6917  owner */\n      dup3\n        /* \"@openzeppelin/contracts@4.9.2/token/ERC20/ERC20.sol\":6919:6926  spender */\n      dup7\n        /* \"@openzeppelin/contracts@4.9.2/token/ERC20/ERC20.sol\":6947:6962  subtractedValue */\n      dup7\n        /* \"@openzeppelin/contracts@4.9.2/token/ERC20/ERC20.sol\":6928:6944  currentAllowance */\n      dup5\n        /* \"@openzeppelin/contracts@4.9.2/token/ERC20/ERC20.sol\":6928:6962  currentAllowance - subtractedValue */\n      sub\n        /* \"@openzeppelin/contracts@4.9.2/token/ERC20/ERC20.sol\":6903:6911  _approve */\n      tag_121\n        /* \"@openzeppelin/contracts@4.9.2/token/ERC20/ERC20.sol\":6903:6963  _approve(owner, spender, currentAllowance - subtractedValue) */\n      jump\t// in\n    tag_191:\n        /* \"@openzeppelin/contracts@4.9.2/token/ERC20/ERC20.sol\":6991:6995  true */\n      0x01\n        /* \"@openzeppelin/contracts@4.9.2/token/ERC20/ERC20.sol\":6984:6995  return true */\n      swap3\n      pop\n      pop\n      pop\n        /* \"@openzeppelin/contracts@4.9.2/token/ERC20/ERC20.sol\":6575:7002  function decreaseAllowance(address spender, uint256 subtractedValue) public virtual returns (bool) {... */\n      swap3\n      swap2\n      pop\n      pop\n      jump\t// out\n        /* \"@openzeppelin/contracts@4.9.2/token/ERC20/ERC20.sol\":3740:3929  function transfer(address to, uint256 amount) public virtual override returns (bool) {... */\n    tag_100:\n        /* \"@openzeppelin/contracts@4.9.2/token/ERC20/ERC20.sol\":3819:3823  bool */\n      0x00\n        /* \"@openzeppelin/contracts@4.9.2/token/ERC20/ERC20.sol\":3835:3848  address owner */\n      dup1\n        /* \"@openzeppelin/contracts@4.9.2/token/ERC20/ERC20.sol\":3851:3863  _msgSender() */\n      tag_193\n        /* \"@openzeppelin/contracts@4.9.2/token/ERC20/ERC20.sol\":3851:3861  _msgSender */\n      tag_119\n        /* \"@openzeppelin/contracts@4.9.2/token/ERC20/ERC20.sol\":3851:3863  _msgSender() */\n      jump\t// in\n    tag_193:\n        /* \"@openzeppelin/contracts@4.9.2/token/ERC20/ERC20.sol\":3835:3863  address owner = _msgSender() */\n      swap1\n      pop\n        /* \"@openzeppelin/contracts@4.9.2/token/ERC20/ERC20.sol\":3873:3901  _transfer(owner, to, amount) */\n      tag_194\n        /* \"@openzeppelin/contracts@4.9.2/token/ERC20/ERC20.sol\":3883:3888  owner */\n      dup2\n        /* \"@openzeppelin/contracts@4.9.2/token/ERC20/ERC20.sol\":3890:3892  to */\n      dup6\n        /* \"@openzeppelin/contracts@4.9.2/token/ERC20/ERC20.sol\":3894:3900  amount */\n      dup6\n        /* \"@openzeppelin/contracts@4.9.2/token/ERC20/ERC20.sol\":3873:3882  _transfer */\n      tag_128\n        /* \"@openzeppelin/contracts@4.9.2/token/ERC20/ERC20.sol\":3873:3901  _transfer(owner, to, amount) */\n      jump\t// in\n    tag_194:\n        /* \"@openzeppelin/contracts@4.9.2/token/ERC20/ERC20.sol\":3918:3922  true */\n      0x01\n        /* \"@openzeppelin/contracts@4.9.2/token/ERC20/ERC20.sol\":3911:3922  return true */\n      swap2\n      pop\n      pop\n        /* \"@openzeppelin/contracts@4.9.2/token/ERC20/ERC20.sol\":3740:3929  function transfer(address to, uint256 amount) public virtual override returns (bool) {... */\n      swap3\n      swap2\n      pop\n      pop\n      jump\t// out\n        /* \"@openzeppelin/contracts@4.9.2/token/ERC20/ERC20.sol\":3987:4136  function allowance(address owner, address spender) public view virtual override returns (uint256) {... */\n    tag_105:\n        /* \"@openzeppelin/contracts@4.9.2/token/ERC20/ERC20.sol\":4076:4083  uint256 */\n      0x00\n        /* \"@openzeppelin/contracts@4.9.2/token/ERC20/ERC20.sol\":4102:4113  _allowances */\n      0x01\n        /* \"@openzeppelin/contracts@4.9.2/token/ERC20/ERC20.sol\":4102:4120  _allowances[owner] */\n      0x00\n        /* \"@openzeppelin/contracts@4.9.2/token/ERC20/ERC20.sol\":4114:4119  owner */\n      dup5\n        /* \"@openzeppelin/contracts@4.9.2/token/ERC20/ERC20.sol\":4102:4120  _allowances[owner] */\n      0xffffffffffffffffffffffffffffffffffffffff\n      and\n      0xffffffffffffffffffffffffffffffffffffffff\n      and\n      dup2\n      mstore\n      0x20\n      add\n      swap1\n      dup2\n      mstore\n      0x20\n      add\n      0x00\n      keccak256\n        /* \"@openzeppelin/contracts@4.9.2/token/ERC20/ERC20.sol\":4102:4129  _allowances[owner][spender] */\n      0x00\n        /* \"@openzeppelin/contracts@4.9.2/token/ERC20/ERC20.sol\":4121:4128  spender */\n      dup4\n        /* \"@openzeppelin/contracts@4.9.2/token/ERC20/ERC20.sol\":4102:4129  _allowances[owner][spender] */\n      0xffffffffffffffffffffffffffffffffffffffff\n      and\n      0xffffffffffffffffffffffffffffffffffffffff\n      and\n      dup2\n      mstore\n      0x20\n      add\n      swap1\n      dup2\n      mstore\n      0x20\n      add\n      0x00\n      keccak256\n      sload\n        /* \"@openzeppelin/contracts@4.9.2/token/ERC20/ERC20.sol\":4095:4129  return _allowances[owner][spender] */\n      swap1\n      pop\n        /* \"@openzeppelin/contracts@4.9.2/token/ERC20/ERC20.sol\":3987:4136  function allowance(address owner, address spender) public view virtual override returns (uint256) {... */\n      swap3\n      swap2\n      pop\n      pop\n      jump\t// out\n        /* \"@openzeppelin/contracts@4.9.2/access/Ownable.sol\":2074:2272  function transferOwnership(address newOwner) public virtual onlyOwner {... */\n    tag_109:\n        /* \"@openzeppelin/contracts@4.9.2/access/Ownable.sol\":1094:1107  _checkOwner() */\n      tag_197\n        /* \"@openzeppelin/contracts@4.9.2/access/Ownable.sol\":1094:1105  _checkOwner */\n      tag_144\n        /* \"@openzeppelin/contracts@4.9.2/access/Ownable.sol\":1094:1107  _checkOwner() */\n      jump\t// in\n    tag_197:\n        /* \"@openzeppelin/contracts@4.9.2/access/Ownable.sol\":2182:2183  0 */\n      0x00\n        /* \"@openzeppelin/contracts@4.9.2/access/Ownable.sol\":2162:2184  newOwner != address(0) */\n      0xffffffffffffffffffffffffffffffffffffffff\n      and\n        /* \"@openzeppelin/contracts@4.9.2/access/Ownable.sol\":2162:2170  newOwner */\n      dup2\n        /* \"@openzeppelin/contracts@4.9.2/access/Ownable.sol\":2162:2184  newOwner != address(0) */\n      0xffffffffffffffffffffffffffffffffffffffff\n      and\n      sub\n        /* \"@openzeppelin/contracts@4.9.2/access/Ownable.sol\":2154:2227  require(newOwner != address(0), \"Ownable: new owner is the zero address\") */\n      tag_199\n      jumpi\n      mload(0x40)\n      0x08c379a000000000000000000000000000000000000000000000000000000000\n      dup2\n      mstore\n      0x04\n      add\n      tag_200\n      swap1\n      tag_201\n      jump\t// in\n    tag_200:\n      mload(0x40)\n      dup1\n      swap2\n      sub\n      swap1\n      revert\n    tag_199:\n        /* \"@openzeppelin/contracts@4.9.2/access/Ownable.sol\":2237:2265  _transferOwnership(newOwner) */\n      tag_202\n        /* \"@openzeppelin/contracts@4.9.2/access/Ownable.sol\":2256:2264  newOwner */\n      dup2\n        /* \"@openzeppelin/contracts@4.9.2/access/Ownable.sol\":2237:2255  _transferOwnership */\n      tag_168\n        /* \"@openzeppelin/contracts@4.9.2/access/Ownable.sol\":2237:2265  _transferOwnership(newOwner) */\n      jump\t// in\n    tag_202:\n        /* \"@openzeppelin/contracts@4.9.2/access/Ownable.sol\":2074:2272  function transferOwnership(address newOwner) public virtual onlyOwner {... */\n      pop\n      jump\t// out\n        /* \"@openzeppelin/contracts@4.9.2/utils/Context.sol\":640:736  function _msgSender() internal view virtual returns (address) {... */\n    tag_119:\n        /* \"@openzeppelin/contracts@4.9.2/utils/Context.sol\":693:700  address */\n      0x00\n        /* \"@openzeppelin/contracts@4.9.2/utils/Context.sol\":719:729  msg.sender */\n      caller\n        /* \"@openzeppelin/contracts@4.9.2/utils/Context.sol\":712:729  return msg.sender */\n      swap1\n      pop\n        /* \"@openzeppelin/contracts@4.9.2/utils/Context.sol\":640:736  function _msgSender() internal view virtual returns (address) {... */\n      swap1\n      jump\t// out\n        /* \"@openzeppelin/contracts@4.9.2/token/ERC20/ERC20.sol\":10457:10797  function _approve(address owner, address spender, uint256 amount) internal virtual {... */\n    tag_121:\n        /* \"@openzeppelin/contracts@4.9.2/token/ERC20/ERC20.sol\":10575:10576  0 */\n      0x00\n        /* \"@openzeppelin/contracts@4.9.2/token/ERC20/ERC20.sol\":10558:10577  owner != address(0) */\n      0xffffffffffffffffffffffffffffffffffffffff\n      and\n        /* \"@openzeppelin/contracts@4.9.2/token/ERC20/ERC20.sol\":10558:10563  owner */\n      dup4\n        /* \"@openzeppelin/contracts@4.9.2/token/ERC20/ERC20.sol\":10558:10577  owner != address(0) */\n      0xffffffffffffffffffffffffffffffffffffffff\n      and\n      sub\n        /* \"@openzeppelin/contracts@4.9.2/token/ERC20/ERC20.sol\":10550:10618  require(owner != address(0), \"ERC20: approve from the zero address\") */\n      tag_205\n      jumpi\n      mload(0x40)\n      0x08c379a000000000000000000000000000000000000000000000000000000000\n      dup2\n      mstore\n      0x04\n      add\n      tag_206\n      swap1\n      tag_207\n      jump\t// in\n    tag_206:\n      mload(0x40)\n      dup1\n      swap2\n      sub\n      swap1\n      revert\n    tag_205:\n        /* \"@openzeppelin/contracts@4.9.2/token/ERC20/ERC20.sol\":10655:10656  0 */\n      0x00\n        /* \"@openzeppelin/contracts@4.9.2/token/ERC20/ERC20.sol\":10636:10657  spender != address(0) */\n      0xffffffffffffffffffffffffffffffffffffffff\n      and\n        /* \"@openzeppelin/contracts@4.9.2/token/ERC20/ERC20.sol\":10636:10643  spender */\n      dup3\n        /* \"@openzeppelin/contracts@4.9.2/token/ERC20/ERC20.sol\":10636:10657  spender != address(0) */\n      0xffffffffffffffffffffffffffffffffffffffff\n      and\n      sub\n        /* \"@openzeppelin/contracts@4.9.2/token/ERC20/ERC20.sol\":10628:10696  require(spender != address(0), \"ERC20: approve to the zero address\") */\n      tag_208\n      jumpi\n      mload(0x40)\n      0x08c379a000000000000000000000000000000000000000000000000000000000\n      dup2\n      mstore\n      0x04\n      add\n      tag_209\n      swap1\n      tag_210\n      jump\t// in\n    tag_209:\n      mload(0x40)\n      dup1\n      swap2\n      sub\n      swap1\n      revert\n    tag_208:\n        /* \"@openzeppelin/contracts@4.9.2/token/ERC20/ERC20.sol\":10737:10743  amount */\n      dup1\n        /* \"@openzeppelin/contracts@4.9.2/token/ERC20/ERC20.sol\":10707:10718  _allowances */\n      0x01\n        /* \"@openzeppelin/contracts@4.9.2/token/ERC20/ERC20.sol\":10707:10725  _allowances[owner] */\n      0x00\n        /* \"@openzeppelin/contracts@4.9.2/token/ERC20/ERC20.sol\":10719:10724  owner */\n      dup6\n        /* \"@openzeppelin/contracts@4.9.2/token/ERC20/ERC20.sol\":10707:10725  _allowances[owner] */\n      0xffffffffffffffffffffffffffffffffffffffff\n      and\n      0xffffffffffffffffffffffffffffffffffffffff\n      and\n      dup2\n      mstore\n      0x20\n      add\n      swap1\n      dup2\n      mstore\n      0x20\n      add\n      0x00\n      keccak256\n        /* \"@openzeppelin/contracts@4.9.2/token/ERC20/ERC20.sol\":10707:10734  _allowances[owner][spender] */\n      0x00\n        /* \"@openzeppelin/contracts@4.9.2/token/ERC20/ERC20.sol\":10726:10733  spender */\n      dup5\n        /* \"@openzeppelin/contracts@4.9.2/token/ERC20/ERC20.sol\":10707:10734  _allowances[owner][spender] */\n      0xffffffffffffffffffffffffffffffffffffffff\n      and\n      0xffffffffffffffffffffffffffffffffffffffff\n      and\n      dup2\n      mstore\n      0x20\n      add\n      swap1\n      dup2\n      mstore\n      0x20\n      add\n      0x00\n      keccak256\n        /* \"@openzeppelin/contracts@4.9.2/token/ERC20/ERC20.sol\":10707:10743  _allowances[owner][spender] = amount */\n      dup2\n      swap1\n      sstore\n      pop\n        /* \"@openzeppelin/contracts@4.9.2/token/ERC20/ERC20.sol\":10774:10781  spender */\n      dup2\n        /* \"@openzeppelin/contracts@4.9.2/token/ERC20/ERC20.sol\":10758:10790  Approval(owner, spender, amount) */\n      0xffffffffffffffffffffffffffffffffffffffff\n      and\n        /* \"@openzeppelin/contracts@4.9.2/token/ERC20/ERC20.sol\":10767:10772  owner */\n      dup4\n        /* \"@openzeppelin/contracts@4.9.2/token/ERC20/ERC20.sol\":10758:10790  Approval(owner, spender, amount) */\n      0xffffffffffffffffffffffffffffffffffffffff\n      and\n      0x8c5be1e5ebec7d5bd14f71427d1e84f3dd0314c0f7b2291e5b200ac8c7c3b925\n        /* \"@openzeppelin/contracts@4.9.2/token/ERC20/ERC20.sol\":10783:10789  amount */\n      dup4\n        /* \"@openzeppelin/contracts@4.9.2/token/ERC20/ERC20.sol\":10758:10790  Approval(owner, spender, amount) */\n      mload(0x40)\n      tag_211\n      swap2\n      swap1\n      tag_41\n      jump\t// in\n    tag_211:\n      mload(0x40)\n      dup1\n      swap2\n      sub\n      swap1\n      log3\n        /* \"@openzeppelin/contracts@4.9.2/token/ERC20/ERC20.sol\":10457:10797  function _approve(address owner, address spender, uint256 amount) internal virtual {... */\n      pop\n      pop\n      pop\n      jump\t// out\n        /* \"@openzeppelin/contracts@4.9.2/token/ERC20/ERC20.sol\":11078:11489  function _spendAllowance(address owner, address spender, uint256 amount) internal virtual {... */\n    tag_126:\n        /* \"@openzeppelin/contracts@4.9.2/token/ERC20/ERC20.sol\":11178:11202  uint256 currentAllowance */\n      0x00\n        /* \"@openzeppelin/contracts@4.9.2/token/ERC20/ERC20.sol\":11205:11230  allowance(owner, spender) */\n      tag_213\n        /* \"@openzeppelin/contracts@4.9.2/token/ERC20/ERC20.sol\":11215:11220  owner */\n      dup5\n        /* \"@openzeppelin/contracts@4.9.2/token/ERC20/ERC20.sol\":11222:11229  spender */\n      dup5\n        /* \"@openzeppelin/contracts@4.9.2/token/ERC20/ERC20.sol\":11205:11214  allowance */\n      tag_105\n        /* \"@openzeppelin/contracts@4.9.2/token/ERC20/ERC20.sol\":11205:11230  allowance(owner, spender) */\n      jump\t// in\n    tag_213:\n        /* \"@openzeppelin/contracts@4.9.2/token/ERC20/ERC20.sol\":11178:11230  uint256 currentAllowance = allowance(owner, spender) */\n      swap1\n      pop\n        /* \"@openzeppelin/contracts@4.9.2/token/ERC20/ERC20.sol\":11264:11281  type(uint256).max */\n      0xffffffffffffffffffffffffffffffffffffffffffffffffffffffffffffffff\n        /* \"@openzeppelin/contracts@4.9.2/token/ERC20/ERC20.sol\":11244:11260  currentAllowance */\n      dup2\n        /* \"@openzeppelin/contracts@4.9.2/token/ERC20/ERC20.sol\":11244:11281  currentAllowance != type(uint256).max */\n      eq\n        /* \"@openzeppelin/contracts@4.9.2/token/ERC20/ERC20.sol\":11240:11483  if (currentAllowance != type(uint256).max) {... */\n      tag_214\n      jumpi\n        /* \"@openzeppelin/contracts@4.9.2/token/ERC20/ERC20.sol\":11325:11331  amount */\n      dup2\n        /* \"@openzeppelin/contracts@4.9.2/token/ERC20/ERC20.sol\":11305:11321  currentAllowance */\n      dup2\n        /* \"@openzeppelin/contracts@4.9.2/token/ERC20/ERC20.sol\":11305:11331  currentAllowance >= amount */\n      lt\n      iszero\n        /* \"@openzeppelin/contracts@4.9.2/token/ERC20/ERC20.sol\":11297:11365  require(currentAllowance >= amount, \"ERC20: insufficient allowance\") */\n      tag_215\n      jumpi\n      mload(0x40)\n      0x08c379a000000000000000000000000000000000000000000000000000000000\n      dup2\n      mstore\n      0x04\n      add\n      tag_216\n      swap1\n      tag_217\n      jump\t// in\n    tag_216:\n      mload(0x40)\n      dup1\n      swap2\n      sub\n      swap1\n      revert\n    tag_215:\n        /* \"@openzeppelin/contracts@4.9.2/token/ERC20/ERC20.sol\":11407:11458  _approve(owner, spender, currentAllowance - amount) */\n      tag_218\n        /* \"@openzeppelin/contracts@4.9.2/token/ERC20/ERC20.sol\":11416:11421  owner */\n      dup5\n        /* \"@openzeppelin/contracts@4.9.2/token/ERC20/ERC20.sol\":11423:11430  spender */\n      dup5\n        /* \"@openzeppelin/contracts@4.9.2/token/ERC20/ERC20.sol\":11451:11457  amount */\n      dup5\n        /* \"@openzeppelin/contracts@4.9.2/token/ERC20/ERC20.sol\":11432:11448  currentAllowance */\n      dup5\n        /* \"@openzeppelin/contracts@4.9.2/token/ERC20/ERC20.sol\":11432:11457  currentAllowance - amount */\n      sub\n        /* \"@openzeppelin/contracts@4.9.2/token/ERC20/ERC20.sol\":11407:11415  _approve */\n      tag_121\n        /* \"@openzeppelin/contracts@4.9.2/token/ERC20/ERC20.sol\":11407:11458  _approve(owner, spender, currentAllowance - amount) */\n      jump\t// in\n    tag_218:\n        /* \"@openzeppelin/contracts@4.9.2/token/ERC20/ERC20.sol\":11240:11483  if (currentAllowance != type(uint256).max) {... */\n    tag_214:\n        /* \"@openzeppelin/contracts@4.9.2/token/ERC20/ERC20.sol\":11168:11489  {... */\n      pop\n        /* \"@openzeppelin/contracts@4.9.2/token/ERC20/ERC20.sol\":11078:11489  function _spendAllowance(address owner, address spender, uint256 amount) internal virtual {... */\n      pop\n      pop\n      pop\n      jump\t// out\n        /* \"@openzeppelin/contracts@4.9.2/token/ERC20/ERC20.sol\":7456:8244  function _transfer(address from, address to, uint256 amount) internal virtual {... */\n    tag_128:\n        /* \"@openzeppelin/contracts@4.9.2/token/ERC20/ERC20.sol\":7568:7569  0 */\n      0x00\n        /* \"@openzeppelin/contracts@4.9.2/token/ERC20/ERC20.sol\":7552:7570  from != address(0) */\n      0xffffffffffffffffffffffffffffffffffffffff\n      and\n        /* \"@openzeppelin/contracts@4.9.2/token/ERC20/ERC20.sol\":7552:7556  from */\n      dup4\n        /* \"@openzeppelin/contracts@4.9.2/token/ERC20/ERC20.sol\":7552:7570  from != address(0) */\n      0xffffffffffffffffffffffffffffffffffffffff\n      and\n      sub\n        /* \"@openzeppelin/contracts@4.9.2/token/ERC20/ERC20.sol\":7544:7612  require(from != address(0), \"ERC20: transfer from the zero address\") */\n      tag_220\n      jumpi\n      mload(0x40)\n      0x08c379a000000000000000000000000000000000000000000000000000000000\n      dup2\n      mstore\n      0x04\n      add\n      tag_221\n      swap1\n      tag_222\n      jump\t// in\n    tag_221:\n      mload(0x40)\n      dup1\n      swap2\n      sub\n      swap1\n      revert\n    tag_220:\n        /* \"@openzeppelin/contracts@4.9.2/token/ERC20/ERC20.sol\":7644:7645  0 */\n      0x00\n        /* \"@openzeppelin/contracts@4.9.2/token/ERC20/ERC20.sol\":7630:7646  to != address(0) */\n      0xffffffffffffffffffffffffffffffffffffffff\n      and\n        /* \"@openzeppelin/contracts@4.9.2/token/ERC20/ERC20.sol\":7630:7632  to */\n      dup3\n        /* \"@openzeppelin/contracts@4.9.2/token/ERC20/ERC20.sol\":7630:7646  to != address(0) */\n      0xffffffffffffffffffffffffffffffffffffffff\n      and\n      sub\n        /* \"@openzeppelin/contracts@4.9.2/token/ERC20/ERC20.sol\":7622:7686  require(to != address(0), \"ERC20: transfer to the zero address\") */\n      tag_223\n      jumpi\n      mload(0x40)\n      0x08c379a000000000000000000000000000000000000000000000000000000000\n      dup2\n      mstore\n      0x04\n      add\n      tag_224\n      swap1\n      tag_225\n      jump\t// in\n    tag_224:\n      mload(0x40)\n      dup1\n      swap2\n      sub\n      swap1\n      revert\n    tag_223:\n        /* \"@openzeppelin/contracts@4.9.2/token/ERC20/ERC20.sol\":7697:7735  _beforeTokenTransfer(from, to, amount) */\n      tag_226\n        /* \"@openzeppelin/contracts@4.9.2/token/ERC20/ERC20.sol\":7718:7722  from */\n      dup4\n        /* \"@openzeppelin/contracts@4.9.2/token/ERC20/ERC20.sol\":7724:7726  to */\n      dup4\n        /* \"@openzeppelin/contracts@4.9.2/token/ERC20/ERC20.sol\":7728:7734  amount */\n      dup4\n        /* \"@openzeppelin/contracts@4.9.2/token/ERC20/ERC20.sol\":7697:7717  _beforeTokenTransfer */\n      tag_227\n        /* \"@openzeppelin/contracts@4.9.2/token/ERC20/ERC20.sol\":7697:7735  _beforeTokenTransfer(from, to, amount) */\n      jump\t// in\n    tag_226:\n        /* \"@openzeppelin/contracts@4.9.2/token/ERC20/ERC20.sol\":7746:7765  uint256 fromBalance */\n      0x00\n        /* \"@openzeppelin/contracts@4.9.2/token/ERC20/ERC20.sol\":7768:7777  _balances */\n      dup1\n        /* \"@openzeppelin/contracts@4.9.2/token/ERC20/ERC20.sol\":7768:7783  _balances[from] */\n      0x00\n        /* \"@openzeppelin/contracts@4.9.2/token/ERC20/ERC20.sol\":7778:7782  from */\n      dup6\n        /* \"@openzeppelin/contracts@4.9.2/token/ERC20/ERC20.sol\":7768:7783  _balances[from] */\n      0xffffffffffffffffffffffffffffffffffffffff\n      and\n      0xffffffffffffffffffffffffffffffffffffffff\n      and\n      dup2\n      mstore\n      0x20\n      add\n      swap1\n      dup2\n      mstore\n      0x20\n      add\n      0x00\n      keccak256\n      sload\n        /* \"@openzeppelin/contracts@4.9.2/token/ERC20/ERC20.sol\":7746:7783  uint256 fromBalance = _balances[from] */\n      swap1\n      pop\n        /* \"@openzeppelin/contracts@4.9.2/token/ERC20/ERC20.sol\":7816:7822  amount */\n      dup2\n        /* \"@openzeppelin/contracts@4.9.2/token/ERC20/ERC20.sol\":7801:7812  fromBalance */\n      dup2\n        /* \"@openzeppelin/contracts@4.9.2/token/ERC20/ERC20.sol\":7801:7822  fromBalance >= amount */\n      lt\n      iszero\n        /* \"@openzeppelin/contracts@4.9.2/token/ERC20/ERC20.sol\":7793:7865  require(fromBalance >= amount, \"ERC20: transfer amount exceeds balance\") */\n      tag_228\n      jumpi\n      mload(0x40)\n      0x08c379a000000000000000000000000000000000000000000000000000000000\n      dup2\n      mstore\n      0x04\n      add\n      tag_229\n      swap1\n      tag_230\n      jump\t// in\n    tag_229:\n      mload(0x40)\n      dup1\n      swap2\n      sub\n      swap1\n      revert\n    tag_228:\n        /* \"@openzeppelin/contracts@4.9.2/token/ERC20/ERC20.sol\":7931:7937  amount */\n      dup2\n        /* \"@openzeppelin/contracts@4.9.2/token/ERC20/ERC20.sol\":7917:7928  fromBalance */\n      dup2\n        /* \"@openzeppelin/contracts@4.9.2/token/ERC20/ERC20.sol\":7917:7937  fromBalance - amount */\n      sub\n        /* \"@openzeppelin/contracts@4.9.2/token/ERC20/ERC20.sol\":7899:7908  _balances */\n      0x00\n        /* \"@openzeppelin/contracts@4.9.2/token/ERC20/ERC20.sol\":7899:7914  _balances[from] */\n      dup1\n        /* \"@openzeppelin/contracts@4.9.2/token/ERC20/ERC20.sol\":7909:7913  from */\n      dup7\n        /* \"@openzeppelin/contracts@4.9.2/token/ERC20/ERC20.sol\":7899:7914  _balances[from] */\n      0xffffffffffffffffffffffffffffffffffffffff\n      and\n      0xffffffffffffffffffffffffffffffffffffffff\n      and\n      dup2\n      mstore\n      0x20\n      add\n      swap1\n      dup2\n      mstore\n      0x20\n      add\n      0x00\n      keccak256\n        /* \"@openzeppelin/contracts@4.9.2/token/ERC20/ERC20.sol\":7899:7937  _balances[from] = fromBalance - amount */\n      dup2\n      swap1\n      sstore\n      pop\n        /* \"@openzeppelin/contracts@4.9.2/token/ERC20/ERC20.sol\":8131:8137  amount */\n      dup2\n        /* \"@openzeppelin/contracts@4.9.2/token/ERC20/ERC20.sol\":8114:8123  _balances */\n      0x00\n        /* \"@openzeppelin/contracts@4.9.2/token/ERC20/ERC20.sol\":8114:8127  _balances[to] */\n      dup1\n        /* \"@openzeppelin/contracts@4.9.2/token/ERC20/ERC20.sol\":8124:8126  to */\n      dup6\n        /* \"@openzeppelin/contracts@4.9.2/token/ERC20/ERC20.sol\":8114:8127  _balances[to] */\n      0xffffffffffffffffffffffffffffffffffffffff\n      and\n      0xffffffffffffffffffffffffffffffffffffffff\n      and\n      dup2\n      mstore\n      0x20\n      add\n      swap1\n      dup2\n      mstore\n      0x20\n      add\n      0x00\n      keccak256\n      0x00\n        /* \"@openzeppelin/contracts@4.9.2/token/ERC20/ERC20.sol\":8114:8137  _balances[to] += amount */\n      dup3\n      dup3\n      sload\n      add\n      swap3\n      pop\n      pop\n      dup2\n      swap1\n      sstore\n      pop\n        /* \"@openzeppelin/contracts@4.9.2/token/ERC20/ERC20.sol\":8178:8180  to */\n      dup3\n        /* \"@openzeppelin/contracts@4.9.2/token/ERC20/ERC20.sol\":8163:8189  Transfer(from, to, amount) */\n      0xffffffffffffffffffffffffffffffffffffffff\n      and\n        /* \"@openzeppelin/contracts@4.9.2/token/ERC20/ERC20.sol\":8172:8176  from */\n      dup5\n        /* \"@openzeppelin/contracts@4.9.2/token/ERC20/ERC20.sol\":8163:8189  Transfer(from, to, amount) */\n      0xffffffffffffffffffffffffffffffffffffffff\n      and\n      0xddf252ad1be2c89b69c2b068fc378daa952ba7f163c4a11628f55a4df523b3ef\n        /* \"@openzeppelin/contracts@4.9.2/token/ERC20/ERC20.sol\":8182:8188  amount */\n      dup5\n        /* \"@openzeppelin/contracts@4.9.2/token/ERC20/ERC20.sol\":8163:8189  Transfer(from, to, amount) */\n      mload(0x40)\n      tag_231\n      swap2\n      swap1\n      tag_41\n      jump\t// in\n    tag_231:\n      mload(0x40)\n      dup1\n      swap2\n      sub\n      swap1\n      log3\n        /* \"@openzeppelin/contracts@4.9.2/token/ERC20/ERC20.sol\":8200:8237  _afterTokenTransfer(from, to, amount) */\n      tag_232\n        /* \"@openzeppelin/contracts@4.9.2/token/ERC20/ERC20.sol\":8220:8224  from */\n      dup5\n        /* \"@openzeppelin/contracts@4.9.2/token/ERC20/ERC20.sol\":8226:8228  to */\n      dup5\n        /* \"@openzeppelin/contracts@4.9.2/token/ERC20/ERC20.sol\":8230:8236  amount */\n      dup5\n        /* \"@openzeppelin/contracts@4.9.2/token/ERC20/ERC20.sol\":8200:8219  _afterTokenTransfer */\n      tag_233\n        /* \"@openzeppelin/contracts@4.9.2/token/ERC20/ERC20.sol\":8200:8237  _afterTokenTransfer(from, to, amount) */\n      jump\t// in\n    tag_232:\n        /* \"@openzeppelin/contracts@4.9.2/token/ERC20/ERC20.sol\":7534:8244  {... */\n      pop\n        /* \"@openzeppelin/contracts@4.9.2/token/ERC20/ERC20.sol\":7456:8244  function _transfer(address from, address to, uint256 amount) internal virtual {... */\n      pop\n      pop\n      pop\n      jump\t// out\n        /* \"@openzeppelin/contracts@4.9.2/access/Ownable.sol\":1359:1489  function _checkOwner() internal view virtual {... */\n    tag_144:\n        /* \"@openzeppelin/contracts@4.9.2/access/Ownable.sol\":1433:1445  _msgSender() */\n      tag_235\n        /* \"@openzeppelin/contracts@4.9.2/access/Ownable.sol\":1433:1443  _msgSender */\n      tag_119\n        /* \"@openzeppelin/contracts@4.9.2/access/Ownable.sol\":1433:1445  _msgSender() */\n      jump\t// in\n    tag_235:\n        /* \"@openzeppelin/contracts@4.9.2/access/Ownable.sol\":1422:1445  owner() == _msgSender() */\n      0xffffffffffffffffffffffffffffffffffffffff\n      and\n        /* \"@openzeppelin/contracts@4.9.2/access/Ownable.sol\":1422:1429  owner() */\n      tag_236\n        /* \"@openzeppelin/contracts@4.9.2/access/Ownable.sol\":1422:1427  owner */\n      tag_88\n        /* \"@openzeppelin/contracts@4.9.2/access/Ownable.sol\":1422:1429  owner() */\n      jump\t// in\n    tag_236:\n        /* \"@openzeppelin/contracts@4.9.2/access/Ownable.sol\":1422:1445  owner() == _msgSender() */\n      0xffffffffffffffffffffffffffffffffffffffff\n      and\n      eq\n        /* \"@openzeppelin/contracts@4.9.2/access/Ownable.sol\":1414:1482  require(owner() == _msgSender(), \"Ownable: caller is not the owner\") */\n      tag_237\n      jumpi\n      mload(0x40)\n      0x08c379a000000000000000000000000000000000000000000000000000000000\n      dup2\n      mstore\n      0x04\n      add\n      tag_238\n      swap1\n      tag_239\n      jump\t// in\n    tag_238:\n      mload(0x40)\n      dup1\n      swap2\n      sub\n      swap1\n      revert\n    tag_237:\n        /* \"@openzeppelin/contracts@4.9.2/access/Ownable.sol\":1359:1489  function _checkOwner() internal view virtual {... */\n      jump\t// out\n        /* \"@openzeppelin/contracts@4.9.2/security/Pausable.sol\":2433:2550  function _unpause() internal virtual whenPaused {... */\n    tag_147:\n        /* \"@openzeppelin/contracts@4.9.2/security/Pausable.sol\":1486:1502  _requirePaused() */\n      tag_241\n        /* \"@openzeppelin/contracts@4.9.2/security/Pausable.sol\":1486:1500  _requirePaused */\n      tag_242\n        /* \"@openzeppelin/contracts@4.9.2/security/Pausable.sol\":1486:1502  _requirePaused() */\n      jump\t// in\n    tag_241:\n        /* \"@openzeppelin/contracts@4.9.2/security/Pausable.sol\":2501:2506  false */\n      0x00\n        /* \"@openzeppelin/contracts@4.9.2/security/Pausable.sol\":2491:2498  _paused */\n      0x05\n      0x00\n        /* \"@openzeppelin/contracts@4.9.2/security/Pausable.sol\":2491:2506  _paused = false */\n      0x0100\n      exp\n      dup2\n      sload\n      dup2\n      0xff\n      mul\n      not\n      and\n      swap1\n      dup4\n      iszero\n      iszero\n      mul\n      or\n      swap1\n      sstore\n      pop\n        /* \"@openzeppelin/contracts@4.9.2/security/Pausable.sol\":2521:2543  Unpaused(_msgSender()) */\n      0x5db9ee0a495bf2e6ff9c91a7834c1ba4fdd244a5e8aa4e537bd38aeae4b073aa\n        /* \"@openzeppelin/contracts@4.9.2/security/Pausable.sol\":2530:2542  _msgSender() */\n      tag_244\n        /* \"@openzeppelin/contracts@4.9.2/security/Pausable.sol\":2530:2540  _msgSender */\n      tag_119\n        /* \"@openzeppelin/contracts@4.9.2/security/Pausable.sol\":2530:2542  _msgSender() */\n      jump\t// in\n    tag_244:\n        /* \"@openzeppelin/contracts@4.9.2/security/Pausable.sol\":2521:2543  Unpaused(_msgSender()) */\n      mload(0x40)\n      tag_245\n      swap2\n      swap1\n      tag_90\n      jump\t// in\n    tag_245:\n      mload(0x40)\n      dup1\n      swap2\n      sub\n      swap1\n      log1\n        /* \"@openzeppelin/contracts@4.9.2/security/Pausable.sol\":2433:2550  function _unpause() internal virtual whenPaused {... */\n      jump\t// out\n        /* \"@openzeppelin/contracts@4.9.2/token/ERC20/ERC20.sol\":8520:9055  function _mint(address account, uint256 amount) internal virtual {... */\n    tag_152:\n        /* \"@openzeppelin/contracts@4.9.2/token/ERC20/ERC20.sol\":8622:8623  0 */\n      0x00\n        /* \"@openzeppelin/contracts@4.9.2/token/ERC20/ERC20.sol\":8603:8624  account != address(0) */\n      0xffffffffffffffffffffffffffffffffffffffff\n      and\n        /* \"@openzeppelin/contracts@4.9.2/token/ERC20/ERC20.sol\":8603:8610  account */\n      dup3\n        /* \"@openzeppelin/contracts@4.9.2/token/ERC20/ERC20.sol\":8603:8624  account != address(0) */\n      0xffffffffffffffffffffffffffffffffffffffff\n      and\n      sub\n        /* \"@openzeppelin/contracts@4.9.2/token/ERC20/ERC20.sol\":8595:8660  require(account != address(0), \"ERC20: mint to the zero address\") */\n      tag_247\n      jumpi\n      mload(0x40)\n      0x08c379a000000000000000000000000000000000000000000000000000000000\n      dup2\n      mstore\n      0x04\n      add\n      tag_248\n      swap1\n      tag_249\n      jump\t// in\n    tag_248:\n      mload(0x40)\n      dup1\n      swap2\n      sub\n      swap1\n      revert\n    tag_247:\n        /* \"@openzeppelin/contracts@4.9.2/token/ERC20/ERC20.sol\":8671:8720  _beforeTokenTransfer(address(0), account, amount) */\n      tag_250\n        /* \"@openzeppelin/contracts@4.9.2/token/ERC20/ERC20.sol\":8700:8701  0 */\n      0x00\n        /* \"@openzeppelin/contracts@4.9.2/token/ERC20/ERC20.sol\":8704:8711  account */\n      dup4\n        /* \"@openzeppelin/contracts@4.9.2/token/ERC20/ERC20.sol\":8713:8719  amount */\n      dup4\n        /* \"@openzeppelin/contracts@4.9.2/token/ERC20/ERC20.sol\":8671:8691  _beforeTokenTransfer */\n      tag_227\n        /* \"@openzeppelin/contracts@4.9.2/token/ERC20/ERC20.sol\":8671:8720  _beforeTokenTransfer(address(0), account, amount) */\n      jump\t// in\n    tag_250:\n        /* \"@openzeppelin/contracts@4.9.2/token/ERC20/ERC20.sol\":8747:8753  amount */\n      dup1\n        /* \"@openzeppelin/contracts@4.9.2/token/ERC20/ERC20.sol\":8731:8743  _totalSupply */\n      0x02\n      0x00\n        /* \"@openzeppelin/contracts@4.9.2/token/ERC20/ERC20.sol\":8731:8753  _totalSupply += amount */\n      dup3\n      dup3\n      sload\n      tag_251\n      swap2\n      swap1\n      tag_141\n      jump\t// in\n    tag_251:\n      swap3\n      pop\n      pop\n      dup2\n      swap1\n      sstore\n      pop\n        /* \"@openzeppelin/contracts@4.9.2/token/ERC20/ERC20.sol\":8921:8927  amount */\n      dup1\n        /* \"@openzeppelin/contracts@4.9.2/token/ERC20/ERC20.sol\":8899:8908  _balances */\n      0x00\n        /* \"@openzeppelin/contracts@4.9.2/token/ERC20/ERC20.sol\":8899:8917  _balances[account] */\n      dup1\n        /* \"@openzeppelin/contracts@4.9.2/token/ERC20/ERC20.sol\":8909:8916  account */\n      dup5\n        /* \"@openzeppelin/contracts@4.9.2/token/ERC20/ERC20.sol\":8899:8917  _balances[account] */\n      0xffffffffffffffffffffffffffffffffffffffff\n      and\n      0xffffffffffffffffffffffffffffffffffffffff\n      and\n      dup2\n      mstore\n      0x20\n      add\n      swap1\n      dup2\n      mstore\n      0x20\n      add\n      0x00\n      keccak256\n      0x00\n        /* \"@openzeppelin/contracts@4.9.2/token/ERC20/ERC20.sol\":8899:8927  _balances[account] += amount */\n      dup3\n      dup3\n      sload\n      add\n      swap3\n      pop\n      pop\n      dup2\n      swap1\n      sstore\n      pop\n        /* \"@openzeppelin/contracts@4.9.2/token/ERC20/ERC20.sol\":8973:8980  account */\n      dup2\n        /* \"@openzeppelin/contracts@4.9.2/token/ERC20/ERC20.sol\":8952:8989  Transfer(address(0), account, amount) */\n      0xffffffffffffffffffffffffffffffffffffffff\n      and\n        /* \"@openzeppelin/contracts@4.9.2/token/ERC20/ERC20.sol\":8969:8970  0 */\n      0x00\n        /* \"@openzeppelin/contracts@4.9.2/token/ERC20/ERC20.sol\":8952:8989  Transfer(address(0), account, amount) */\n      0xffffffffffffffffffffffffffffffffffffffff\n      and\n      0xddf252ad1be2c89b69c2b068fc378daa952ba7f163c4a11628f55a4df523b3ef\n        /* \"@openzeppelin/contracts@4.9.2/token/ERC20/ERC20.sol\":8982:8988  amount */\n      dup4\n        /* \"@openzeppelin/contracts@4.9.2/token/ERC20/ERC20.sol\":8952:8989  Transfer(address(0), account, amount) */\n      mload(0x40)\n      tag_252\n      swap2\n      swap1\n      tag_41\n      jump\t// in\n    tag_252:\n      mload(0x40)\n      dup1\n      swap2\n      sub\n      swap1\n      log3\n        /* \"@openzeppelin/contracts@4.9.2/token/ERC20/ERC20.sol\":9000:9048  _afterTokenTransfer(address(0), account, amount) */\n      tag_253\n        /* \"@openzeppelin/contracts@4.9.2/token/ERC20/ERC20.sol\":9028:9029  0 */\n      0x00\n        /* \"@openzeppelin/contracts@4.9.2/token/ERC20/ERC20.sol\":9032:9039  account */\n      dup4\n        /* \"@openzeppelin/contracts@4.9.2/token/ERC20/ERC20.sol\":9041:9047  amount */\n      dup4\n        /* \"@openzeppelin/contracts@4.9.2/token/ERC20/ERC20.sol\":9000:9019  _afterTokenTransfer */\n      tag_233\n        /* \"@openzeppelin/contracts@4.9.2/token/ERC20/ERC20.sol\":9000:9048  _afterTokenTransfer(address(0), account, amount) */\n      jump\t// in\n    tag_253:\n        /* \"@openzeppelin/contracts@4.9.2/token/ERC20/ERC20.sol\":8520:9055  function _mint(address account, uint256 amount) internal virtual {... */\n      pop\n      pop\n      jump\t// out\n        /* \"@openzeppelin/contracts@4.9.2/token/ERC20/ERC20.sol\":9375:10034  function _burn(address account, uint256 amount) internal virtual {... */\n    tag_156:\n        /* \"@openzeppelin/contracts@4.9.2/token/ERC20/ERC20.sol\":9477:9478  0 */\n      0x00\n        /* \"@openzeppelin/contracts@4.9.2/token/ERC20/ERC20.sol\":9458:9479  account != address(0) */\n      0xffffffffffffffffffffffffffffffffffffffff\n      and\n        /* \"@openzeppelin/contracts@4.9.2/token/ERC20/ERC20.sol\":9458:9465  account */\n      dup3\n        /* \"@openzeppelin/contracts@4.9.2/token/ERC20/ERC20.sol\":9458:9479  account != address(0) */\n      0xffffffffffffffffffffffffffffffffffffffff\n      and\n      sub\n        /* \"@openzeppelin/contracts@4.9.2/token/ERC20/ERC20.sol\":9450:9517  require(account != address(0), \"ERC20: burn from the zero address\") */\n      tag_255\n      jumpi\n      mload(0x40)\n      0x08c379a000000000000000000000000000000000000000000000000000000000\n      dup2\n      mstore\n      0x04\n      add\n      tag_256\n      swap1\n      tag_257\n      jump\t// in\n    tag_256:\n      mload(0x40)\n      dup1\n      swap2\n      sub\n      swap1\n      revert\n    tag_255:\n        /* \"@openzeppelin/contracts@4.9.2/token/ERC20/ERC20.sol\":9528:9577  _beforeTokenTransfer(account, address(0), amount) */\n      tag_258\n        /* \"@openzeppelin/contracts@4.9.2/token/ERC20/ERC20.sol\":9549:9556  account */\n      dup3\n        /* \"@openzeppelin/contracts@4.9.2/token/ERC20/ERC20.sol\":9566:9567  0 */\n      0x00\n        /* \"@openzeppelin/contracts@4.9.2/token/ERC20/ERC20.sol\":9570:9576  amount */\n      dup4\n        /* \"@openzeppelin/contracts@4.9.2/token/ERC20/ERC20.sol\":9528:9548  _beforeTokenTransfer */\n      tag_227\n        /* \"@openzeppelin/contracts@4.9.2/token/ERC20/ERC20.sol\":9528:9577  _beforeTokenTransfer(account, address(0), amount) */\n      jump\t// in\n    tag_258:\n        /* \"@openzeppelin/contracts@4.9.2/token/ERC20/ERC20.sol\":9588:9610  uint256 accountBalance */\n      0x00\n        /* \"@openzeppelin/contracts@4.9.2/token/ERC20/ERC20.sol\":9613:9622  _balances */\n      dup1\n        /* \"@openzeppelin/contracts@4.9.2/token/ERC20/ERC20.sol\":9613:9631  _balances[account] */\n      0x00\n        /* \"@openzeppelin/contracts@4.9.2/token/ERC20/ERC20.sol\":9623:9630  account */\n      dup5\n        /* \"@openzeppelin/contracts@4.9.2/token/ERC20/ERC20.sol\":9613:9631  _balances[account] */\n      0xffffffffffffffffffffffffffffffffffffffff\n      and\n      0xffffffffffffffffffffffffffffffffffffffff\n      and\n      dup2\n      mstore\n      0x20\n      add\n      swap1\n      dup2\n      mstore\n      0x20\n      add\n      0x00\n      keccak256\n      sload\n        /* \"@openzeppelin/contracts@4.9.2/token/ERC20/ERC20.sol\":9588:9631  uint256 accountBalance = _balances[account] */\n      swap1\n      pop\n        /* \"@openzeppelin/contracts@4.9.2/token/ERC20/ERC20.sol\":9667:9673  amount */\n      dup2\n        /* \"@openzeppelin/contracts@4.9.2/token/ERC20/ERC20.sol\":9649:9663  accountBalance */\n      dup2\n        /* \"@openzeppelin/contracts@4.9.2/token/ERC20/ERC20.sol\":9649:9673  accountBalance >= amount */\n      lt\n      iszero\n        /* \"@openzeppelin/contracts@4.9.2/token/ERC20/ERC20.sol\":9641:9712  require(accountBalance >= amount, \"ERC20: burn amount exceeds balance\") */\n      tag_259\n      jumpi\n      mload(0x40)\n      0x08c379a000000000000000000000000000000000000000000000000000000000\n      dup2\n      mstore\n      0x04\n      add\n      tag_260\n      swap1\n      tag_261\n      jump\t// in\n    tag_260:\n      mload(0x40)\n      dup1\n      swap2\n      sub\n      swap1\n      revert\n    tag_259:\n        /* \"@openzeppelin/contracts@4.9.2/token/ERC20/ERC20.sol\":9784:9790  amount */\n      dup2\n        /* \"@openzeppelin/contracts@4.9.2/token/ERC20/ERC20.sol\":9767:9781  accountBalance */\n      dup2\n        /* \"@openzeppelin/contracts@4.9.2/token/ERC20/ERC20.sol\":9767:9790  accountBalance - amount */\n      sub\n        /* \"@openzeppelin/contracts@4.9.2/token/ERC20/ERC20.sol\":9746:9755  _balances */\n      0x00\n        /* \"@openzeppelin/contracts@4.9.2/token/ERC20/ERC20.sol\":9746:9764  _balances[account] */\n      dup1\n        /* \"@openzeppelin/contracts@4.9.2/token/ERC20/ERC20.sol\":9756:9763  account */\n      dup6\n        /* \"@openzeppelin/contracts@4.9.2/token/ERC20/ERC20.sol\":9746:9764  _balances[account] */\n      0xffffffffffffffffffffffffffffffffffffffff\n      and\n      0xffffffffffffffffffffffffffffffffffffffff\n      and\n      dup2\n      mstore\n      0x20\n      add\n      swap1\n      dup2\n      mstore\n      0x20\n      add\n      0x00\n      keccak256\n        /* \"@openzeppelin/contracts@4.9.2/token/ERC20/ERC20.sol\":9746:9790  _balances[account] = accountBalance - amount */\n      dup2\n      swap1\n      sstore\n      pop\n        /* \"@openzeppelin/contracts@4.9.2/token/ERC20/ERC20.sol\":9899:9905  amount */\n      dup2\n        /* \"@openzeppelin/contracts@4.9.2/token/ERC20/ERC20.sol\":9883:9895  _totalSupply */\n      0x02\n      0x00\n        /* \"@openzeppelin/contracts@4.9.2/token/ERC20/ERC20.sol\":9883:9905  _totalSupply -= amount */\n      dup3\n      dup3\n      sload\n      sub\n      swap3\n      pop\n      pop\n      dup2\n      swap1\n      sstore\n      pop\n        /* \"@openzeppelin/contracts@4.9.2/token/ERC20/ERC20.sol\":9957:9958  0 */\n      0x00\n        /* \"@openzeppelin/contracts@4.9.2/token/ERC20/ERC20.sol\":9931:9968  Transfer(account, address(0), amount) */\n      0xffffffffffffffffffffffffffffffffffffffff\n      and\n        /* \"@openzeppelin/contracts@4.9.2/token/ERC20/ERC20.sol\":9940:9947  account */\n      dup4\n        /* \"@openzeppelin/contracts@4.9.2/token/ERC20/ERC20.sol\":9931:9968  Transfer(account, address(0), amount) */\n      0xffffffffffffffffffffffffffffffffffffffff\n      and\n      0xddf252ad1be2c89b69c2b068fc378daa952ba7f163c4a11628f55a4df523b3ef\n        /* \"@openzeppelin/contracts@4.9.2/token/ERC20/ERC20.sol\":9961:9967  amount */\n      dup5\n        /* \"@openzeppelin/contracts@4.9.2/token/ERC20/ERC20.sol\":9931:9968  Transfer(account, address(0), amount) */\n      mload(0x40)\n      tag_262\n      swap2\n      swap1\n      tag_41\n      jump\t// in\n    tag_262:\n      mload(0x40)\n      dup1\n      swap2\n      sub\n      swap1\n      log3\n        /* \"@openzeppelin/contracts@4.9.2/token/ERC20/ERC20.sol\":9979:10027  _afterTokenTransfer(account, address(0), amount) */\n      tag_263\n        /* \"@openzeppelin/contracts@4.9.2/token/ERC20/ERC20.sol\":9999:10006  account */\n      dup4\n        /* \"@openzeppelin/contracts@4.9.2/token/ERC20/ERC20.sol\":10016:10017  0 */\n      0x00\n        /* \"@openzeppelin/contracts@4.9.2/token/ERC20/ERC20.sol\":10020:10026  amount */\n      dup5\n        /* \"@openzeppelin/contracts@4.9.2/token/ERC20/ERC20.sol\":9979:9998  _afterTokenTransfer */\n      tag_233\n        /* \"@openzeppelin/contracts@4.9.2/token/ERC20/ERC20.sol\":9979:10027  _afterTokenTransfer(account, address(0), amount) */\n      jump\t// in\n    tag_263:\n        /* \"@openzeppelin/contracts@4.9.2/token/ERC20/ERC20.sol\":9440:10034  {... */\n      pop\n        /* \"@openzeppelin/contracts@4.9.2/token/ERC20/ERC20.sol\":9375:10034  function _burn(address account, uint256 amount) internal virtual {... */\n      pop\n      pop\n      jump\t// out\n        /* \"@openzeppelin/contracts@4.9.2/access/Ownable.sol\":2426:2613  function _transferOwnership(address newOwner) internal virtual {... */\n    tag_168:\n        /* \"@openzeppelin/contracts@4.9.2/access/Ownable.sol\":2499:2515  address oldOwner */\n      0x00\n        /* \"@openzeppelin/contracts@4.9.2/access/Ownable.sol\":2518:2524  _owner */\n      0x05\n      0x01\n      swap1\n      sload\n      swap1\n      0x0100\n      exp\n      swap1\n      div\n      0xffffffffffffffffffffffffffffffffffffffff\n      and\n        /* \"@openzeppelin/contracts@4.9.2/access/Ownable.sol\":2499:2524  address oldOwner = _owner */\n      swap1\n      pop\n        /* \"@openzeppelin/contracts@4.9.2/access/Ownable.sol\":2543:2551  newOwner */\n      dup2\n        /* \"@openzeppelin/contracts@4.9.2/access/Ownable.sol\":2534:2540  _owner */\n      0x05\n      0x01\n        /* \"@openzeppelin/contracts@4.9.2/access/Ownable.sol\":2534:2551  _owner = newOwner */\n      0x0100\n      exp\n      dup2\n      sload\n      dup2\n      0xffffffffffffffffffffffffffffffffffffffff\n      mul\n      not\n      and\n      swap1\n      dup4\n      0xffffffffffffffffffffffffffffffffffffffff\n      and\n      mul\n      or\n      swap1\n      sstore\n      pop\n        /* \"@openzeppelin/contracts@4.9.2/access/Ownable.sol\":2597:2605  newOwner */\n      dup2\n        /* \"@openzeppelin/contracts@4.9.2/access/Ownable.sol\":2566:2606  OwnershipTransferred(oldOwner, newOwner) */\n      0xffffffffffffffffffffffffffffffffffffffff\n      and\n        /* \"@openzeppelin/contracts@4.9.2/access/Ownable.sol\":2587:2595  oldOwner */\n      dup2\n        /* \"@openzeppelin/contracts@4.9.2/access/Ownable.sol\":2566:2606  OwnershipTransferred(oldOwner, newOwner) */\n      0xffffffffffffffffffffffffffffffffffffffff\n      and\n      0x8be0079c531659141344cd1fd0a4f28419497f9722a3daafe3b4186f6b6457e0\n      mload(0x40)\n      mload(0x40)\n      dup1\n      swap2\n      sub\n      swap1\n      log3\n        /* \"@openzeppelin/contracts@4.9.2/access/Ownable.sol\":2489:2613  {... */\n      pop\n        /* \"@openzeppelin/contracts@4.9.2/access/Ownable.sol\":2426:2613  function _transferOwnership(address newOwner) internal virtual {... */\n      pop\n      jump\t// out\n        /* \"@openzeppelin/contracts@4.9.2/security/Pausable.sol\":2186:2301  function _pause() internal virtual whenNotPaused {... */\n    tag_177:\n        /* \"@openzeppelin/contracts@4.9.2/security/Pausable.sol\":1239:1258  _requireNotPaused() */\n      tag_266\n        /* \"@openzeppelin/contracts@4.9.2/security/Pausable.sol\":1239:1256  _requireNotPaused */\n      tag_267\n        /* \"@openzeppelin/contracts@4.9.2/security/Pausable.sol\":1239:1258  _requireNotPaused() */\n      jump\t// in\n    tag_266:\n        /* \"@openzeppelin/contracts@4.9.2/security/Pausable.sol\":2255:2259  true */\n      0x01\n        /* \"@openzeppelin/contracts@4.9.2/security/Pausable.sol\":2245:2252  _paused */\n      0x05\n      0x00\n        /* \"@openzeppelin/contracts@4.9.2/security/Pausable.sol\":2245:2259  _paused = true */\n      0x0100\n      exp\n      dup2\n      sload\n      dup2\n      0xff\n      mul\n      not\n      and\n      swap1\n      dup4\n      iszero\n      iszero\n      mul\n      or\n      swap1\n      sstore\n      pop\n        /* \"@openzeppelin/contracts@4.9.2/security/Pausable.sol\":2274:2294  Paused(_msgSender()) */\n      0x62e78cea01bee320cd4e420270b5ea74000d11b0c9f74754ebdbfc544b05a258\n        /* \"@openzeppelin/contracts@4.9.2/security/Pausable.sol\":2281:2293  _msgSender() */\n      tag_269\n        /* \"@openzeppelin/contracts@4.9.2/security/Pausable.sol\":2281:2291  _msgSender */\n      tag_119\n        /* \"@openzeppelin/contracts@4.9.2/security/Pausable.sol\":2281:2293  _msgSender() */\n      jump\t// in\n    tag_269:\n        /* \"@openzeppelin/contracts@4.9.2/security/Pausable.sol\":2274:2294  Paused(_msgSender()) */\n      mload(0x40)\n      tag_270\n      swap2\n      swap1\n      tag_90\n      jump\t// in\n    tag_270:\n      mload(0x40)\n      dup1\n      swap2\n      sub\n      swap1\n      log1\n        /* \"@openzeppelin/contracts@4.9.2/security/Pausable.sol\":2186:2301  function _pause() internal virtual whenNotPaused {... */\n      jump\t// out\n        /* \"contract-54a644c577.sol\":687:880  function _beforeTokenTransfer(address from, address to, uint256 amount)... */\n    tag_227:\n        /* \"@openzeppelin/contracts@4.9.2/security/Pausable.sol\":1239:1258  _requireNotPaused() */\n      tag_272\n        /* \"@openzeppelin/contracts@4.9.2/security/Pausable.sol\":1239:1256  _requireNotPaused */\n      tag_267\n        /* \"@openzeppelin/contracts@4.9.2/security/Pausable.sol\":1239:1258  _requireNotPaused() */\n      jump\t// in\n    tag_272:\n        /* \"contract-54a644c577.sol\":829:873  super._beforeTokenTransfer(from, to, amount) */\n      tag_274\n        /* \"contract-54a644c577.sol\":856:860  from */\n      dup4\n        /* \"contract-54a644c577.sol\":862:864  to */\n      dup4\n        /* \"contract-54a644c577.sol\":866:872  amount */\n      dup4\n        /* \"contract-54a644c577.sol\":829:855  super._beforeTokenTransfer */\n      tag_275\n        /* \"contract-54a644c577.sol\":829:873  super._beforeTokenTransfer(from, to, amount) */\n      jump\t// in\n    tag_274:\n        /* \"contract-54a644c577.sol\":687:880  function _beforeTokenTransfer(address from, address to, uint256 amount)... */\n      pop\n      pop\n      pop\n      jump\t// out\n        /* \"@openzeppelin/contracts@4.9.2/token/ERC20/ERC20.sol\":12752:12842  function _afterTokenTransfer(address from, address to, uint256 amount) internal virtual {} */\n    tag_233:\n      pop\n      pop\n      pop\n      jump\t// out\n        /* \"@openzeppelin/contracts@4.9.2/security/Pausable.sol\":1945:2051  function _requirePaused() internal view virtual {... */\n    tag_242:\n        /* \"@openzeppelin/contracts@4.9.2/security/Pausable.sol\":2011:2019  paused() */\n      tag_278\n        /* \"@openzeppelin/contracts@4.9.2/security/Pausable.sol\":2011:2017  paused */\n      tag_73\n        /* \"@openzeppelin/contracts@4.9.2/security/Pausable.sol\":2011:2019  paused() */\n      jump\t// in\n    tag_278:\n        /* \"@openzeppelin/contracts@4.9.2/security/Pausable.sol\":2003:2044  require(paused(), \"Pausable: not paused\") */\n      tag_279\n      jumpi\n      mload(0x40)\n      0x08c379a000000000000000000000000000000000000000000000000000000000\n      dup2\n      mstore\n      0x04\n      add\n      tag_280\n      swap1\n      tag_281\n      jump\t// in\n    tag_280:\n      mload(0x40)\n      dup1\n      swap2\n      sub\n      swap1\n      revert\n    tag_279:\n        /* \"@openzeppelin/contracts@4.9.2/security/Pausable.sol\":1945:2051  function _requirePaused() internal view virtual {... */\n      jump\t// out\n        /* \"@openzeppelin/contracts@4.9.2/security/Pausable.sol\":1767:1873  function _requireNotPaused() internal view virtual {... */\n    tag_267:\n        /* \"@openzeppelin/contracts@4.9.2/security/Pausable.sol\":1837:1845  paused() */\n      tag_283\n        /* \"@openzeppelin/contracts@4.9.2/security/Pausable.sol\":1837:1843  paused */\n      tag_73\n        /* \"@openzeppelin/contracts@4.9.2/security/Pausable.sol\":1837:1845  paused() */\n      jump\t// in\n    tag_283:\n        /* \"@openzeppelin/contracts@4.9.2/security/Pausable.sol\":1836:1845  !paused() */\n      iszero\n        /* \"@openzeppelin/contracts@4.9.2/security/Pausable.sol\":1828:1866  require(!paused(), \"Pausable: paused\") */\n      tag_284\n      jumpi\n      mload(0x40)\n      0x08c379a000000000000000000000000000000000000000000000000000000000\n      dup2\n      mstore\n      0x04\n      add\n      tag_285\n      swap1\n      tag_286\n      jump\t// in\n    tag_285:\n      mload(0x40)\n      dup1\n      swap2\n      sub\n      swap1\n      revert\n    tag_284:\n        /* \"@openzeppelin/contracts@4.9.2/security/Pausable.sol\":1767:1873  function _requireNotPaused() internal view virtual {... */\n      jump\t// out\n        /* \"@openzeppelin/contracts@4.9.2/token/ERC20/ERC20.sol\":12073:12164  function _beforeTokenTransfer(address from, address to, uint256 amount) internal virtual {} */\n    tag_275:\n      pop\n      pop\n      pop\n      jump\t// out\n        /* \"#utility.yul\":7:106   */\n    tag_288:\n        /* \"#utility.yul\":59:65   */\n      0x00\n        /* \"#utility.yul\":93:98   */\n      dup2\n        /* \"#utility.yul\":87:99   */\n      mload\n        /* \"#utility.yul\":77:99   */\n      swap1\n      pop\n        /* \"#utility.yul\":7:106   */\n      swap2\n      swap1\n      pop\n      jump\t// out\n        /* \"#utility.yul\":112:281   */\n    tag_289:\n        /* \"#utility.yul\":196:207   */\n      0x00\n        /* \"#utility.yul\":230:236   */\n      dup3\n        /* \"#utility.yul\":225:228   */\n      dup3\n        /* \"#utility.yul\":218:237   */\n      mstore\n        /* \"#utility.yul\":270:274   */\n      0x20\n        /* \"#utility.yul\":265:268   */\n      dup3\n        /* \"#utility.yul\":261:275   */\n      add\n        /* \"#utility.yul\":246:275   */\n      swap1\n      pop\n        /* \"#utility.yul\":112:281   */\n      swap3\n      swap2\n      pop\n      pop\n      jump\t// out\n        /* \"#utility.yul\":287:533   */\n    tag_290:\n        /* \"#utility.yul\":368:369   */\n      0x00\n        /* \"#utility.yul\":378:491   */\n    tag_345:\n        /* \"#utility.yul\":392:398   */\n      dup4\n        /* \"#utility.yul\":389:390   */\n      dup2\n        /* \"#utility.yul\":386:399   */\n      lt\n        /* \"#utility.yul\":378:491   */\n      iszero\n      tag_347\n      jumpi\n        /* \"#utility.yul\":477:478   */\n      dup1\n        /* \"#utility.yul\":472:475   */\n      dup3\n        /* \"#utility.yul\":468:479   */\n      add\n        /* \"#utility.yul\":462:480   */\n      mload\n        /* \"#utility.yul\":458:459   */\n      dup2\n        /* \"#utility.yul\":453:456   */\n      dup5\n        /* \"#utility.yul\":449:460   */\n      add\n        /* \"#utility.yul\":442:481   */\n      mstore\n        /* \"#utility.yul\":414:416   */\n      0x20\n        /* \"#utility.yul\":411:412   */\n      dup2\n        /* \"#utility.yul\":407:417   */\n      add\n        /* \"#utility.yul\":402:417   */\n      swap1\n      pop\n        /* \"#utility.yul\":378:491   */\n      jump(tag_345)\n    tag_347:\n        /* \"#utility.yul\":525:526   */\n      0x00\n        /* \"#utility.yul\":516:522   */\n      dup5\n        /* \"#utility.yul\":511:514   */\n      dup5\n        /* \"#utility.yul\":507:523   */\n      add\n        /* \"#utility.yul\":500:527   */\n      mstore\n        /* \"#utility.yul\":349:533   */\n      pop\n        /* \"#utility.yul\":287:533   */\n      pop\n      pop\n      pop\n      jump\t// out\n        /* \"#utility.yul\":539:641   */\n    tag_291:\n        /* \"#utility.yul\":580:586   */\n      0x00\n        /* \"#utility.yul\":631:633   */\n      0x1f\n        /* \"#utility.yul\":627:634   */\n      not\n        /* \"#utility.yul\":622:624   */\n      0x1f\n        /* \"#utility.yul\":615:620   */\n      dup4\n        /* \"#utility.yul\":611:625   */\n      add\n        /* \"#utility.yul\":607:635   */\n      and\n        /* \"#utility.yul\":597:635   */\n      swap1\n      pop\n        /* \"#utility.yul\":539:641   */\n      swap2\n      swap1\n      pop\n      jump\t// out\n        /* \"#utility.yul\":647:1024   */\n    tag_292:\n        /* \"#utility.yul\":735:738   */\n      0x00\n        /* \"#utility.yul\":763:802   */\n      tag_350\n        /* \"#utility.yul\":796:801   */\n      dup3\n        /* \"#utility.yul\":763:802   */\n      tag_288\n      jump\t// in\n    tag_350:\n        /* \"#utility.yul\":818:889   */\n      tag_351\n        /* \"#utility.yul\":882:888   */\n      dup2\n        /* \"#utility.yul\":877:880   */\n      dup6\n        /* \"#utility.yul\":818:889   */\n      tag_289\n      jump\t// in\n    tag_351:\n        /* \"#utility.yul\":811:889   */\n      swap4\n      pop\n        /* \"#utility.yul\":898:963   */\n      tag_352\n        /* \"#utility.yul\":956:962   */\n      dup2\n        /* \"#utility.yul\":951:954   */\n      dup6\n        /* \"#utility.yul\":944:948   */\n      0x20\n        /* \"#utility.yul\":937:942   */\n      dup7\n        /* \"#utility.yul\":933:949   */\n      add\n        /* \"#utility.yul\":898:963   */\n      tag_290\n      jump\t// in\n    tag_352:\n        /* \"#utility.yul\":988:1017   */\n      tag_353\n        /* \"#utility.yul\":1010:1016   */\n      dup2\n        /* \"#utility.yul\":988:1017   */\n      tag_291\n      jump\t// in\n    tag_353:\n        /* \"#utility.yul\":983:986   */\n      dup5\n        /* \"#utility.yul\":979:1018   */\n      add\n        /* \"#utility.yul\":972:1018   */\n      swap2\n      pop\n        /* \"#utility.yul\":739:1024   */\n      pop\n        /* \"#utility.yul\":647:1024   */\n      swap3\n      swap2\n      pop\n      pop\n      jump\t// out\n        /* \"#utility.yul\":1030:1343   */\n    tag_31:\n        /* \"#utility.yul\":1143:1147   */\n      0x00\n        /* \"#utility.yul\":1181:1183   */\n      0x20\n        /* \"#utility.yul\":1170:1179   */\n      dup3\n        /* \"#utility.yul\":1166:1184   */\n      add\n        /* \"#utility.yul\":1158:1184   */\n      swap1\n      pop\n        /* \"#utility.yul\":1230:1239   */\n      dup2\n        /* \"#utility.yul\":1224:1228   */\n      dup2\n        /* \"#utility.yul\":1220:1240   */\n      sub\n        /* \"#utility.yul\":1216:1217   */\n      0x00\n        /* \"#utility.yul\":1205:1214   */\n      dup4\n        /* \"#utility.yul\":1201:1218   */\n      add\n        /* \"#utility.yul\":1194:1241   */\n      mstore\n        /* \"#utility.yul\":1258:1336   */\n      tag_355\n        /* \"#utility.yul\":1331:1335   */\n      dup2\n        /* \"#utility.yul\":1322:1328   */\n      dup5\n        /* \"#utility.yul\":1258:1336   */\n      tag_292\n      jump\t// in\n    tag_355:\n        /* \"#utility.yul\":1250:1336   */\n      swap1\n      pop\n        /* \"#utility.yul\":1030:1343   */\n      swap3\n      swap2\n      pop\n      pop\n      jump\t// out\n        /* \"#utility.yul\":1430:1547   */\n    tag_294:\n        /* \"#utility.yul\":1539:1540   */\n      0x00\n        /* \"#utility.yul\":1536:1537   */\n      dup1\n        /* \"#utility.yul\":1529:1541   */\n      revert\n        /* \"#utility.yul\":1676:1802   */\n    tag_296:\n        /* \"#utility.yul\":1713:1720   */\n      0x00\n        /* \"#utility.yul\":1753:1795   */\n      0xffffffffffffffffffffffffffffffffffffffff\n        /* \"#utility.yul\":1746:1751   */\n      dup3\n        /* \"#utility.yul\":1742:1796   */\n      and\n        /* \"#utility.yul\":1731:1796   */\n      swap1\n      pop\n        /* \"#utility.yul\":1676:1802   */\n      swap2\n      swap1\n      pop\n      jump\t// out\n        /* \"#utility.yul\":1808:1904   */\n    tag_297:\n        /* \"#utility.yul\":1845:1852   */\n      0x00\n        /* \"#utility.yul\":1874:1898   */\n      tag_361\n        /* \"#utility.yul\":1892:1897   */\n      dup3\n        /* \"#utility.yul\":1874:1898   */\n      tag_296\n      jump\t// in\n    tag_361:\n        /* \"#utility.yul\":1863:1898   */\n      swap1\n      pop\n        /* \"#utility.yul\":1808:1904   */\n      swap2\n      swap1\n      pop\n      jump\t// out\n        /* \"#utility.yul\":1910:2032   */\n    tag_298:\n        /* \"#utility.yul\":1983:2007   */\n      tag_363\n        /* \"#utility.yul\":2001:2006   */\n      dup2\n        /* \"#utility.yul\":1983:2007   */\n      tag_297\n      jump\t// in\n    tag_363:\n        /* \"#utility.yul\":1976:1981   */\n      dup2\n        /* \"#utility.yul\":1973:2008   */\n      eq\n        /* \"#utility.yul\":1963:2026   */\n      tag_364\n      jumpi\n        /* \"#utility.yul\":2022:2023   */\n      0x00\n        /* \"#utility.yul\":2019:2020   */\n      dup1\n        /* \"#utility.yul\":2012:2024   */\n      revert\n        /* \"#utility.yul\":1963:2026   */\n    tag_364:\n        /* \"#utility.yul\":1910:2032   */\n      pop\n      jump\t// out\n        /* \"#utility.yul\":2038:2177   */\n    tag_299:\n        /* \"#utility.yul\":2084:2089   */\n      0x00\n        /* \"#utility.yul\":2122:2128   */\n      dup2\n        /* \"#utility.yul\":2109:2129   */\n      calldataload\n        /* \"#utility.yul\":2100:2129   */\n      swap1\n      pop\n        /* \"#utility.yul\":2138:2171   */\n      tag_366\n        /* \"#utility.yul\":2165:2170   */\n      dup2\n        /* \"#utility.yul\":2138:2171   */\n      tag_298\n      jump\t// in\n    tag_366:\n        /* \"#utility.yul\":2038:2177   */\n      swap3\n      swap2\n      pop\n      pop\n      jump\t// out\n        /* \"#utility.yul\":2183:2260   */\n    tag_300:\n        /* \"#utility.yul\":2220:2227   */\n      0x00\n        /* \"#utility.yul\":2249:2254   */\n      dup2\n        /* \"#utility.yul\":2238:2254   */\n      swap1\n      pop\n        /* \"#utility.yul\":2183:2260   */\n      swap2\n      swap1\n      pop\n      jump\t// out\n        /* \"#utility.yul\":2266:2388   */\n    tag_301:\n        /* \"#utility.yul\":2339:2363   */\n      tag_369\n        /* \"#utility.yul\":2357:2362   */\n      dup2\n        /* \"#utility.yul\":2339:2363   */\n      tag_300\n      jump\t// in\n    tag_369:\n        /* \"#utility.yul\":2332:2337   */\n      dup2\n        /* \"#utility.yul\":2329:2364   */\n      eq\n        /* \"#utility.yul\":2319:2382   */\n      tag_370\n      jumpi\n        /* \"#utility.yul\":2378:2379   */\n      0x00\n        /* \"#utility.yul\":2375:2376   */\n      dup1\n        /* \"#utility.yul\":2368:2380   */\n      revert\n        /* \"#utility.yul\":2319:2382   */\n    tag_370:\n        /* \"#utility.yul\":2266:2388   */\n      pop\n      jump\t// out\n        /* \"#utility.yul\":2394:2533   */\n    tag_302:\n        /* \"#utility.yul\":2440:2445   */\n      0x00\n        /* \"#utility.yul\":2478:2484   */\n      dup2\n        /* \"#utility.yul\":2465:2485   */\n      calldataload\n        /* \"#utility.yul\":2456:2485   */\n      swap1\n      pop\n        /* \"#utility.yul\":2494:2527   */\n      tag_372\n        /* \"#utility.yul\":2521:2526   */\n      dup2\n        /* \"#utility.yul\":2494:2527   */\n      tag_301\n      jump\t// in\n    tag_372:\n        /* \"#utility.yul\":2394:2533   */\n      swap3\n      swap2\n      pop\n      pop\n      jump\t// out\n        /* \"#utility.yul\":2539:3013   */\n    tag_34:\n        /* \"#utility.yul\":2607:2613   */\n      0x00\n        /* \"#utility.yul\":2615:2621   */\n      dup1\n        /* \"#utility.yul\":2664:2666   */\n      0x40\n        /* \"#utility.yul\":2652:2661   */\n      dup4\n        /* \"#utility.yul\":2643:2650   */\n      dup6\n        /* \"#utility.yul\":2639:2662   */\n      sub\n        /* \"#utility.yul\":2635:2667   */\n      slt\n        /* \"#utility.yul\":2632:2751   */\n      iszero\n      tag_374\n      jumpi\n        /* \"#utility.yul\":2670:2749   */\n      tag_375\n      tag_294\n      jump\t// in\n    tag_375:\n        /* \"#utility.yul\":2632:2751   */\n    tag_374:\n        /* \"#utility.yul\":2790:2791   */\n      0x00\n        /* \"#utility.yul\":2815:2868   */\n      tag_376\n        /* \"#utility.yul\":2860:2867   */\n      dup6\n        /* \"#utility.yul\":2851:2857   */\n      dup3\n        /* \"#utility.yul\":2840:2849   */\n      dup7\n        /* \"#utility.yul\":2836:2858   */\n      add\n        /* \"#utility.yul\":2815:2868   */\n      tag_299\n      jump\t// in\n    tag_376:\n        /* \"#utility.yul\":2805:2868   */\n      swap3\n      pop\n        /* \"#utility.yul\":2761:2878   */\n      pop\n        /* \"#utility.yul\":2917:2919   */\n      0x20\n        /* \"#utility.yul\":2943:2996   */\n      tag_377\n        /* \"#utility.yul\":2988:2995   */\n      dup6\n        /* \"#utility.yul\":2979:2985   */\n      dup3\n        /* \"#utility.yul\":2968:2977   */\n      dup7\n        /* \"#utility.yul\":2964:2986   */\n      add\n        /* \"#utility.yul\":2943:2996   */\n      tag_302\n      jump\t// in\n    tag_377:\n        /* \"#utility.yul\":2933:2996   */\n      swap2\n      pop\n        /* \"#utility.yul\":2888:3006   */\n      pop\n        /* \"#utility.yul\":2539:3013   */\n      swap3\n      pop\n      swap3\n      swap1\n      pop\n      jump\t// out\n        /* \"#utility.yul\":3019:3109   */\n    tag_303:\n        /* \"#utility.yul\":3053:3060   */\n      0x00\n        /* \"#utility.yul\":3096:3101   */\n      dup2\n        /* \"#utility.yul\":3089:3102   */\n      iszero\n        /* \"#utility.yul\":3082:3103   */\n      iszero\n        /* \"#utility.yul\":3071:3103   */\n      swap1\n      pop\n        /* \"#utility.yul\":3019:3109   */\n      swap2\n      swap1\n      pop\n      jump\t// out\n        /* \"#utility.yul\":3115:3224   */\n    tag_304:\n        /* \"#utility.yul\":3196:3217   */\n      tag_380\n        /* \"#utility.yul\":3211:3216   */\n      dup2\n        /* \"#utility.yul\":3196:3217   */\n      tag_303\n      jump\t// in\n    tag_380:\n        /* \"#utility.yul\":3191:3194   */\n      dup3\n        /* \"#utility.yul\":3184:3218   */\n      mstore\n        /* \"#utility.yul\":3115:3224   */\n      pop\n      pop\n      jump\t// out\n        /* \"#utility.yul\":3230:3440   */\n    tag_37:\n        /* \"#utility.yul\":3317:3321   */\n      0x00\n        /* \"#utility.yul\":3355:3357   */\n      0x20\n        /* \"#utility.yul\":3344:3353   */\n      dup3\n        /* \"#utility.yul\":3340:3358   */\n      add\n        /* \"#utility.yul\":3332:3358   */\n      swap1\n      pop\n        /* \"#utility.yul\":3368:3433   */\n      tag_382\n        /* \"#utility.yul\":3430:3431   */\n      0x00\n        /* \"#utility.yul\":3419:3428   */\n      dup4\n        /* \"#utility.yul\":3415:3432   */\n      add\n        /* \"#utility.yul\":3406:3412   */\n      dup5\n        /* \"#utility.yul\":3368:3433   */\n      tag_304\n      jump\t// in\n    tag_382:\n        /* \"#utility.yul\":3230:3440   */\n      swap3\n      swap2\n      pop\n      pop\n      jump\t// out\n        /* \"#utility.yul\":3446:3564   */\n    tag_305:\n        /* \"#utility.yul\":3533:3557   */\n      tag_384\n        /* \"#utility.yul\":3551:3556   */\n      dup2\n        /* \"#utility.yul\":3533:3557   */\n      tag_300\n      jump\t// in\n    tag_384:\n        /* \"#utility.yul\":3528:3531   */\n      dup3\n        /* \"#utility.yul\":3521:3558   */\n      mstore\n        /* \"#utility.yul\":3446:3564   */\n      pop\n      pop\n      jump\t// out\n        /* \"#utility.yul\":3570:3792   */\n    tag_41:\n        /* \"#utility.yul\":3663:3667   */\n      0x00\n        /* \"#utility.yul\":3701:3703   */\n      0x20\n        /* \"#utility.yul\":3690:3699   */\n      dup3\n        /* \"#utility.yul\":3686:3704   */\n      add\n        /* \"#utility.yul\":3678:3704   */\n      swap1\n      pop\n        /* \"#utility.yul\":3714:3785   */\n      tag_386\n        /* \"#utility.yul\":3782:3783   */\n      0x00\n        /* \"#utility.yul\":3771:3780   */\n      dup4\n        /* \"#utility.yul\":3767:3784   */\n      add\n        /* \"#utility.yul\":3758:3764   */\n      dup5\n        /* \"#utility.yul\":3714:3785   */\n      tag_305\n      jump\t// in\n    tag_386:\n        /* \"#utility.yul\":3570:3792   */\n      swap3\n      swap2\n      pop\n      pop\n      jump\t// out\n        /* \"#utility.yul\":3798:4417   */\n    tag_44:\n        /* \"#utility.yul\":3875:3881   */\n      0x00\n        /* \"#utility.yul\":3883:3889   */\n      dup1\n        /* \"#utility.yul\":3891:3897   */\n      0x00\n        /* \"#utility.yul\":3940:3942   */\n      0x60\n        /* \"#utility.yul\":3928:3937   */\n      dup5\n        /* \"#utility.yul\":3919:3926   */\n      dup7\n        /* \"#utility.yul\":3915:3938   */\n      sub\n        /* \"#utility.yul\":3911:3943   */\n      slt\n        /* \"#utility.yul\":3908:4027   */\n      iszero\n      tag_388\n      jumpi\n        /* \"#utility.yul\":3946:4025   */\n      tag_389\n      tag_294\n      jump\t// in\n    tag_389:\n        /* \"#utility.yul\":3908:4027   */\n    tag_388:\n        /* \"#utility.yul\":4066:4067   */\n      0x00\n        /* \"#utility.yul\":4091:4144   */\n      tag_390\n        /* \"#utility.yul\":4136:4143   */\n      dup7\n        /* \"#utility.yul\":4127:4133   */\n      dup3\n        /* \"#utility.yul\":4116:4125   */\n      dup8\n        /* \"#utility.yul\":4112:4134   */\n      add\n        /* \"#utility.yul\":4091:4144   */\n      tag_299\n      jump\t// in\n    tag_390:\n        /* \"#utility.yul\":4081:4144   */\n      swap4\n      pop\n        /* \"#utility.yul\":4037:4154   */\n      pop\n        /* \"#utility.yul\":4193:4195   */\n      0x20\n        /* \"#utility.yul\":4219:4272   */\n      tag_391\n        /* \"#utility.yul\":4264:4271   */\n      dup7\n        /* \"#utility.yul\":4255:4261   */\n      dup3\n        /* \"#utility.yul\":4244:4253   */\n      dup8\n        /* \"#utility.yul\":4240:4262   */\n      add\n        /* \"#utility.yul\":4219:4272   */\n      tag_299\n      jump\t// in\n    tag_391:\n        /* \"#utility.yul\":4209:4272   */\n      swap3\n      pop\n        /* \"#utility.yul\":4164:4282   */\n      pop\n        /* \"#utility.yul\":4321:4323   */\n      0x40\n        /* \"#utility.yul\":4347:4400   */\n      tag_392\n        /* \"#utility.yul\":4392:4399   */\n      dup7\n        /* \"#utility.yul\":4383:4389   */\n      dup3\n        /* \"#utility.yul\":4372:4381   */\n      dup8\n        /* \"#utility.yul\":4368:4390   */\n      add\n        /* \"#utility.yul\":4347:4400   */\n      tag_302\n      jump\t// in\n    tag_392:\n        /* \"#utility.yul\":4337:4400   */\n      swap2\n      pop\n        /* \"#utility.yul\":4292:4410   */\n      pop\n        /* \"#utility.yul\":3798:4417   */\n      swap3\n      pop\n      swap3\n      pop\n      swap3\n      jump\t// out\n        /* \"#utility.yul\":4423:4509   */\n    tag_306:\n        /* \"#utility.yul\":4458:4465   */\n      0x00\n        /* \"#utility.yul\":4498:4502   */\n      0xff\n        /* \"#utility.yul\":4491:4496   */\n      dup3\n        /* \"#utility.yul\":4487:4503   */\n      and\n        /* \"#utility.yul\":4476:4503   */\n      swap1\n      pop\n        /* \"#utility.yul\":4423:4509   */\n      swap2\n      swap1\n      pop\n      jump\t// out\n        /* \"#utility.yul\":4515:4627   */\n    tag_307:\n        /* \"#utility.yul\":4598:4620   */\n      tag_395\n        /* \"#utility.yul\":4614:4619   */\n      dup2\n        /* \"#utility.yul\":4598:4620   */\n      tag_306\n      jump\t// in\n    tag_395:\n        /* \"#utility.yul\":4593:4596   */\n      dup3\n        /* \"#utility.yul\":4586:4621   */\n      mstore\n        /* \"#utility.yul\":4515:4627   */\n      pop\n      pop\n      jump\t// out\n        /* \"#utility.yul\":4633:4847   */\n    tag_54:\n        /* \"#utility.yul\":4722:4726   */\n      0x00\n        /* \"#utility.yul\":4760:4762   */\n      0x20\n        /* \"#utility.yul\":4749:4758   */\n      dup3\n        /* \"#utility.yul\":4745:4763   */\n      add\n        /* \"#utility.yul\":4737:4763   */\n      swap1\n      pop\n        /* \"#utility.yul\":4773:4840   */\n      tag_397\n        /* \"#utility.yul\":4837:4838   */\n      0x00\n        /* \"#utility.yul\":4826:4835   */\n      dup4\n        /* \"#utility.yul\":4822:4839   */\n      add\n        /* \"#utility.yul\":4813:4819   */\n      dup5\n        /* \"#utility.yul\":4773:4840   */\n      tag_307\n      jump\t// in\n    tag_397:\n        /* \"#utility.yul\":4633:4847   */\n      swap3\n      swap2\n      pop\n      pop\n      jump\t// out\n        /* \"#utility.yul\":4853:5182   */\n    tag_66:\n        /* \"#utility.yul\":4912:4918   */\n      0x00\n        /* \"#utility.yul\":4961:4963   */\n      0x20\n        /* \"#utility.yul\":4949:4958   */\n      dup3\n        /* \"#utility.yul\":4940:4947   */\n      dup5\n        /* \"#utility.yul\":4936:4959   */\n      sub\n        /* \"#utility.yul\":4932:4964   */\n      slt\n        /* \"#utility.yul\":4929:5048   */\n      iszero\n      tag_399\n      jumpi\n        /* \"#utility.yul\":4967:5046   */\n      tag_400\n      tag_294\n      jump\t// in\n    tag_400:\n        /* \"#utility.yul\":4929:5048   */\n    tag_399:\n        /* \"#utility.yul\":5087:5088   */\n      0x00\n        /* \"#utility.yul\":5112:5165   */\n      tag_401\n        /* \"#utility.yul\":5157:5164   */\n      dup5\n        /* \"#utility.yul\":5148:5154   */\n      dup3\n        /* \"#utility.yul\":5137:5146   */\n      dup6\n        /* \"#utility.yul\":5133:5155   */\n      add\n        /* \"#utility.yul\":5112:5165   */\n      tag_302\n      jump\t// in\n    tag_401:\n        /* \"#utility.yul\":5102:5165   */\n      swap2\n      pop\n        /* \"#utility.yul\":5058:5175   */\n      pop\n        /* \"#utility.yul\":4853:5182   */\n      swap3\n      swap2\n      pop\n      pop\n      jump\t// out\n        /* \"#utility.yul\":5188:5517   */\n    tag_77:\n        /* \"#utility.yul\":5247:5253   */\n      0x00\n        /* \"#utility.yul\":5296:5298   */\n      0x20\n        /* \"#utility.yul\":5284:5293   */\n      dup3\n        /* \"#utility.yul\":5275:5282   */\n      dup5\n        /* \"#utility.yul\":5271:5294   */\n      sub\n        /* \"#utility.yul\":5267:5299   */\n      slt\n        /* \"#utility.yul\":5264:5383   */\n      iszero\n      tag_403\n      jumpi\n        /* \"#utility.yul\":5302:5381   */\n      tag_404\n      tag_294\n      jump\t// in\n    tag_404:\n        /* \"#utility.yul\":5264:5383   */\n    tag_403:\n        /* \"#utility.yul\":5422:5423   */\n      0x00\n        /* \"#utility.yul\":5447:5500   */\n      tag_405\n        /* \"#utility.yul\":5492:5499   */\n      dup5\n        /* \"#utility.yul\":5483:5489   */\n      dup3\n        /* \"#utility.yul\":5472:5481   */\n      dup6\n        /* \"#utility.yul\":5468:5490   */\n      add\n        /* \"#utility.yul\":5447:5500   */\n      tag_299\n      jump\t// in\n    tag_405:\n        /* \"#utility.yul\":5437:5500   */\n      swap2\n      pop\n        /* \"#utility.yul\":5393:5510   */\n      pop\n        /* \"#utility.yul\":5188:5517   */\n      swap3\n      swap2\n      pop\n      pop\n      jump\t// out\n        /* \"#utility.yul\":5523:5641   */\n    tag_308:\n        /* \"#utility.yul\":5610:5634   */\n      tag_407\n        /* \"#utility.yul\":5628:5633   */\n      dup2\n        /* \"#utility.yul\":5610:5634   */\n      tag_297\n      jump\t// in\n    tag_407:\n        /* \"#utility.yul\":5605:5608   */\n      dup3\n        /* \"#utility.yul\":5598:5635   */\n      mstore\n        /* \"#utility.yul\":5523:5641   */\n      pop\n      pop\n      jump\t// out\n        /* \"#utility.yul\":5647:5869   */\n    tag_90:\n        /* \"#utility.yul\":5740:5744   */\n      0x00\n        /* \"#utility.yul\":5778:5780   */\n      0x20\n        /* \"#utility.yul\":5767:5776   */\n      dup3\n        /* \"#utility.yul\":5763:5781   */\n      add\n        /* \"#utility.yul\":5755:5781   */\n      swap1\n      pop\n        /* \"#utility.yul\":5791:5862   */\n      tag_409\n        /* \"#utility.yul\":5859:5860   */\n      0x00\n        /* \"#utility.yul\":5848:5857   */\n      dup4\n        /* \"#utility.yul\":5844:5861   */\n      add\n        /* \"#utility.yul\":5835:5841   */\n      dup5\n        /* \"#utility.yul\":5791:5862   */\n      tag_308\n      jump\t// in\n    tag_409:\n        /* \"#utility.yul\":5647:5869   */\n      swap3\n      swap2\n      pop\n      pop\n      jump\t// out\n        /* \"#utility.yul\":5875:6349   */\n    tag_104:\n        /* \"#utility.yul\":5943:5949   */\n      0x00\n        /* \"#utility.yul\":5951:5957   */\n      dup1\n        /* \"#utility.yul\":6000:6002   */\n      0x40\n        /* \"#utility.yul\":5988:5997   */\n      dup4\n        /* \"#utility.yul\":5979:5986   */\n      dup6\n        /* \"#utility.yul\":5975:5998   */\n      sub\n        /* \"#utility.yul\":5971:6003   */\n      slt\n        /* \"#utility.yul\":5968:6087   */\n      iszero\n      tag_411\n      jumpi\n        /* \"#utility.yul\":6006:6085   */\n      tag_412\n      tag_294\n      jump\t// in\n    tag_412:\n        /* \"#utility.yul\":5968:6087   */\n    tag_411:\n        /* \"#utility.yul\":6126:6127   */\n      0x00\n        /* \"#utility.yul\":6151:6204   */\n      tag_413\n        /* \"#utility.yul\":6196:6203   */\n      dup6\n        /* \"#utility.yul\":6187:6193   */\n      dup3\n        /* \"#utility.yul\":6176:6185   */\n      dup7\n        /* \"#utility.yul\":6172:6194   */\n      add\n        /* \"#utility.yul\":6151:6204   */\n      tag_299\n      jump\t// in\n    tag_413:\n        /* \"#utility.yul\":6141:6204   */\n      swap3\n      pop\n        /* \"#utility.yul\":6097:6214   */\n      pop\n        /* \"#utility.yul\":6253:6255   */\n      0x20\n        /* \"#utility.yul\":6279:6332   */\n      tag_414\n        /* \"#utility.yul\":6324:6331   */\n      dup6\n        /* \"#utility.yul\":6315:6321   */\n      dup3\n        /* \"#utility.yul\":6304:6313   */\n      dup7\n        /* \"#utility.yul\":6300:6322   */\n      add\n        /* \"#utility.yul\":6279:6332   */\n      tag_299\n      jump\t// in\n    tag_414:\n        /* \"#utility.yul\":6269:6332   */\n      swap2\n      pop\n        /* \"#utility.yul\":6224:6342   */\n      pop\n        /* \"#utility.yul\":5875:6349   */\n      swap3\n      pop\n      swap3\n      swap1\n      pop\n      jump\t// out\n        /* \"#utility.yul\":6355:6535   */\n    tag_309:\n        /* \"#utility.yul\":6403:6480   */\n      0x4e487b7100000000000000000000000000000000000000000000000000000000\n        /* \"#utility.yul\":6400:6401   */\n      0x00\n        /* \"#utility.yul\":6393:6481   */\n      mstore\n        /* \"#utility.yul\":6500:6504   */\n      0x22\n        /* \"#utility.yul\":6497:6498   */\n      0x04\n        /* \"#utility.yul\":6490:6505   */\n      mstore\n        /* \"#utility.yul\":6524:6528   */\n      0x24\n        /* \"#utility.yul\":6521:6522   */\n      0x00\n        /* \"#utility.yul\":6514:6529   */\n      revert\n        /* \"#utility.yul\":6541:6861   */\n    tag_112:\n        /* \"#utility.yul\":6585:6591   */\n      0x00\n        /* \"#utility.yul\":6622:6623   */\n      0x02\n        /* \"#utility.yul\":6616:6620   */\n      dup3\n        /* \"#utility.yul\":6612:6624   */\n      div\n        /* \"#utility.yul\":6602:6624   */\n      swap1\n      pop\n        /* \"#utility.yul\":6669:6670   */\n      0x01\n        /* \"#utility.yul\":6663:6667   */\n      dup3\n        /* \"#utility.yul\":6659:6671   */\n      and\n        /* \"#utility.yul\":6690:6708   */\n      dup1\n        /* \"#utility.yul\":6680:6761   */\n      tag_417\n      jumpi\n        /* \"#utility.yul\":6746:6750   */\n      0x7f\n        /* \"#utility.yul\":6738:6744   */\n      dup3\n        /* \"#utility.yul\":6734:6751   */\n      and\n        /* \"#utility.yul\":6724:6751   */\n      swap2\n      pop\n        /* \"#utility.yul\":6680:6761   */\n    tag_417:\n        /* \"#utility.yul\":6808:6810   */\n      0x20\n        /* \"#utility.yul\":6800:6806   */\n      dup3\n        /* \"#utility.yul\":6797:6811   */\n      lt\n        /* \"#utility.yul\":6777:6795   */\n      dup2\n        /* \"#utility.yul\":6774:6812   */\n      sub\n        /* \"#utility.yul\":6771:6855   */\n      tag_418\n      jumpi\n        /* \"#utility.yul\":6827:6845   */\n      tag_419\n      tag_309\n      jump\t// in\n    tag_419:\n        /* \"#utility.yul\":6771:6855   */\n    tag_418:\n        /* \"#utility.yul\":6592:6861   */\n      pop\n        /* \"#utility.yul\":6541:6861   */\n      swap2\n      swap1\n      pop\n      jump\t// out\n        /* \"#utility.yul\":6867:7036   */\n    tag_310:\n        /* \"#utility.yul\":7007:7028   */\n      0x496e76616c696420746f6b656e20696e64657800000000000000000000000000\n        /* \"#utility.yul\":7003:7004   */\n      0x00\n        /* \"#utility.yul\":6995:7001   */\n      dup3\n        /* \"#utility.yul\":6991:7005   */\n      add\n        /* \"#utility.yul\":6984:7029   */\n      mstore\n        /* \"#utility.yul\":6867:7036   */\n      pop\n      jump\t// out\n        /* \"#utility.yul\":7042:7408   */\n    tag_311:\n        /* \"#utility.yul\":7184:7187   */\n      0x00\n        /* \"#utility.yul\":7205:7272   */\n      tag_422\n        /* \"#utility.yul\":7269:7271   */\n      0x13\n        /* \"#utility.yul\":7264:7267   */\n      dup4\n        /* \"#utility.yul\":7205:7272   */\n      tag_289\n      jump\t// in\n    tag_422:\n        /* \"#utility.yul\":7198:7272   */\n      swap2\n      pop\n        /* \"#utility.yul\":7281:7374   */\n      tag_423\n        /* \"#utility.yul\":7370:7373   */\n      dup3\n        /* \"#utility.yul\":7281:7374   */\n      tag_310\n      jump\t// in\n    tag_423:\n        /* \"#utility.yul\":7399:7401   */\n      0x20\n        /* \"#utility.yul\":7394:7397   */\n      dup3\n        /* \"#utility.yul\":7390:7402   */\n      add\n        /* \"#utility.yul\":7383:7402   */\n      swap1\n      pop\n        /* \"#utility.yul\":7042:7408   */\n      swap2\n      swap1\n      pop\n      jump\t// out\n        /* \"#utility.yul\":7414:7833   */\n    tag_133:\n        /* \"#utility.yul\":7580:7584   */\n      0x00\n        /* \"#utility.yul\":7618:7620   */\n      0x20\n        /* \"#utility.yul\":7607:7616   */\n      dup3\n        /* \"#utility.yul\":7603:7621   */\n      add\n        /* \"#utility.yul\":7595:7621   */\n      swap1\n      pop\n        /* \"#utility.yul\":7667:7676   */\n      dup2\n        /* \"#utility.yul\":7661:7665   */\n      dup2\n        /* \"#utility.yul\":7657:7677   */\n      sub\n        /* \"#utility.yul\":7653:7654   */\n      0x00\n        /* \"#utility.yul\":7642:7651   */\n      dup4\n        /* \"#utility.yul\":7638:7655   */\n      add\n        /* \"#utility.yul\":7631:7678   */\n      mstore\n        /* \"#utility.yul\":7695:7826   */\n      tag_425\n        /* \"#utility.yul\":7821:7825   */\n      dup2\n        /* \"#utility.yul\":7695:7826   */\n      tag_311\n      jump\t// in\n    tag_425:\n        /* \"#utility.yul\":7687:7826   */\n      swap1\n      pop\n        /* \"#utility.yul\":7414:7833   */\n      swap2\n      swap1\n      pop\n      jump\t// out\n        /* \"#utility.yul\":7839:8019   */\n    tag_312:\n        /* \"#utility.yul\":7887:7964   */\n      0x4e487b7100000000000000000000000000000000000000000000000000000000\n        /* \"#utility.yul\":7884:7885   */\n      0x00\n        /* \"#utility.yul\":7877:7965   */\n      mstore\n        /* \"#utility.yul\":7984:7988   */\n      0x11\n        /* \"#utility.yul\":7981:7982   */\n      0x04\n        /* \"#utility.yul\":7974:7989   */\n      mstore\n        /* \"#utility.yul\":8008:8012   */\n      0x24\n        /* \"#utility.yul\":8005:8006   */\n      0x00\n        /* \"#utility.yul\":7998:8013   */\n      revert\n        /* \"#utility.yul\":8025:8216   */\n    tag_141:\n        /* \"#utility.yul\":8065:8068   */\n      0x00\n        /* \"#utility.yul\":8084:8104   */\n      tag_428\n        /* \"#utility.yul\":8102:8103   */\n      dup3\n        /* \"#utility.yul\":8084:8104   */\n      tag_300\n      jump\t// in\n    tag_428:\n        /* \"#utility.yul\":8079:8104   */\n      swap2\n      pop\n        /* \"#utility.yul\":8118:8138   */\n      tag_429\n        /* \"#utility.yul\":8136:8137   */\n      dup4\n        /* \"#utility.yul\":8118:8138   */\n      tag_300\n      jump\t// in\n    tag_429:\n        /* \"#utility.yul\":8113:8138   */\n      swap3\n      pop\n        /* \"#utility.yul\":8161:8162   */\n      dup3\n        /* \"#utility.yul\":8158:8159   */\n      dup3\n        /* \"#utility.yul\":8154:8163   */\n      add\n        /* \"#utility.yul\":8147:8163   */\n      swap1\n      pop\n        /* \"#utility.yul\":8182:8185   */\n      dup1\n        /* \"#utility.yul\":8179:8180   */\n      dup3\n        /* \"#utility.yul\":8176:8186   */\n      gt\n        /* \"#utility.yul\":8173:8209   */\n      iszero\n      tag_430\n      jumpi\n        /* \"#utility.yul\":8189:8207   */\n      tag_431\n      tag_312\n      jump\t// in\n    tag_431:\n        /* \"#utility.yul\":8173:8209   */\n    tag_430:\n        /* \"#utility.yul\":8025:8216   */\n      swap3\n      swap2\n      pop\n      pop\n      jump\t// out\n        /* \"#utility.yul\":8222:8446   */\n    tag_313:\n        /* \"#utility.yul\":8362:8396   */\n      0x45524332303a2064656372656173656420616c6c6f77616e63652062656c6f77\n        /* \"#utility.yul\":8358:8359   */\n      0x00\n        /* \"#utility.yul\":8350:8356   */\n      dup3\n        /* \"#utility.yul\":8346:8360   */\n      add\n        /* \"#utility.yul\":8339:8397   */\n      mstore\n        /* \"#utility.yul\":8431:8438   */\n      0x207a65726f000000000000000000000000000000000000000000000000000000\n        /* \"#utility.yul\":8426:8428   */\n      0x20\n        /* \"#utility.yul\":8418:8424   */\n      dup3\n        /* \"#utility.yul\":8414:8429   */\n      add\n        /* \"#utility.yul\":8407:8439   */\n      mstore\n        /* \"#utility.yul\":8222:8446   */\n      pop\n      jump\t// out\n        /* \"#utility.yul\":8452:8818   */\n    tag_314:\n        /* \"#utility.yul\":8594:8597   */\n      0x00\n        /* \"#utility.yul\":8615:8682   */\n      tag_434\n        /* \"#utility.yul\":8679:8681   */\n      0x25\n        /* \"#utility.yul\":8674:8677   */\n      dup4\n        /* \"#utility.yul\":8615:8682   */\n      tag_289\n      jump\t// in\n    tag_434:\n        /* \"#utility.yul\":8608:8682   */\n      swap2\n      pop\n        /* \"#utility.yul\":8691:8784   */\n      tag_435\n        /* \"#utility.yul\":8780:8783   */\n      dup3\n        /* \"#utility.yul\":8691:8784   */\n      tag_313\n      jump\t// in\n    tag_435:\n        /* \"#utility.yul\":8809:8811   */\n      0x40\n        /* \"#utility.yul\":8804:8807   */\n      dup3\n        /* \"#utility.yul\":8800:8812   */\n      add\n        /* \"#utility.yul\":8793:8812   */\n      swap1\n      pop\n        /* \"#utility.yul\":8452:8818   */\n      swap2\n      swap1\n      pop\n      jump\t// out\n        /* \"#utility.yul\":8824:9243   */\n    tag_190:\n        /* \"#utility.yul\":8990:8994   */\n      0x00\n        /* \"#utility.yul\":9028:9030   */\n      0x20\n        /* \"#utility.yul\":9017:9026   */\n      dup3\n        /* \"#utility.yul\":9013:9031   */\n      add\n        /* \"#utility.yul\":9005:9031   */\n      swap1\n      pop\n        /* \"#utility.yul\":9077:9086   */\n      dup2\n        /* \"#utility.yul\":9071:9075   */\n      dup2\n        /* \"#utility.yul\":9067:9087   */\n      sub\n        /* \"#utility.yul\":9063:9064   */\n      0x00\n        /* \"#utility.yul\":9052:9061   */\n      dup4\n        /* \"#utility.yul\":9048:9065   */\n      add\n        /* \"#utility.yul\":9041:9088   */\n      mstore\n        /* \"#utility.yul\":9105:9236   */\n      tag_437\n        /* \"#utility.yul\":9231:9235   */\n      dup2\n        /* \"#utility.yul\":9105:9236   */\n      tag_314\n      jump\t// in\n    tag_437:\n        /* \"#utility.yul\":9097:9236   */\n      swap1\n      pop\n        /* \"#utility.yul\":8824:9243   */\n      swap2\n      swap1\n      pop\n      jump\t// out\n        /* \"#utility.yul\":9249:9474   */\n    tag_315:\n        /* \"#utility.yul\":9389:9423   */\n      0x4f776e61626c653a206e6577206f776e657220697320746865207a65726f2061\n        /* \"#utility.yul\":9385:9386   */\n      0x00\n        /* \"#utility.yul\":9377:9383   */\n      dup3\n        /* \"#utility.yul\":9373:9387   */\n      add\n        /* \"#utility.yul\":9366:9424   */\n      mstore\n        /* \"#utility.yul\":9458:9466   */\n      0x6464726573730000000000000000000000000000000000000000000000000000\n        /* \"#utility.yul\":9453:9455   */\n      0x20\n        /* \"#utility.yul\":9445:9451   */\n      dup3\n        /* \"#utility.yul\":9441:9456   */\n      add\n        /* \"#utility.yul\":9434:9467   */\n      mstore\n        /* \"#utility.yul\":9249:9474   */\n      pop\n      jump\t// out\n        /* \"#utility.yul\":9480:9846   */\n    tag_316:\n        /* \"#utility.yul\":9622:9625   */\n      0x00\n        /* \"#utility.yul\":9643:9710   */\n      tag_440\n        /* \"#utility.yul\":9707:9709   */\n      0x26\n        /* \"#utility.yul\":9702:9705   */\n      dup4\n        /* \"#utility.yul\":9643:9710   */\n      tag_289\n      jump\t// in\n    tag_440:\n        /* \"#utility.yul\":9636:9710   */\n      swap2\n      pop\n        /* \"#utility.yul\":9719:9812   */\n      tag_441\n        /* \"#utility.yul\":9808:9811   */\n      dup3\n        /* \"#utility.yul\":9719:9812   */\n      tag_315\n      jump\t// in\n    tag_441:\n        /* \"#utility.yul\":9837:9839   */\n      0x40\n        /* \"#utility.yul\":9832:9835   */\n      dup3\n        /* \"#utility.yul\":9828:9840   */\n      add\n        /* \"#utility.yul\":9821:9840   */\n      swap1\n      pop\n        /* \"#utility.yul\":9480:9846   */\n      swap2\n      swap1\n      pop\n      jump\t// out\n        /* \"#utility.yul\":9852:10271   */\n    tag_201:\n        /* \"#utility.yul\":10018:10022   */\n      0x00\n        /* \"#utility.yul\":10056:10058   */\n      0x20\n        /* \"#utility.yul\":10045:10054   */\n      dup3\n        /* \"#utility.yul\":10041:10059   */\n      add\n        /* \"#utility.yul\":10033:10059   */\n      swap1\n      pop\n        /* \"#utility.yul\":10105:10114   */\n      dup2\n        /* \"#utility.yul\":10099:10103   */\n      dup2\n        /* \"#utility.yul\":10095:10115   */\n      sub\n        /* \"#utility.yul\":10091:10092   */\n      0x00\n        /* \"#utility.yul\":10080:10089   */\n      dup4\n        /* \"#utility.yul\":10076:10093   */\n      add\n        /* \"#utility.yul\":10069:10116   */\n      mstore\n        /* \"#utility.yul\":10133:10264   */\n      tag_443\n        /* \"#utility.yul\":10259:10263   */\n      dup2\n        /* \"#utility.yul\":10133:10264   */\n      tag_316\n      jump\t// in\n    tag_443:\n        /* \"#utility.yul\":10125:10264   */\n      swap1\n      pop\n        /* \"#utility.yul\":9852:10271   */\n      swap2\n      swap1\n      pop\n      jump\t// out\n        /* \"#utility.yul\":10277:10500   */\n    tag_317:\n        /* \"#utility.yul\":10417:10451   */\n      0x45524332303a20617070726f76652066726f6d20746865207a65726f20616464\n        /* \"#utility.yul\":10413:10414   */\n      0x00\n        /* \"#utility.yul\":10405:10411   */\n      dup3\n        /* \"#utility.yul\":10401:10415   */\n      add\n        /* \"#utility.yul\":10394:10452   */\n      mstore\n        /* \"#utility.yul\":10486:10492   */\n      0x7265737300000000000000000000000000000000000000000000000000000000\n        /* \"#utility.yul\":10481:10483   */\n      0x20\n        /* \"#utility.yul\":10473:10479   */\n      dup3\n        /* \"#utility.yul\":10469:10484   */\n      add\n        /* \"#utility.yul\":10462:10493   */\n      mstore\n        /* \"#utility.yul\":10277:10500   */\n      pop\n      jump\t// out\n        /* \"#utility.yul\":10506:10872   */\n    tag_318:\n        /* \"#utility.yul\":10648:10651   */\n      0x00\n        /* \"#utility.yul\":10669:10736   */\n      tag_446\n        /* \"#utility.yul\":10733:10735   */\n      0x24\n        /* \"#utility.yul\":10728:10731   */\n      dup4\n        /* \"#utility.yul\":10669:10736   */\n      tag_289\n      jump\t// in\n    tag_446:\n        /* \"#utility.yul\":10662:10736   */\n      swap2\n      pop\n        /* \"#utility.yul\":10745:10838   */\n      tag_447\n        /* \"#utility.yul\":10834:10837   */\n      dup3\n        /* \"#utility.yul\":10745:10838   */\n      tag_317\n      jump\t// in\n    tag_447:\n        /* \"#utility.yul\":10863:10865   */\n      0x40\n        /* \"#utility.yul\":10858:10861   */\n      dup3\n        /* \"#utility.yul\":10854:10866   */\n      add\n        /* \"#utility.yul\":10847:10866   */\n      swap1\n      pop\n        /* \"#utility.yul\":10506:10872   */\n      swap2\n      swap1\n      pop\n      jump\t// out\n        /* \"#utility.yul\":10878:11297   */\n    tag_207:\n        /* \"#utility.yul\":11044:11048   */\n      0x00\n        /* \"#utility.yul\":11082:11084   */\n      0x20\n        /* \"#utility.yul\":11071:11080   */\n      dup3\n        /* \"#utility.yul\":11067:11085   */\n      add\n        /* \"#utility.yul\":11059:11085   */\n      swap1\n      pop\n        /* \"#utility.yul\":11131:11140   */\n      dup2\n        /* \"#utility.yul\":11125:11129   */\n      dup2\n        /* \"#utility.yul\":11121:11141   */\n      sub\n        /* \"#utility.yul\":11117:11118   */\n      0x00\n        /* \"#utility.yul\":11106:11115   */\n      dup4\n        /* \"#utility.yul\":11102:11119   */\n      add\n        /* \"#utility.yul\":11095:11142   */\n      mstore\n        /* \"#utility.yul\":11159:11290   */\n      tag_449\n        /* \"#utility.yul\":11285:11289   */\n      dup2\n        /* \"#utility.yul\":11159:11290   */\n      tag_318\n      jump\t// in\n    tag_449:\n        /* \"#utility.yul\":11151:11290   */\n      swap1\n      pop\n        /* \"#utility.yul\":10878:11297   */\n      swap2\n      swap1\n      pop\n      jump\t// out\n        /* \"#utility.yul\":11303:11524   */\n    tag_319:\n        /* \"#utility.yul\":11443:11477   */\n      0x45524332303a20617070726f766520746f20746865207a65726f206164647265\n        /* \"#utility.yul\":11439:11440   */\n      0x00\n        /* \"#utility.yul\":11431:11437   */\n      dup3\n        /* \"#utility.yul\":11427:11441   */\n      add\n        /* \"#utility.yul\":11420:11478   */\n      mstore\n        /* \"#utility.yul\":11512:11516   */\n      0x7373000000000000000000000000000000000000000000000000000000000000\n        /* \"#utility.yul\":11507:11509   */\n      0x20\n        /* \"#utility.yul\":11499:11505   */\n      dup3\n        /* \"#utility.yul\":11495:11510   */\n      add\n        /* \"#utility.yul\":11488:11517   */\n      mstore\n        /* \"#utility.yul\":11303:11524   */\n      pop\n      jump\t// out\n        /* \"#utility.yul\":11530:11896   */\n    tag_320:\n        /* \"#utility.yul\":11672:11675   */\n      0x00\n        /* \"#utility.yul\":11693:11760   */\n      tag_452\n        /* \"#utility.yul\":11757:11759   */\n      0x22\n        /* \"#utility.yul\":11752:11755   */\n      dup4\n        /* \"#utility.yul\":11693:11760   */\n      tag_289\n      jump\t// in\n    tag_452:\n        /* \"#utility.yul\":11686:11760   */\n      swap2\n      pop\n        /* \"#utility.yul\":11769:11862   */\n      tag_453\n        /* \"#utility.yul\":11858:11861   */\n      dup3\n        /* \"#utility.yul\":11769:11862   */\n      tag_319\n      jump\t// in\n    tag_453:\n        /* \"#utility.yul\":11887:11889   */\n      0x40\n        /* \"#utility.yul\":11882:11885   */\n      dup3\n        /* \"#utility.yul\":11878:11890   */\n      add\n        /* \"#utility.yul\":11871:11890   */\n      swap1\n      pop\n        /* \"#utility.yul\":11530:11896   */\n      swap2\n      swap1\n      pop\n      jump\t// out\n        /* \"#utility.yul\":11902:12321   */\n    tag_210:\n        /* \"#utility.yul\":12068:12072   */\n      0x00\n        /* \"#utility.yul\":12106:12108   */\n      0x20\n        /* \"#utility.yul\":12095:12104   */\n      dup3\n        /* \"#utility.yul\":12091:12109   */\n      add\n        /* \"#utility.yul\":12083:12109   */\n      swap1\n      pop\n        /* \"#utility.yul\":12155:12164   */\n      dup2\n        /* \"#utility.yul\":12149:12153   */\n      dup2\n        /* \"#utility.yul\":12145:12165   */\n      sub\n        /* \"#utility.yul\":12141:12142   */\n      0x00\n        /* \"#utility.yul\":12130:12139   */\n      dup4\n        /* \"#utility.yul\":12126:12143   */\n      add\n        /* \"#utility.yul\":12119:12166   */\n      mstore\n        /* \"#utility.yul\":12183:12314   */\n      tag_455\n        /* \"#utility.yul\":12309:12313   */\n      dup2\n        /* \"#utility.yul\":12183:12314   */\n      tag_320\n      jump\t// in\n    tag_455:\n        /* \"#utility.yul\":12175:12314   */\n      swap1\n      pop\n        /* \"#utility.yul\":11902:12321   */\n      swap2\n      swap1\n      pop\n      jump\t// out\n        /* \"#utility.yul\":12327:12506   */\n    tag_321:\n        /* \"#utility.yul\":12467:12498   */\n      0x45524332303a20696e73756666696369656e7420616c6c6f77616e6365000000\n        /* \"#utility.yul\":12463:12464   */\n      0x00\n        /* \"#utility.yul\":12455:12461   */\n      dup3\n        /* \"#utility.yul\":12451:12465   */\n      add\n        /* \"#utility.yul\":12444:12499   */\n      mstore\n        /* \"#utility.yul\":12327:12506   */\n      pop\n      jump\t// out\n        /* \"#utility.yul\":12512:12878   */\n    tag_322:\n        /* \"#utility.yul\":12654:12657   */\n      0x00\n        /* \"#utility.yul\":12675:12742   */\n      tag_458\n        /* \"#utility.yul\":12739:12741   */\n      0x1d\n        /* \"#utility.yul\":12734:12737   */\n      dup4\n        /* \"#utility.yul\":12675:12742   */\n      tag_289\n      jump\t// in\n    tag_458:\n        /* \"#utility.yul\":12668:12742   */\n      swap2\n      pop\n        /* \"#utility.yul\":12751:12844   */\n      tag_459\n        /* \"#utility.yul\":12840:12843   */\n      dup3\n        /* \"#utility.yul\":12751:12844   */\n      tag_321\n      jump\t// in\n    tag_459:\n        /* \"#utility.yul\":12869:12871   */\n      0x20\n        /* \"#utility.yul\":12864:12867   */\n      dup3\n        /* \"#utility.yul\":12860:12872   */\n      add\n        /* \"#utility.yul\":12853:12872   */\n      swap1\n      pop\n        /* \"#utility.yul\":12512:12878   */\n      swap2\n      swap1\n      pop\n      jump\t// out\n        /* \"#utility.yul\":12884:13303   */\n    tag_217:\n        /* \"#utility.yul\":13050:13054   */\n      0x00\n        /* \"#utility.yul\":13088:13090   */\n      0x20\n        /* \"#utility.yul\":13077:13086   */\n      dup3\n        /* \"#utility.yul\":13073:13091   */\n      add\n        /* \"#utility.yul\":13065:13091   */\n      swap1\n      pop\n        /* \"#utility.yul\":13137:13146   */\n      dup2\n        /* \"#utility.yul\":13131:13135   */\n      dup2\n        /* \"#utility.yul\":13127:13147   */\n      sub\n        /* \"#utility.yul\":13123:13124   */\n      0x00\n        /* \"#utility.yul\":13112:13121   */\n      dup4\n        /* \"#utility.yul\":13108:13125   */\n      add\n        /* \"#utility.yul\":13101:13148   */\n      mstore\n        /* \"#utility.yul\":13165:13296   */\n      tag_461\n        /* \"#utility.yul\":13291:13295   */\n      dup2\n        /* \"#utility.yul\":13165:13296   */\n      tag_322\n      jump\t// in\n    tag_461:\n        /* \"#utility.yul\":13157:13296   */\n      swap1\n      pop\n        /* \"#utility.yul\":12884:13303   */\n      swap2\n      swap1\n      pop\n      jump\t// out\n        /* \"#utility.yul\":13309:13533   */\n    tag_323:\n        /* \"#utility.yul\":13449:13483   */\n      0x45524332303a207472616e736665722066726f6d20746865207a65726f206164\n        /* \"#utility.yul\":13445:13446   */\n      0x00\n        /* \"#utility.yul\":13437:13443   */\n      dup3\n        /* \"#utility.yul\":13433:13447   */\n      add\n        /* \"#utility.yul\":13426:13484   */\n      mstore\n        /* \"#utility.yul\":13518:13525   */\n      0x6472657373000000000000000000000000000000000000000000000000000000\n        /* \"#utility.yul\":13513:13515   */\n      0x20\n        /* \"#utility.yul\":13505:13511   */\n      dup3\n        /* \"#utility.yul\":13501:13516   */\n      add\n        /* \"#utility.yul\":13494:13526   */\n      mstore\n        /* \"#utility.yul\":13309:13533   */\n      pop\n      jump\t// out\n        /* \"#utility.yul\":13539:13905   */\n    tag_324:\n        /* \"#utility.yul\":13681:13684   */\n      0x00\n        /* \"#utility.yul\":13702:13769   */\n      tag_464\n        /* \"#utility.yul\":13766:13768   */\n      0x25\n        /* \"#utility.yul\":13761:13764   */\n      dup4\n        /* \"#utility.yul\":13702:13769   */\n      tag_289\n      jump\t// in\n    tag_464:\n        /* \"#utility.yul\":13695:13769   */\n      swap2\n      pop\n        /* \"#utility.yul\":13778:13871   */\n      tag_465\n        /* \"#utility.yul\":13867:13870   */\n      dup3\n        /* \"#utility.yul\":13778:13871   */\n      tag_323\n      jump\t// in\n    tag_465:\n        /* \"#utility.yul\":13896:13898   */\n      0x40\n        /* \"#utility.yul\":13891:13894   */\n      dup3\n        /* \"#utility.yul\":13887:13899   */\n      add\n        /* \"#utility.yul\":13880:13899   */\n      swap1\n      pop\n        /* \"#utility.yul\":13539:13905   */\n      swap2\n      swap1\n      pop\n      jump\t// out\n        /* \"#utility.yul\":13911:14330   */\n    tag_222:\n        /* \"#utility.yul\":14077:14081   */\n      0x00\n        /* \"#utility.yul\":14115:14117   */\n      0x20\n        /* \"#utility.yul\":14104:14113   */\n      dup3\n        /* \"#utility.yul\":14100:14118   */\n      add\n        /* \"#utility.yul\":14092:14118   */\n      swap1\n      pop\n        /* \"#utility.yul\":14164:14173   */\n      dup2\n        /* \"#utility.yul\":14158:14162   */\n      dup2\n        /* \"#utility.yul\":14154:14174   */\n      sub\n        /* \"#utility.yul\":14150:14151   */\n      0x00\n        /* \"#utility.yul\":14139:14148   */\n      dup4\n        /* \"#utility.yul\":14135:14152   */\n      add\n        /* \"#utility.yul\":14128:14175   */\n      mstore\n        /* \"#utility.yul\":14192:14323   */\n      tag_467\n        /* \"#utility.yul\":14318:14322   */\n      dup2\n        /* \"#utility.yul\":14192:14323   */\n      tag_324\n      jump\t// in\n    tag_467:\n        /* \"#utility.yul\":14184:14323   */\n      swap1\n      pop\n        /* \"#utility.yul\":13911:14330   */\n      swap2\n      swap1\n      pop\n      jump\t// out\n        /* \"#utility.yul\":14336:14558   */\n    tag_325:\n        /* \"#utility.yul\":14476:14510   */\n      0x45524332303a207472616e7366657220746f20746865207a65726f2061646472\n        /* \"#utility.yul\":14472:14473   */\n      0x00\n        /* \"#utility.yul\":14464:14470   */\n      dup3\n        /* \"#utility.yul\":14460:14474   */\n      add\n        /* \"#utility.yul\":14453:14511   */\n      mstore\n        /* \"#utility.yul\":14545:14550   */\n      0x6573730000000000000000000000000000000000000000000000000000000000\n        /* \"#utility.yul\":14540:14542   */\n      0x20\n        /* \"#utility.yul\":14532:14538   */\n      dup3\n        /* \"#utility.yul\":14528:14543   */\n      add\n        /* \"#utility.yul\":14521:14551   */\n      mstore\n        /* \"#utility.yul\":14336:14558   */\n      pop\n      jump\t// out\n        /* \"#utility.yul\":14564:14930   */\n    tag_326:\n        /* \"#utility.yul\":14706:14709   */\n      0x00\n        /* \"#utility.yul\":14727:14794   */\n      tag_470\n        /* \"#utility.yul\":14791:14793   */\n      0x23\n        /* \"#utility.yul\":14786:14789   */\n      dup4\n        /* \"#utility.yul\":14727:14794   */\n      tag_289\n      jump\t// in\n    tag_470:\n        /* \"#utility.yul\":14720:14794   */\n      swap2\n      pop\n        /* \"#utility.yul\":14803:14896   */\n      tag_471\n        /* \"#utility.yul\":14892:14895   */\n      dup3\n        /* \"#utility.yul\":14803:14896   */\n      tag_325\n      jump\t// in\n    tag_471:\n        /* \"#utility.yul\":14921:14923   */\n      0x40\n        /* \"#utility.yul\":14916:14919   */\n      dup3\n        /* \"#utility.yul\":14912:14924   */\n      add\n        /* \"#utility.yul\":14905:14924   */\n      swap1\n      pop\n        /* \"#utility.yul\":14564:14930   */\n      swap2\n      swap1\n      pop\n      jump\t// out\n        /* \"#utility.yul\":14936:15355   */\n    tag_225:\n        /* \"#utility.yul\":15102:15106   */\n      0x00\n        /* \"#utility.yul\":15140:15142   */\n      0x20\n        /* \"#utility.yul\":15129:15138   */\n      dup3\n        /* \"#utility.yul\":15125:15143   */\n      add\n        /* \"#utility.yul\":15117:15143   */\n      swap1\n      pop\n        /* \"#utility.yul\":15189:15198   */\n      dup2\n        /* \"#utility.yul\":15183:15187   */\n      dup2\n        /* \"#utility.yul\":15179:15199   */\n      sub\n        /* \"#utility.yul\":15175:15176   */\n      0x00\n        /* \"#utility.yul\":15164:15173   */\n      dup4\n        /* \"#utility.yul\":15160:15177   */\n      add\n        /* \"#utility.yul\":15153:15200   */\n      mstore\n        /* \"#utility.yul\":15217:15348   */\n      tag_473\n        /* \"#utility.yul\":15343:15347   */\n      dup2\n        /* \"#utility.yul\":15217:15348   */\n      tag_326\n      jump\t// in\n    tag_473:\n        /* \"#utility.yul\":15209:15348   */\n      swap1\n      pop\n        /* \"#utility.yul\":14936:15355   */\n      swap2\n      swap1\n      pop\n      jump\t// out\n        /* \"#utility.yul\":15361:15586   */\n    tag_327:\n        /* \"#utility.yul\":15501:15535   */\n      0x45524332303a207472616e7366657220616d6f756e7420657863656564732062\n        /* \"#utility.yul\":15497:15498   */\n      0x00\n        /* \"#utility.yul\":15489:15495   */\n      dup3\n        /* \"#utility.yul\":15485:15499   */\n      add\n        /* \"#utility.yul\":15478:15536   */\n      mstore\n        /* \"#utility.yul\":15570:15578   */\n      0x616c616e63650000000000000000000000000000000000000000000000000000\n        /* \"#utility.yul\":15565:15567   */\n      0x20\n        /* \"#utility.yul\":15557:15563   */\n      dup3\n        /* \"#utility.yul\":15553:15568   */\n      add\n        /* \"#utility.yul\":15546:15579   */\n      mstore\n        /* \"#utility.yul\":15361:15586   */\n      pop\n      jump\t// out\n        /* \"#utility.yul\":15592:15958   */\n    tag_328:\n        /* \"#utility.yul\":15734:15737   */\n      0x00\n        /* \"#utility.yul\":15755:15822   */\n      tag_476\n        /* \"#utility.yul\":15819:15821   */\n      0x26\n        /* \"#utility.yul\":15814:15817   */\n      dup4\n        /* \"#utility.yul\":15755:15822   */\n      tag_289\n      jump\t// in\n    tag_476:\n        /* \"#utility.yul\":15748:15822   */\n      swap2\n      pop\n        /* \"#utility.yul\":15831:15924   */\n      tag_477\n        /* \"#utility.yul\":15920:15923   */\n      dup3\n        /* \"#utility.yul\":15831:15924   */\n      tag_327\n      jump\t// in\n    tag_477:\n        /* \"#utility.yul\":15949:15951   */\n      0x40\n        /* \"#utility.yul\":15944:15947   */\n      dup3\n        /* \"#utility.yul\":15940:15952   */\n      add\n        /* \"#utility.yul\":15933:15952   */\n      swap1\n      pop\n        /* \"#utility.yul\":15592:15958   */\n      swap2\n      swap1\n      pop\n      jump\t// out\n        /* \"#utility.yul\":15964:16383   */\n    tag_230:\n        /* \"#utility.yul\":16130:16134   */\n      0x00\n        /* \"#utility.yul\":16168:16170   */\n      0x20\n        /* \"#utility.yul\":16157:16166   */\n      dup3\n        /* \"#utility.yul\":16153:16171   */\n      add\n        /* \"#utility.yul\":16145:16171   */\n      swap1\n      pop\n        /* \"#utility.yul\":16217:16226   */\n      dup2\n        /* \"#utility.yul\":16211:16215   */\n      dup2\n        /* \"#utility.yul\":16207:16227   */\n      sub\n        /* \"#utility.yul\":16203:16204   */\n      0x00\n        /* \"#utility.yul\":16192:16201   */\n      dup4\n        /* \"#utility.yul\":16188:16205   */\n      add\n        /* \"#utility.yul\":16181:16228   */\n      mstore\n        /* \"#utility.yul\":16245:16376   */\n      tag_479\n        /* \"#utility.yul\":16371:16375   */\n      dup2\n        /* \"#utility.yul\":16245:16376   */\n      tag_328\n      jump\t// in\n    tag_479:\n        /* \"#utility.yul\":16237:16376   */\n      swap1\n      pop\n        /* \"#utility.yul\":15964:16383   */\n      swap2\n      swap1\n      pop\n      jump\t// out\n        /* \"#utility.yul\":16389:16571   */\n    tag_329:\n        /* \"#utility.yul\":16529:16563   */\n      0x4f776e61626c653a2063616c6c6572206973206e6f7420746865206f776e6572\n        /* \"#utility.yul\":16525:16526   */\n      0x00\n        /* \"#utility.yul\":16517:16523   */\n      dup3\n        /* \"#utility.yul\":16513:16527   */\n      add\n        /* \"#utility.yul\":16506:16564   */\n      mstore\n        /* \"#utility.yul\":16389:16571   */\n      pop\n      jump\t// out\n        /* \"#utility.yul\":16577:16943   */\n    tag_330:\n        /* \"#utility.yul\":16719:16722   */\n      0x00\n        /* \"#utility.yul\":16740:16807   */\n      tag_482\n        /* \"#utility.yul\":16804:16806   */\n      0x20\n        /* \"#utility.yul\":16799:16802   */\n      dup4\n        /* \"#utility.yul\":16740:16807   */\n      tag_289\n      jump\t// in\n    tag_482:\n        /* \"#utility.yul\":16733:16807   */\n      swap2\n      pop\n        /* \"#utility.yul\":16816:16909   */\n      tag_483\n        /* \"#utility.yul\":16905:16908   */\n      dup3\n        /* \"#utility.yul\":16816:16909   */\n      tag_329\n      jump\t// in\n    tag_483:\n        /* \"#utility.yul\":16934:16936   */\n      0x20\n        /* \"#utility.yul\":16929:16932   */\n      dup3\n        /* \"#utility.yul\":16925:16937   */\n      add\n        /* \"#utility.yul\":16918:16937   */\n      swap1\n      pop\n        /* \"#utility.yul\":16577:16943   */\n      swap2\n      swap1\n      pop\n      jump\t// out\n        /* \"#utility.yul\":16949:17368   */\n    tag_239:\n        /* \"#utility.yul\":17115:17119   */\n      0x00\n        /* \"#utility.yul\":17153:17155   */\n      0x20\n        /* \"#utility.yul\":17142:17151   */\n      dup3\n        /* \"#utility.yul\":17138:17156   */\n      add\n        /* \"#utility.yul\":17130:17156   */\n      swap1\n      pop\n        /* \"#utility.yul\":17202:17211   */\n      dup2\n        /* \"#utility.yul\":17196:17200   */\n      dup2\n        /* \"#utility.yul\":17192:17212   */\n      sub\n        /* \"#utility.yul\":17188:17189   */\n      0x00\n        /* \"#utility.yul\":17177:17186   */\n      dup4\n        /* \"#utility.yul\":17173:17190   */\n      add\n        /* \"#utility.yul\":17166:17213   */\n      mstore\n        /* \"#utility.yul\":17230:17361   */\n      tag_485\n        /* \"#utility.yul\":17356:17360   */\n      dup2\n        /* \"#utility.yul\":17230:17361   */\n      tag_330\n      jump\t// in\n    tag_485:\n        /* \"#utility.yul\":17222:17361   */\n      swap1\n      pop\n        /* \"#utility.yul\":16949:17368   */\n      swap2\n      swap1\n      pop\n      jump\t// out\n        /* \"#utility.yul\":17374:17555   */\n    tag_331:\n        /* \"#utility.yul\":17514:17547   */\n      0x45524332303a206d696e7420746f20746865207a65726f206164647265737300\n        /* \"#utility.yul\":17510:17511   */\n      0x00\n        /* \"#utility.yul\":17502:17508   */\n      dup3\n        /* \"#utility.yul\":17498:17512   */\n      add\n        /* \"#utility.yul\":17491:17548   */\n      mstore\n        /* \"#utility.yul\":17374:17555   */\n      pop\n      jump\t// out\n        /* \"#utility.yul\":17561:17927   */\n    tag_332:\n        /* \"#utility.yul\":17703:17706   */\n      0x00\n        /* \"#utility.yul\":17724:17791   */\n      tag_488\n        /* \"#utility.yul\":17788:17790   */\n      0x1f\n        /* \"#utility.yul\":17783:17786   */\n      dup4\n        /* \"#utility.yul\":17724:17791   */\n      tag_289\n      jump\t// in\n    tag_488:\n        /* \"#utility.yul\":17717:17791   */\n      swap2\n      pop\n        /* \"#utility.yul\":17800:17893   */\n      tag_489\n        /* \"#utility.yul\":17889:17892   */\n      dup3\n        /* \"#utility.yul\":17800:17893   */\n      tag_331\n      jump\t// in\n    tag_489:\n        /* \"#utility.yul\":17918:17920   */\n      0x20\n        /* \"#utility.yul\":17913:17916   */\n      dup3\n        /* \"#utility.yul\":17909:17921   */\n      add\n        /* \"#utility.yul\":17902:17921   */\n      swap1\n      pop\n        /* \"#utility.yul\":17561:17927   */\n      swap2\n      swap1\n      pop\n      jump\t// out\n        /* \"#utility.yul\":17933:18352   */\n    tag_249:\n        /* \"#utility.yul\":18099:18103   */\n      0x00\n        /* \"#utility.yul\":18137:18139   */\n      0x20\n        /* \"#utility.yul\":18126:18135   */\n      dup3\n        /* \"#utility.yul\":18122:18140   */\n      add\n        /* \"#utility.yul\":18114:18140   */\n      swap1\n      pop\n        /* \"#utility.yul\":18186:18195   */\n      dup2\n        /* \"#utility.yul\":18180:18184   */\n      dup2\n        /* \"#utility.yul\":18176:18196   */\n      sub\n        /* \"#utility.yul\":18172:18173   */\n      0x00\n        /* \"#utility.yul\":18161:18170   */\n      dup4\n        /* \"#utility.yul\":18157:18174   */\n      add\n        /* \"#utility.yul\":18150:18197   */\n      mstore\n        /* \"#utility.yul\":18214:18345   */\n      tag_491\n        /* \"#utility.yul\":18340:18344   */\n      dup2\n        /* \"#utility.yul\":18214:18345   */\n      tag_332\n      jump\t// in\n    tag_491:\n        /* \"#utility.yul\":18206:18345   */\n      swap1\n      pop\n        /* \"#utility.yul\":17933:18352   */\n      swap2\n      swap1\n      pop\n      jump\t// out\n        /* \"#utility.yul\":18358:18578   */\n    tag_333:\n        /* \"#utility.yul\":18498:18532   */\n      0x45524332303a206275726e2066726f6d20746865207a65726f20616464726573\n        /* \"#utility.yul\":18494:18495   */\n      0x00\n        /* \"#utility.yul\":18486:18492   */\n      dup3\n        /* \"#utility.yul\":18482:18496   */\n      add\n        /* \"#utility.yul\":18475:18533   */\n      mstore\n        /* \"#utility.yul\":18567:18570   */\n      0x7300000000000000000000000000000000000000000000000000000000000000\n        /* \"#utility.yul\":18562:18564   */\n      0x20\n        /* \"#utility.yul\":18554:18560   */\n      dup3\n        /* \"#utility.yul\":18550:18565   */\n      add\n        /* \"#utility.yul\":18543:18571   */\n      mstore\n        /* \"#utility.yul\":18358:18578   */\n      pop\n      jump\t// out\n        /* \"#utility.yul\":18584:18950   */\n    tag_334:\n        /* \"#utility.yul\":18726:18729   */\n      0x00\n        /* \"#utility.yul\":18747:18814   */\n      tag_494\n        /* \"#utility.yul\":18811:18813   */\n      0x21\n        /* \"#utility.yul\":18806:18809   */\n      dup4\n        /* \"#utility.yul\":18747:18814   */\n      tag_289\n      jump\t// in\n    tag_494:\n        /* \"#utility.yul\":18740:18814   */\n      swap2\n      pop\n        /* \"#utility.yul\":18823:18916   */\n      tag_495\n        /* \"#utility.yul\":18912:18915   */\n      dup3\n        /* \"#utility.yul\":18823:18916   */\n      tag_333\n      jump\t// in\n    tag_495:\n        /* \"#utility.yul\":18941:18943   */\n      0x40\n        /* \"#utility.yul\":18936:18939   */\n      dup3\n        /* \"#utility.yul\":18932:18944   */\n      add\n        /* \"#utility.yul\":18925:18944   */\n      swap1\n      pop\n        /* \"#utility.yul\":18584:18950   */\n      swap2\n      swap1\n      pop\n      jump\t// out\n        /* \"#utility.yul\":18956:19375   */\n    tag_257:\n        /* \"#utility.yul\":19122:19126   */\n      0x00\n        /* \"#utility.yul\":19160:19162   */\n      0x20\n        /* \"#utility.yul\":19149:19158   */\n      dup3\n        /* \"#utility.yul\":19145:19163   */\n      add\n        /* \"#utility.yul\":19137:19163   */\n      swap1\n      pop\n        /* \"#utility.yul\":19209:19218   */\n      dup2\n        /* \"#utility.yul\":19203:19207   */\n      dup2\n        /* \"#utility.yul\":19199:19219   */\n      sub\n        /* \"#utility.yul\":19195:19196   */\n      0x00\n        /* \"#utility.yul\":19184:19193   */\n      dup4\n        /* \"#utility.yul\":19180:19197   */\n      add\n        /* \"#utility.yul\":19173:19220   */\n      mstore\n        /* \"#utility.yul\":19237:19368   */\n      tag_497\n        /* \"#utility.yul\":19363:19367   */\n      dup2\n        /* \"#utility.yul\":19237:19368   */\n      tag_334\n      jump\t// in\n    tag_497:\n        /* \"#utility.yul\":19229:19368   */\n      swap1\n      pop\n        /* \"#utility.yul\":18956:19375   */\n      swap2\n      swap1\n      pop\n      jump\t// out\n        /* \"#utility.yul\":19381:19602   */\n    tag_335:\n        /* \"#utility.yul\":19521:19555   */\n      0x45524332303a206275726e20616d6f756e7420657863656564732062616c616e\n        /* \"#utility.yul\":19517:19518   */\n      0x00\n        /* \"#utility.yul\":19509:19515   */\n      dup3\n        /* \"#utility.yul\":19505:19519   */\n      add\n        /* \"#utility.yul\":19498:19556   */\n      mstore\n        /* \"#utility.yul\":19590:19594   */\n      0x6365000000000000000000000000000000000000000000000000000000000000\n        /* \"#utility.yul\":19585:19587   */\n      0x20\n        /* \"#utility.yul\":19577:19583   */\n      dup3\n        /* \"#utility.yul\":19573:19588   */\n      add\n        /* \"#utility.yul\":19566:19595   */\n      mstore\n        /* \"#utility.yul\":19381:19602   */\n      pop\n      jump\t// out\n        /* \"#utility.yul\":19608:19974   */\n    tag_336:\n        /* \"#utility.yul\":19750:19753   */\n      0x00\n        /* \"#utility.yul\":19771:19838   */\n      tag_500\n        /* \"#utility.yul\":19835:19837   */\n      0x22\n        /* \"#utility.yul\":19830:19833   */\n      dup4\n        /* \"#utility.yul\":19771:19838   */\n      tag_289\n      jump\t// in\n    tag_500:\n        /* \"#utility.yul\":19764:19838   */\n      swap2\n      pop\n        /* \"#utility.yul\":19847:19940   */\n      tag_501\n        /* \"#utility.yul\":19936:19939   */\n      dup3\n        /* \"#utility.yul\":19847:19940   */\n      tag_335\n      jump\t// in\n    tag_501:\n        /* \"#utility.yul\":19965:19967   */\n      0x40\n        /* \"#utility.yul\":19960:19963   */\n      dup3\n        /* \"#utility.yul\":19956:19968   */\n      add\n        /* \"#utility.yul\":19949:19968   */\n      swap1\n      pop\n        /* \"#utility.yul\":19608:19974   */\n      swap2\n      swap1\n      pop\n      jump\t// out\n        /* \"#utility.yul\":19980:20399   */\n    tag_261:\n        /* \"#utility.yul\":20146:20150   */\n      0x00\n        /* \"#utility.yul\":20184:20186   */\n      0x20\n        /* \"#utility.yul\":20173:20182   */\n      dup3\n        /* \"#utility.yul\":20169:20187   */\n      add\n        /* \"#utility.yul\":20161:20187   */\n      swap1\n      pop\n        /* \"#utility.yul\":20233:20242   */\n      dup2\n        /* \"#utility.yul\":20227:20231   */\n      dup2\n        /* \"#utility.yul\":20223:20243   */\n      sub\n        /* \"#utility.yul\":20219:20220   */\n      0x00\n        /* \"#utility.yul\":20208:20217   */\n      dup4\n        /* \"#utility.yul\":20204:20221   */\n      add\n        /* \"#utility.yul\":20197:20244   */\n      mstore\n        /* \"#utility.yul\":20261:20392   */\n      tag_503\n        /* \"#utility.yul\":20387:20391   */\n      dup2\n        /* \"#utility.yul\":20261:20392   */\n      tag_336\n      jump\t// in\n    tag_503:\n        /* \"#utility.yul\":20253:20392   */\n      swap1\n      pop\n        /* \"#utility.yul\":19980:20399   */\n      swap2\n      swap1\n      pop\n      jump\t// out\n        /* \"#utility.yul\":20405:20575   */\n    tag_337:\n        /* \"#utility.yul\":20545:20567   */\n      0x5061757361626c653a206e6f7420706175736564000000000000000000000000\n        /* \"#utility.yul\":20541:20542   */\n      0x00\n        /* \"#utility.yul\":20533:20539   */\n      dup3\n        /* \"#utility.yul\":20529:20543   */\n      add\n        /* \"#utility.yul\":20522:20568   */\n      mstore\n        /* \"#utility.yul\":20405:20575   */\n      pop\n      jump\t// out\n        /* \"#utility.yul\":20581:20947   */\n    tag_338:\n        /* \"#utility.yul\":20723:20726   */\n      0x00\n        /* \"#utility.yul\":20744:20811   */\n      tag_506\n        /* \"#utility.yul\":20808:20810   */\n      0x14\n        /* \"#utility.yul\":20803:20806   */\n      dup4\n        /* \"#utility.yul\":20744:20811   */\n      tag_289\n      jump\t// in\n    tag_506:\n        /* \"#utility.yul\":20737:20811   */\n      swap2\n      pop\n        /* \"#utility.yul\":20820:20913   */\n      tag_507\n        /* \"#utility.yul\":20909:20912   */\n      dup3\n        /* \"#utility.yul\":20820:20913   */\n      tag_337\n      jump\t// in\n    tag_507:\n        /* \"#utility.yul\":20938:20940   */\n      0x20\n        /* \"#utility.yul\":20933:20936   */\n      dup3\n        /* \"#utility.yul\":20929:20941   */\n      add\n        /* \"#utility.yul\":20922:20941   */\n      swap1\n      pop\n        /* \"#utility.yul\":20581:20947   */\n      swap2\n      swap1\n      pop\n      jump\t// out\n        /* \"#utility.yul\":20953:21372   */\n    tag_281:\n        /* \"#utility.yul\":21119:21123   */\n      0x00\n        /* \"#utility.yul\":21157:21159   */\n      0x20\n        /* \"#utility.yul\":21146:21155   */\n      dup3\n        /* \"#utility.yul\":21142:21160   */\n      add\n        /* \"#utility.yul\":21134:21160   */\n      swap1\n      pop\n        /* \"#utility.yul\":21206:21215   */\n      dup2\n        /* \"#utility.yul\":21200:21204   */\n      dup2\n        /* \"#utility.yul\":21196:21216   */\n      sub\n        /* \"#utility.yul\":21192:21193   */\n      0x00\n        /* \"#utility.yul\":21181:21190   */\n      dup4\n        /* \"#utility.yul\":21177:21194   */\n      add\n        /* \"#utility.yul\":21170:21217   */\n      mstore\n        /* \"#utility.yul\":21234:21365   */\n      tag_509\n        /* \"#utility.yul\":21360:21364   */\n      dup2\n        /* \"#utility.yul\":21234:21365   */\n      tag_338\n      jump\t// in\n    tag_509:\n        /* \"#utility.yul\":21226:21365   */\n      swap1\n      pop\n        /* \"#utility.yul\":20953:21372   */\n      swap2\n      swap1\n      pop\n      jump\t// out\n        /* \"#utility.yul\":21378:21544   */\n    tag_339:\n        /* \"#utility.yul\":21518:21536   */\n      0x5061757361626c653a2070617573656400000000000000000000000000000000\n        /* \"#utility.yul\":21514:21515   */\n      0x00\n        /* \"#utility.yul\":21506:21512   */\n      dup3\n        /* \"#utility.yul\":21502:21516   */\n      add\n        /* \"#utility.yul\":21495:21537   */\n      mstore\n        /* \"#utility.yul\":21378:21544   */\n      pop\n      jump\t// out\n        /* \"#utility.yul\":21550:21916   */\n    tag_340:\n        /* \"#utility.yul\":21692:21695   */\n      0x00\n        /* \"#utility.yul\":21713:21780   */\n      tag_512\n        /* \"#utility.yul\":21777:21779   */\n      0x10\n        /* \"#utility.yul\":21772:21775   */\n      dup4\n        /* \"#utility.yul\":21713:21780   */\n      tag_289\n      jump\t// in\n    tag_512:\n        /* \"#utility.yul\":21706:21780   */\n      swap2\n      pop\n        /* \"#utility.yul\":21789:21882   */\n      tag_513\n        /* \"#utility.yul\":21878:21881   */\n      dup3\n        /* \"#utility.yul\":21789:21882   */\n      tag_339\n      jump\t// in\n    tag_513:\n        /* \"#utility.yul\":21907:21909   */\n      0x20\n        /* \"#utility.yul\":21902:21905   */\n      dup3\n        /* \"#utility.yul\":21898:21910   */\n      add\n        /* \"#utility.yul\":21891:21910   */\n      swap1\n      pop\n        /* \"#utility.yul\":21550:21916   */\n      swap2\n      swap1\n      pop\n      jump\t// out\n        /* \"#utility.yul\":21922:22341   */\n    tag_286:\n        /* \"#utility.yul\":22088:22092   */\n      0x00\n        /* \"#utility.yul\":22126:22128   */\n      0x20\n        /* \"#utility.yul\":22115:22124   */\n      dup3\n        /* \"#utility.yul\":22111:22129   */\n      add\n        /* \"#utility.yul\":22103:22129   */\n      swap1\n      pop\n        /* \"#utility.yul\":22175:22184   */\n      dup2\n        /* \"#utility.yul\":22169:22173   */\n      dup2\n        /* \"#utility.yul\":22165:22185   */\n      sub\n        /* \"#utility.yul\":22161:22162   */\n      0x00\n        /* \"#utility.yul\":22150:22159   */\n      dup4\n        /* \"#utility.yul\":22146:22163   */\n      add\n        /* \"#utility.yul\":22139:22186   */\n      mstore\n        /* \"#utility.yul\":22203:22334   */\n      tag_515\n        /* \"#utility.yul\":22329:22333   */\n      dup2\n        /* \"#utility.yul\":22203:22334   */\n      tag_340\n      jump\t// in\n    tag_515:\n        /* \"#utility.yul\":22195:22334   */\n      swap1\n      pop\n        /* \"#utility.yul\":21922:22341   */\n      swap2\n      swap1\n      pop\n      jump\t// out\n\n    auxdata: 0xa26469706673582212200746783b249b9b434836faa30987e10aadc7df1fc2d28fb8bcb5ad156f277c6664736f6c63430008120033\n}\n",
				"bytecode": {
					"linkReferences": {},
					"object": "60806040523480156200001157600080fd5b506040518060400160405280601181526020017f4772696d6163654d616e64616c614e46540000000000000000000000000000008152506040518060400160405280600381526020017f4d544b000000000000000000000000000000000000000000000000000000000081525081600390816200008f91906200042d565b508060049081620000a191906200042d565b5050506000600560006101000a81548160ff021916908315150217905550620000df620000d3620000e560201b60201c565b620000ed60201b60201c565b62000514565b600033905090565b6000600560019054906101000a900473ffffffffffffffffffffffffffffffffffffffff16905081600560016101000a81548173ffffffffffffffffffffffffffffffffffffffff021916908373ffffffffffffffffffffffffffffffffffffffff1602179055508173ffffffffffffffffffffffffffffffffffffffff168173ffffffffffffffffffffffffffffffffffffffff167f8be0079c531659141344cd1fd0a4f28419497f9722a3daafe3b4186f6b6457e060405160405180910390a35050565b600081519050919050565b7f4e487b7100000000000000000000000000000000000000000000000000000000600052604160045260246000fd5b7f4e487b7100000000000000000000000000000000000000000000000000000000600052602260045260246000fd5b600060028204905060018216806200023557607f821691505b6020821081036200024b576200024a620001ed565b5b50919050565b60008190508160005260206000209050919050565b60006020601f8301049050919050565b600082821b905092915050565b600060088302620002b57fffffffffffffffffffffffffffffffffffffffffffffffffffffffffffffffff8262000276565b620002c1868362000276565b95508019841693508086168417925050509392505050565b6000819050919050565b6000819050919050565b60006200030e620003086200030284620002d9565b620002e3565b620002d9565b9050919050565b6000819050919050565b6200032a83620002ed565b62000342620003398262000315565b84845462000283565b825550505050565b600090565b620003596200034a565b620003668184846200031f565b505050565b5b818110156200038e57620003826000826200034f565b6001810190506200036c565b5050565b601f821115620003dd57620003a78162000251565b620003b28462000266565b81016020851015620003c2578190505b620003da620003d18562000266565b8301826200036b565b50505b505050565b600082821c905092915050565b60006200040260001984600802620003e2565b1980831691505092915050565b60006200041d8383620003ef565b9150826002028217905092915050565b6200043882620001b3565b67ffffffffffffffff811115620004545762000453620001be565b5b6200046082546200021c565b6200046d82828562000392565b600060209050601f831160018114620004a5576000841562000490578287015190505b6200049c85826200040f565b8655506200050c565b601f198416620004b58662000251565b60005b82811015620004df57848901518255600182019150602085019450602081019050620004b8565b86831015620004ff5784890151620004fb601f891682620003ef565b8355505b6001600288020188555050505b505050505050565b611ff580620005246000396000f3fe608060405234801561001057600080fd5b50600436106101425760003560e01c80635c975abb116100b85780638da5cb5b1161007c5780638da5cb5b1461035157806395d89b411461036f578063a457c2d71461038d578063a9059cbb146103bd578063dd62ed3e146103ed578063f2fde38b1461041d57610142565b80635c975abb146102d357806370a08231146102f1578063715018a61461032157806379cc67901461032b5780638456cb591461034757610142565b8063313ce5671161010a578063313ce5671461021357806339509351146102315780633f4ba83a1461026157806340c10f191461026b57806342966c68146102875780634f6ccce7146102a357610142565b806306fdde0314610147578063095ea7b31461016557806318160ddd1461019557806323b872dd146101b35780632f745c59146101e3575b600080fd5b61014f610439565b60405161015c91906114a9565b60405180910390f35b61017f600480360381019061017a9190611564565b6104cb565b60405161018c91906115bf565b60405180910390f35b61019d6104ee565b6040516101aa91906115e9565b60405180910390f35b6101cd60048036038101906101c89190611604565b6104f8565b6040516101da91906115bf565b60405180910390f35b6101fd60048036038101906101f89190611564565b610527565b60405161020a91906115e9565b60405180910390f35b61021b610584565b6040516102289190611673565b60405180910390f35b61024b60048036038101906102469190611564565b61058d565b60405161025891906115bf565b60405180910390f35b6102696105c4565b005b61028560048036038101906102809190611564565b6105d6565b005b6102a1600480360381019061029c919061168e565b6105ec565b005b6102bd60048036038101906102b8919061168e565b610600565b6040516102ca91906115e9565b60405180910390f35b6102db61065f565b6040516102e891906115bf565b60405180910390f35b61030b600480360381019061030691906116bb565b610676565b60405161031891906115e9565b60405180910390f35b6103296106be565b005b61034560048036038101906103409190611564565b6106d2565b005b61034f6106f2565b005b610359610704565b60405161036691906116f7565b60405180910390f35b61037761072e565b60405161038491906114a9565b60405180910390f35b6103a760048036038101906103a29190611564565b6107c0565b6040516103b491906115bf565b60405180910390f35b6103d760048036038101906103d29190611564565b610837565b6040516103e491906115bf565b60405180910390f35b61040760048036038101906104029190611712565b61085a565b60405161041491906115e9565b60405180910390f35b610437600480360381019061043291906116bb565b6108e1565b005b60606003805461044890611781565b80601f016020809104026020016040519081016040528092919081815260200182805461047490611781565b80156104c15780601f10610496576101008083540402835291602001916104c1565b820191906000526020600020905b8154815290600101906020018083116104a457829003601f168201915b5050505050905090565b6000806104d6610964565b90506104e381858561096c565b600191505092915050565b6000600254905090565b600080610503610964565b9050610510858285610b35565b61051b858585610bc1565b60019150509392505050565b600061053283610676565b8210610573576040517f08c379a000000000000000000000000000000000000000000000000000000000815260040161056a906117fe565b60405180910390fd5b61057c82610600565b905092915050565b60006012905090565b600080610598610964565b90506105b98185856105aa858961085a565b6105b4919061184d565b61096c565b600191505092915050565b6105cc610e37565b6105d4610eb5565b565b6105de610e37565b6105e88282610f18565b5050565b6105fd6105f7610964565b8261106e565b50565b600061060a6104ee565b821061064b576040517f08c379a0000000000000000000000000000000000000000000000000000000008152600401610642906117fe565b60405180910390fd5b600182610658919061184d565b9050919050565b6000600560009054906101000a900460ff16905090565b60008060008373ffffffffffffffffffffffffffffffffffffffff1673ffffffffffffffffffffffffffffffffffffffff168152602001908152602001600020549050919050565b6106c6610e37565b6106d0600061123b565b565b6106e4826106de610964565b83610b35565b6106ee828261106e565b5050565b6106fa610e37565b610702611301565b565b6000600560019054906101000a900473ffffffffffffffffffffffffffffffffffffffff16905090565b60606004805461073d90611781565b80601f016020809104026020016040519081016040528092919081815260200182805461076990611781565b80156107b65780601f1061078b576101008083540402835291602001916107b6565b820191906000526020600020905b81548152906001019060200180831161079957829003601f168201915b5050505050905090565b6000806107cb610964565b905060006107d9828661085a565b90508381101561081e576040517f08c379a0000000000000000000000000000000000000000000000000000000008152600401610815906118f3565b60405180910390fd5b61082b828686840361096c565b60019250505092915050565b600080610842610964565b905061084f818585610bc1565b600191505092915050565b6000600160008473ffffffffffffffffffffffffffffffffffffffff1673ffffffffffffffffffffffffffffffffffffffff16815260200190815260200160002060008373ffffffffffffffffffffffffffffffffffffffff1673ffffffffffffffffffffffffffffffffffffffff16815260200190815260200160002054905092915050565b6108e9610e37565b600073ffffffffffffffffffffffffffffffffffffffff168173ffffffffffffffffffffffffffffffffffffffff1603610958576040517f08c379a000000000000000000000000000000000000000000000000000000000815260040161094f90611985565b60405180910390fd5b6109618161123b565b50565b600033905090565b600073ffffffffffffffffffffffffffffffffffffffff168373ffffffffffffffffffffffffffffffffffffffff16036109db576040517f08c379a00000000000000000000000000000000000000000000000000000000081526004016109d290611a17565b60405180910390fd5b600073ffffffffffffffffffffffffffffffffffffffff168273ffffffffffffffffffffffffffffffffffffffff1603610a4a576040517f08c379a0000000000000000000000000000000000000000000000000000000008152600401610a4190611aa9565b60405180910390fd5b80600160008573ffffffffffffffffffffffffffffffffffffffff1673ffffffffffffffffffffffffffffffffffffffff16815260200190815260200160002060008473ffffffffffffffffffffffffffffffffffffffff1673ffffffffffffffffffffffffffffffffffffffff168152602001908152602001600020819055508173ffffffffffffffffffffffffffffffffffffffff168373ffffffffffffffffffffffffffffffffffffffff167f8c5be1e5ebec7d5bd14f71427d1e84f3dd0314c0f7b2291e5b200ac8c7c3b92583604051610b2891906115e9565b60405180910390a3505050565b6000610b41848461085a565b90507fffffffffffffffffffffffffffffffffffffffffffffffffffffffffffffffff8114610bbb5781811015610bad576040517f08c379a0000000000000000000000000000000000000000000000000000000008152600401610ba490611b15565b60405180910390fd5b610bba848484840361096c565b5b50505050565b600073ffffffffffffffffffffffffffffffffffffffff168373ffffffffffffffffffffffffffffffffffffffff1603610c30576040517f08c379a0000000000000000000000000000000000000000000000000000000008152600401610c2790611ba7565b60405180910390fd5b600073ffffffffffffffffffffffffffffffffffffffff168273ffffffffffffffffffffffffffffffffffffffff1603610c9f576040517f08c379a0000000000000000000000000000000000000000000000000000000008152600401610c9690611c39565b60405180910390fd5b610caa838383611364565b60008060008573ffffffffffffffffffffffffffffffffffffffff1673ffffffffffffffffffffffffffffffffffffffff16815260200190815260200160002054905081811015610d30576040517f08c379a0000000000000000000000000000000000000000000000000000000008152600401610d2790611ccb565b60405180910390fd5b8181036000808673ffffffffffffffffffffffffffffffffffffffff1673ffffffffffffffffffffffffffffffffffffffff16815260200190815260200160002081905550816000808573ffffffffffffffffffffffffffffffffffffffff1673ffffffffffffffffffffffffffffffffffffffff168152602001908152602001600020600082825401925050819055508273ffffffffffffffffffffffffffffffffffffffff168473ffffffffffffffffffffffffffffffffffffffff167fddf252ad1be2c89b69c2b068fc378daa952ba7f163c4a11628f55a4df523b3ef84604051610e1e91906115e9565b60405180910390a3610e3184848461137c565b50505050565b610e3f610964565b73ffffffffffffffffffffffffffffffffffffffff16610e5d610704565b73ffffffffffffffffffffffffffffffffffffffff1614610eb3576040517f08c379a0000000000000000000000000000000000000000000000000000000008152600401610eaa90611d37565b60405180910390fd5b565b610ebd611381565b6000600560006101000a81548160ff0219169083151502179055507f5db9ee0a495bf2e6ff9c91a7834c1ba4fdd244a5e8aa4e537bd38aeae4b073aa610f01610964565b604051610f0e91906116f7565b60405180910390a1565b600073ffffffffffffffffffffffffffffffffffffffff168273ffffffffffffffffffffffffffffffffffffffff1603610f87576040517f08c379a0000000000000000000000000000000000000000000000000000000008152600401610f7e90611da3565b60405180910390fd5b610f9360008383611364565b8060026000828254610fa5919061184d565b92505081905550806000808473ffffffffffffffffffffffffffffffffffffffff1673ffffffffffffffffffffffffffffffffffffffff168152602001908152602001600020600082825401925050819055508173ffffffffffffffffffffffffffffffffffffffff16600073ffffffffffffffffffffffffffffffffffffffff167fddf252ad1be2c89b69c2b068fc378daa952ba7f163c4a11628f55a4df523b3ef8360405161105691906115e9565b60405180910390a361106a6000838361137c565b5050565b600073ffffffffffffffffffffffffffffffffffffffff168273ffffffffffffffffffffffffffffffffffffffff16036110dd576040517f08c379a00000000000000000000000000000000000000000000000000000000081526004016110d490611e35565b60405180910390fd5b6110e982600083611364565b60008060008473ffffffffffffffffffffffffffffffffffffffff1673ffffffffffffffffffffffffffffffffffffffff1681526020019081526020016000205490508181101561116f576040517f08c379a000000000000000000000000000000000000000000000000000000000815260040161116690611ec7565b60405180910390fd5b8181036000808573ffffffffffffffffffffffffffffffffffffffff1673ffffffffffffffffffffffffffffffffffffffff1681526020019081526020016000208190555081600260008282540392505081905550600073ffffffffffffffffffffffffffffffffffffffff168373ffffffffffffffffffffffffffffffffffffffff167fddf252ad1be2c89b69c2b068fc378daa952ba7f163c4a11628f55a4df523b3ef8460405161122291906115e9565b60405180910390a36112368360008461137c565b505050565b6000600560019054906101000a900473ffffffffffffffffffffffffffffffffffffffff16905081600560016101000a81548173ffffffffffffffffffffffffffffffffffffffff021916908373ffffffffffffffffffffffffffffffffffffffff1602179055508173ffffffffffffffffffffffffffffffffffffffff168173ffffffffffffffffffffffffffffffffffffffff167f8be0079c531659141344cd1fd0a4f28419497f9722a3daafe3b4186f6b6457e060405160405180910390a35050565b6113096113ca565b6001600560006101000a81548160ff0219169083151502179055507f62e78cea01bee320cd4e420270b5ea74000d11b0c9f74754ebdbfc544b05a25861134d610964565b60405161135a91906116f7565b60405180910390a1565b61136c6113ca565b611377838383611414565b505050565b505050565b61138961065f565b6113c8576040517f08c379a00000000000000000000000000000000000000000000000000000000081526004016113bf90611f33565b60405180910390fd5b565b6113d261065f565b15611412576040517f08c379a000000000000000000000000000000000000000000000000000000000815260040161140990611f9f565b60405180910390fd5b565b505050565b600081519050919050565b600082825260208201905092915050565b60005b83811015611453578082015181840152602081019050611438565b60008484015250505050565b6000601f19601f8301169050919050565b600061147b82611419565b6114858185611424565b9350611495818560208601611435565b61149e8161145f565b840191505092915050565b600060208201905081810360008301526114c38184611470565b905092915050565b600080fd5b600073ffffffffffffffffffffffffffffffffffffffff82169050919050565b60006114fb826114d0565b9050919050565b61150b816114f0565b811461151657600080fd5b50565b60008135905061152881611502565b92915050565b6000819050919050565b6115418161152e565b811461154c57600080fd5b50565b60008135905061155e81611538565b92915050565b6000806040838503121561157b5761157a6114cb565b5b600061158985828601611519565b925050602061159a8582860161154f565b9150509250929050565b60008115159050919050565b6115b9816115a4565b82525050565b60006020820190506115d460008301846115b0565b92915050565b6115e38161152e565b82525050565b60006020820190506115fe60008301846115da565b92915050565b60008060006060848603121561161d5761161c6114cb565b5b600061162b86828701611519565b935050602061163c86828701611519565b925050604061164d8682870161154f565b9150509250925092565b600060ff82169050919050565b61166d81611657565b82525050565b60006020820190506116886000830184611664565b92915050565b6000602082840312156116a4576116a36114cb565b5b60006116b28482850161154f565b91505092915050565b6000602082840312156116d1576116d06114cb565b5b60006116df84828501611519565b91505092915050565b6116f1816114f0565b82525050565b600060208201905061170c60008301846116e8565b92915050565b60008060408385031215611729576117286114cb565b5b600061173785828601611519565b925050602061174885828601611519565b9150509250929050565b7f4e487b7100000000000000000000000000000000000000000000000000000000600052602260045260246000fd5b6000600282049050600182168061179957607f821691505b6020821081036117ac576117ab611752565b5b50919050565b7f496e76616c696420746f6b656e20696e64657800000000000000000000000000600082015250565b60006117e8601383611424565b91506117f3826117b2565b602082019050919050565b60006020820190508181036000830152611817816117db565b9050919050565b7f4e487b7100000000000000000000000000000000000000000000000000000000600052601160045260246000fd5b60006118588261152e565b91506118638361152e565b925082820190508082111561187b5761187a61181e565b5b92915050565b7f45524332303a2064656372656173656420616c6c6f77616e63652062656c6f7760008201527f207a65726f000000000000000000000000000000000000000000000000000000602082015250565b60006118dd602583611424565b91506118e882611881565b604082019050919050565b6000602082019050818103600083015261190c816118d0565b9050919050565b7f4f776e61626c653a206e6577206f776e657220697320746865207a65726f206160008201527f6464726573730000000000000000000000000000000000000000000000000000602082015250565b600061196f602683611424565b915061197a82611913565b604082019050919050565b6000602082019050818103600083015261199e81611962565b9050919050565b7f45524332303a20617070726f76652066726f6d20746865207a65726f2061646460008201527f7265737300000000000000000000000000000000000000000000000000000000602082015250565b6000611a01602483611424565b9150611a0c826119a5565b604082019050919050565b60006020820190508181036000830152611a30816119f4565b9050919050565b7f45524332303a20617070726f766520746f20746865207a65726f20616464726560008201527f7373000000000000000000000000000000000000000000000000000000000000602082015250565b6000611a93602283611424565b9150611a9e82611a37565b604082019050919050565b60006020820190508181036000830152611ac281611a86565b9050919050565b7f45524332303a20696e73756666696369656e7420616c6c6f77616e6365000000600082015250565b6000611aff601d83611424565b9150611b0a82611ac9565b602082019050919050565b60006020820190508181036000830152611b2e81611af2565b9050919050565b7f45524332303a207472616e736665722066726f6d20746865207a65726f20616460008201527f6472657373000000000000000000000000000000000000000000000000000000602082015250565b6000611b91602583611424565b9150611b9c82611b35565b604082019050919050565b60006020820190508181036000830152611bc081611b84565b9050919050565b7f45524332303a207472616e7366657220746f20746865207a65726f206164647260008201527f6573730000000000000000000000000000000000000000000000000000000000602082015250565b6000611c23602383611424565b9150611c2e82611bc7565b604082019050919050565b60006020820190508181036000830152611c5281611c16565b9050919050565b7f45524332303a207472616e7366657220616d6f756e742065786365656473206260008201527f616c616e63650000000000000000000000000000000000000000000000000000602082015250565b6000611cb5602683611424565b9150611cc082611c59565b604082019050919050565b60006020820190508181036000830152611ce481611ca8565b9050919050565b7f4f776e61626c653a2063616c6c6572206973206e6f7420746865206f776e6572600082015250565b6000611d21602083611424565b9150611d2c82611ceb565b602082019050919050565b60006020820190508181036000830152611d5081611d14565b9050919050565b7f45524332303a206d696e7420746f20746865207a65726f206164647265737300600082015250565b6000611d8d601f83611424565b9150611d9882611d57565b602082019050919050565b60006020820190508181036000830152611dbc81611d80565b9050919050565b7f45524332303a206275726e2066726f6d20746865207a65726f2061646472657360008201527f7300000000000000000000000000000000000000000000000000000000000000602082015250565b6000611e1f602183611424565b9150611e2a82611dc3565b604082019050919050565b60006020820190508181036000830152611e4e81611e12565b9050919050565b7f45524332303a206275726e20616d6f756e7420657863656564732062616c616e60008201527f6365000000000000000000000000000000000000000000000000000000000000602082015250565b6000611eb1602283611424565b9150611ebc82611e55565b604082019050919050565b60006020820190508181036000830152611ee081611ea4565b9050919050565b7f5061757361626c653a206e6f7420706175736564000000000000000000000000600082015250565b6000611f1d601483611424565b9150611f2882611ee7565b602082019050919050565b60006020820190508181036000830152611f4c81611f10565b9050919050565b7f5061757361626c653a2070617573656400000000000000000000000000000000600082015250565b6000611f89601083611424565b9150611f9482611f53565b602082019050919050565b60006020820190508181036000830152611fb881611f7c565b905091905056fea26469706673582212200746783b249b9b434836faa30987e10aadc7df1fc2d28fb8bcb5ad156f277c6664736f6c63430008120033",
					"opcodes": "PUSH1 0x80 PUSH1 0x40 MSTORE CALLVALUE DUP1 ISZERO PUSH3 0x11 JUMPI PUSH1 0x0 DUP1 REVERT JUMPDEST POP PUSH1 0x40 MLOAD DUP1 PUSH1 0x40 ADD PUSH1 0x40 MSTORE DUP1 PUSH1 0x11 DUP2 MSTORE PUSH1 0x20 ADD PUSH32 0x4772696D6163654D616E64616C614E4654000000000000000000000000000000 DUP2 MSTORE POP PUSH1 0x40 MLOAD DUP1 PUSH1 0x40 ADD PUSH1 0x40 MSTORE DUP1 PUSH1 0x3 DUP2 MSTORE PUSH1 0x20 ADD PUSH32 0x4D544B0000000000000000000000000000000000000000000000000000000000 DUP2 MSTORE POP DUP2 PUSH1 0x3 SWAP1 DUP2 PUSH3 0x8F SWAP2 SWAP1 PUSH3 0x42D JUMP JUMPDEST POP DUP1 PUSH1 0x4 SWAP1 DUP2 PUSH3 0xA1 SWAP2 SWAP1 PUSH3 0x42D JUMP JUMPDEST POP POP POP PUSH1 0x0 PUSH1 0x5 PUSH1 0x0 PUSH2 0x100 EXP DUP2 SLOAD DUP2 PUSH1 0xFF MUL NOT AND SWAP1 DUP4 ISZERO ISZERO MUL OR SWAP1 SSTORE POP PUSH3 0xDF PUSH3 0xD3 PUSH3 0xE5 PUSH1 0x20 SHL PUSH1 0x20 SHR JUMP JUMPDEST PUSH3 0xED PUSH1 0x20 SHL PUSH1 0x20 SHR JUMP JUMPDEST PUSH3 0x514 JUMP JUMPDEST PUSH1 0x0 CALLER SWAP1 POP SWAP1 JUMP JUMPDEST PUSH1 0x0 PUSH1 0x5 PUSH1 0x1 SWAP1 SLOAD SWAP1 PUSH2 0x100 EXP SWAP1 DIV PUSH20 0xFFFFFFFFFFFFFFFFFFFFFFFFFFFFFFFFFFFFFFFF AND SWAP1 POP DUP2 PUSH1 0x5 PUSH1 0x1 PUSH2 0x100 EXP DUP2 SLOAD DUP2 PUSH20 0xFFFFFFFFFFFFFFFFFFFFFFFFFFFFFFFFFFFFFFFF MUL NOT AND SWAP1 DUP4 PUSH20 0xFFFFFFFFFFFFFFFFFFFFFFFFFFFFFFFFFFFFFFFF AND MUL OR SWAP1 SSTORE POP DUP2 PUSH20 0xFFFFFFFFFFFFFFFFFFFFFFFFFFFFFFFFFFFFFFFF AND DUP2 PUSH20 0xFFFFFFFFFFFFFFFFFFFFFFFFFFFFFFFFFFFFFFFF AND PUSH32 0x8BE0079C531659141344CD1FD0A4F28419497F9722A3DAAFE3B4186F6B6457E0 PUSH1 0x40 MLOAD PUSH1 0x40 MLOAD DUP1 SWAP2 SUB SWAP1 LOG3 POP POP JUMP JUMPDEST PUSH1 0x0 DUP2 MLOAD SWAP1 POP SWAP2 SWAP1 POP JUMP JUMPDEST PUSH32 0x4E487B7100000000000000000000000000000000000000000000000000000000 PUSH1 0x0 MSTORE PUSH1 0x41 PUSH1 0x4 MSTORE PUSH1 0x24 PUSH1 0x0 REVERT JUMPDEST PUSH32 0x4E487B7100000000000000000000000000000000000000000000000000000000 PUSH1 0x0 MSTORE PUSH1 0x22 PUSH1 0x4 MSTORE PUSH1 0x24 PUSH1 0x0 REVERT JUMPDEST PUSH1 0x0 PUSH1 0x2 DUP3 DIV SWAP1 POP PUSH1 0x1 DUP3 AND DUP1 PUSH3 0x235 JUMPI PUSH1 0x7F DUP3 AND SWAP2 POP JUMPDEST PUSH1 0x20 DUP3 LT DUP2 SUB PUSH3 0x24B JUMPI PUSH3 0x24A PUSH3 0x1ED JUMP JUMPDEST JUMPDEST POP SWAP2 SWAP1 POP JUMP JUMPDEST PUSH1 0x0 DUP2 SWAP1 POP DUP2 PUSH1 0x0 MSTORE PUSH1 0x20 PUSH1 0x0 KECCAK256 SWAP1 POP SWAP2 SWAP1 POP JUMP JUMPDEST PUSH1 0x0 PUSH1 0x20 PUSH1 0x1F DUP4 ADD DIV SWAP1 POP SWAP2 SWAP1 POP JUMP JUMPDEST PUSH1 0x0 DUP3 DUP3 SHL SWAP1 POP SWAP3 SWAP2 POP POP JUMP JUMPDEST PUSH1 0x0 PUSH1 0x8 DUP4 MUL PUSH3 0x2B5 PUSH32 0xFFFFFFFFFFFFFFFFFFFFFFFFFFFFFFFFFFFFFFFFFFFFFFFFFFFFFFFFFFFFFFFF DUP3 PUSH3 0x276 JUMP JUMPDEST PUSH3 0x2C1 DUP7 DUP4 PUSH3 0x276 JUMP JUMPDEST SWAP6 POP DUP1 NOT DUP5 AND SWAP4 POP DUP1 DUP7 AND DUP5 OR SWAP3 POP POP POP SWAP4 SWAP3 POP POP POP JUMP JUMPDEST PUSH1 0x0 DUP2 SWAP1 POP SWAP2 SWAP1 POP JUMP JUMPDEST PUSH1 0x0 DUP2 SWAP1 POP SWAP2 SWAP1 POP JUMP JUMPDEST PUSH1 0x0 PUSH3 0x30E PUSH3 0x308 PUSH3 0x302 DUP5 PUSH3 0x2D9 JUMP JUMPDEST PUSH3 0x2E3 JUMP JUMPDEST PUSH3 0x2D9 JUMP JUMPDEST SWAP1 POP SWAP2 SWAP1 POP JUMP JUMPDEST PUSH1 0x0 DUP2 SWAP1 POP SWAP2 SWAP1 POP JUMP JUMPDEST PUSH3 0x32A DUP4 PUSH3 0x2ED JUMP JUMPDEST PUSH3 0x342 PUSH3 0x339 DUP3 PUSH3 0x315 JUMP JUMPDEST DUP5 DUP5 SLOAD PUSH3 0x283 JUMP JUMPDEST DUP3 SSTORE POP POP POP POP JUMP JUMPDEST PUSH1 0x0 SWAP1 JUMP JUMPDEST PUSH3 0x359 PUSH3 0x34A JUMP JUMPDEST PUSH3 0x366 DUP2 DUP5 DUP5 PUSH3 0x31F JUMP JUMPDEST POP POP POP JUMP JUMPDEST JUMPDEST DUP2 DUP2 LT ISZERO PUSH3 0x38E JUMPI PUSH3 0x382 PUSH1 0x0 DUP3 PUSH3 0x34F JUMP JUMPDEST PUSH1 0x1 DUP2 ADD SWAP1 POP PUSH3 0x36C JUMP JUMPDEST POP POP JUMP JUMPDEST PUSH1 0x1F DUP3 GT ISZERO PUSH3 0x3DD JUMPI PUSH3 0x3A7 DUP2 PUSH3 0x251 JUMP JUMPDEST PUSH3 0x3B2 DUP5 PUSH3 0x266 JUMP JUMPDEST DUP2 ADD PUSH1 0x20 DUP6 LT ISZERO PUSH3 0x3C2 JUMPI DUP2 SWAP1 POP JUMPDEST PUSH3 0x3DA PUSH3 0x3D1 DUP6 PUSH3 0x266 JUMP JUMPDEST DUP4 ADD DUP3 PUSH3 0x36B JUMP JUMPDEST POP POP JUMPDEST POP POP POP JUMP JUMPDEST PUSH1 0x0 DUP3 DUP3 SHR SWAP1 POP SWAP3 SWAP2 POP POP JUMP JUMPDEST PUSH1 0x0 PUSH3 0x402 PUSH1 0x0 NOT DUP5 PUSH1 0x8 MUL PUSH3 0x3E2 JUMP JUMPDEST NOT DUP1 DUP4 AND SWAP2 POP POP SWAP3 SWAP2 POP POP JUMP JUMPDEST PUSH1 0x0 PUSH3 0x41D DUP4 DUP4 PUSH3 0x3EF JUMP JUMPDEST SWAP2 POP DUP3 PUSH1 0x2 MUL DUP3 OR SWAP1 POP SWAP3 SWAP2 POP POP JUMP JUMPDEST PUSH3 0x438 DUP3 PUSH3 0x1B3 JUMP JUMPDEST PUSH8 0xFFFFFFFFFFFFFFFF DUP2 GT ISZERO PUSH3 0x454 JUMPI PUSH3 0x453 PUSH3 0x1BE JUMP JUMPDEST JUMPDEST PUSH3 0x460 DUP3 SLOAD PUSH3 0x21C JUMP JUMPDEST PUSH3 0x46D DUP3 DUP3 DUP6 PUSH3 0x392 JUMP JUMPDEST PUSH1 0x0 PUSH1 0x20 SWAP1 POP PUSH1 0x1F DUP4 GT PUSH1 0x1 DUP2 EQ PUSH3 0x4A5 JUMPI PUSH1 0x0 DUP5 ISZERO PUSH3 0x490 JUMPI DUP3 DUP8 ADD MLOAD SWAP1 POP JUMPDEST PUSH3 0x49C DUP6 DUP3 PUSH3 0x40F JUMP JUMPDEST DUP7 SSTORE POP PUSH3 0x50C JUMP JUMPDEST PUSH1 0x1F NOT DUP5 AND PUSH3 0x4B5 DUP7 PUSH3 0x251 JUMP JUMPDEST PUSH1 0x0 JUMPDEST DUP3 DUP2 LT ISZERO PUSH3 0x4DF JUMPI DUP5 DUP10 ADD MLOAD DUP3 SSTORE PUSH1 0x1 DUP3 ADD SWAP2 POP PUSH1 0x20 DUP6 ADD SWAP5 POP PUSH1 0x20 DUP2 ADD SWAP1 POP PUSH3 0x4B8 JUMP JUMPDEST DUP7 DUP4 LT ISZERO PUSH3 0x4FF JUMPI DUP5 DUP10 ADD MLOAD PUSH3 0x4FB PUSH1 0x1F DUP10 AND DUP3 PUSH3 0x3EF JUMP JUMPDEST DUP4 SSTORE POP JUMPDEST PUSH1 0x1 PUSH1 0x2 DUP9 MUL ADD DUP9 SSTORE POP POP POP JUMPDEST POP POP POP POP POP POP JUMP JUMPDEST PUSH2 0x1FF5 DUP1 PUSH3 0x524 PUSH1 0x0 CODECOPY PUSH1 0x0 RETURN INVALID PUSH1 0x80 PUSH1 0x40 MSTORE CALLVALUE DUP1 ISZERO PUSH2 0x10 JUMPI PUSH1 0x0 DUP1 REVERT JUMPDEST POP PUSH1 0x4 CALLDATASIZE LT PUSH2 0x142 JUMPI PUSH1 0x0 CALLDATALOAD PUSH1 0xE0 SHR DUP1 PUSH4 0x5C975ABB GT PUSH2 0xB8 JUMPI DUP1 PUSH4 0x8DA5CB5B GT PUSH2 0x7C JUMPI DUP1 PUSH4 0x8DA5CB5B EQ PUSH2 0x351 JUMPI DUP1 PUSH4 0x95D89B41 EQ PUSH2 0x36F JUMPI DUP1 PUSH4 0xA457C2D7 EQ PUSH2 0x38D JUMPI DUP1 PUSH4 0xA9059CBB EQ PUSH2 0x3BD JUMPI DUP1 PUSH4 0xDD62ED3E EQ PUSH2 0x3ED JUMPI DUP1 PUSH4 0xF2FDE38B EQ PUSH2 0x41D JUMPI PUSH2 0x142 JUMP JUMPDEST DUP1 PUSH4 0x5C975ABB EQ PUSH2 0x2D3 JUMPI DUP1 PUSH4 0x70A08231 EQ PUSH2 0x2F1 JUMPI DUP1 PUSH4 0x715018A6 EQ PUSH2 0x321 JUMPI DUP1 PUSH4 0x79CC6790 EQ PUSH2 0x32B JUMPI DUP1 PUSH4 0x8456CB59 EQ PUSH2 0x347 JUMPI PUSH2 0x142 JUMP JUMPDEST DUP1 PUSH4 0x313CE567 GT PUSH2 0x10A JUMPI DUP1 PUSH4 0x313CE567 EQ PUSH2 0x213 JUMPI DUP1 PUSH4 0x39509351 EQ PUSH2 0x231 JUMPI DUP1 PUSH4 0x3F4BA83A EQ PUSH2 0x261 JUMPI DUP1 PUSH4 0x40C10F19 EQ PUSH2 0x26B JUMPI DUP1 PUSH4 0x42966C68 EQ PUSH2 0x287 JUMPI DUP1 PUSH4 0x4F6CCCE7 EQ PUSH2 0x2A3 JUMPI PUSH2 0x142 JUMP JUMPDEST DUP1 PUSH4 0x6FDDE03 EQ PUSH2 0x147 JUMPI DUP1 PUSH4 0x95EA7B3 EQ PUSH2 0x165 JUMPI DUP1 PUSH4 0x18160DDD EQ PUSH2 0x195 JUMPI DUP1 PUSH4 0x23B872DD EQ PUSH2 0x1B3 JUMPI DUP1 PUSH4 0x2F745C59 EQ PUSH2 0x1E3 JUMPI JUMPDEST PUSH1 0x0 DUP1 REVERT JUMPDEST PUSH2 0x14F PUSH2 0x439 JUMP JUMPDEST PUSH1 0x40 MLOAD PUSH2 0x15C SWAP2 SWAP1 PUSH2 0x14A9 JUMP JUMPDEST PUSH1 0x40 MLOAD DUP1 SWAP2 SUB SWAP1 RETURN JUMPDEST PUSH2 0x17F PUSH1 0x4 DUP1 CALLDATASIZE SUB DUP2 ADD SWAP1 PUSH2 0x17A SWAP2 SWAP1 PUSH2 0x1564 JUMP JUMPDEST PUSH2 0x4CB JUMP JUMPDEST PUSH1 0x40 MLOAD PUSH2 0x18C SWAP2 SWAP1 PUSH2 0x15BF JUMP JUMPDEST PUSH1 0x40 MLOAD DUP1 SWAP2 SUB SWAP1 RETURN JUMPDEST PUSH2 0x19D PUSH2 0x4EE JUMP JUMPDEST PUSH1 0x40 MLOAD PUSH2 0x1AA SWAP2 SWAP1 PUSH2 0x15E9 JUMP JUMPDEST PUSH1 0x40 MLOAD DUP1 SWAP2 SUB SWAP1 RETURN JUMPDEST PUSH2 0x1CD PUSH1 0x4 DUP1 CALLDATASIZE SUB DUP2 ADD SWAP1 PUSH2 0x1C8 SWAP2 SWAP1 PUSH2 0x1604 JUMP JUMPDEST PUSH2 0x4F8 JUMP JUMPDEST PUSH1 0x40 MLOAD PUSH2 0x1DA SWAP2 SWAP1 PUSH2 0x15BF JUMP JUMPDEST PUSH1 0x40 MLOAD DUP1 SWAP2 SUB SWAP1 RETURN JUMPDEST PUSH2 0x1FD PUSH1 0x4 DUP1 CALLDATASIZE SUB DUP2 ADD SWAP1 PUSH2 0x1F8 SWAP2 SWAP1 PUSH2 0x1564 JUMP JUMPDEST PUSH2 0x527 JUMP JUMPDEST PUSH1 0x40 MLOAD PUSH2 0x20A SWAP2 SWAP1 PUSH2 0x15E9 JUMP JUMPDEST PUSH1 0x40 MLOAD DUP1 SWAP2 SUB SWAP1 RETURN JUMPDEST PUSH2 0x21B PUSH2 0x584 JUMP JUMPDEST PUSH1 0x40 MLOAD PUSH2 0x228 SWAP2 SWAP1 PUSH2 0x1673 JUMP JUMPDEST PUSH1 0x40 MLOAD DUP1 SWAP2 SUB SWAP1 RETURN JUMPDEST PUSH2 0x24B PUSH1 0x4 DUP1 CALLDATASIZE SUB DUP2 ADD SWAP1 PUSH2 0x246 SWAP2 SWAP1 PUSH2 0x1564 JUMP JUMPDEST PUSH2 0x58D JUMP JUMPDEST PUSH1 0x40 MLOAD PUSH2 0x258 SWAP2 SWAP1 PUSH2 0x15BF JUMP JUMPDEST PUSH1 0x40 MLOAD DUP1 SWAP2 SUB SWAP1 RETURN JUMPDEST PUSH2 0x269 PUSH2 0x5C4 JUMP JUMPDEST STOP JUMPDEST PUSH2 0x285 PUSH1 0x4 DUP1 CALLDATASIZE SUB DUP2 ADD SWAP1 PUSH2 0x280 SWAP2 SWAP1 PUSH2 0x1564 JUMP JUMPDEST PUSH2 0x5D6 JUMP JUMPDEST STOP JUMPDEST PUSH2 0x2A1 PUSH1 0x4 DUP1 CALLDATASIZE SUB DUP2 ADD SWAP1 PUSH2 0x29C SWAP2 SWAP1 PUSH2 0x168E JUMP JUMPDEST PUSH2 0x5EC JUMP JUMPDEST STOP JUMPDEST PUSH2 0x2BD PUSH1 0x4 DUP1 CALLDATASIZE SUB DUP2 ADD SWAP1 PUSH2 0x2B8 SWAP2 SWAP1 PUSH2 0x168E JUMP JUMPDEST PUSH2 0x600 JUMP JUMPDEST PUSH1 0x40 MLOAD PUSH2 0x2CA SWAP2 SWAP1 PUSH2 0x15E9 JUMP JUMPDEST PUSH1 0x40 MLOAD DUP1 SWAP2 SUB SWAP1 RETURN JUMPDEST PUSH2 0x2DB PUSH2 0x65F JUMP JUMPDEST PUSH1 0x40 MLOAD PUSH2 0x2E8 SWAP2 SWAP1 PUSH2 0x15BF JUMP JUMPDEST PUSH1 0x40 MLOAD DUP1 SWAP2 SUB SWAP1 RETURN JUMPDEST PUSH2 0x30B PUSH1 0x4 DUP1 CALLDATASIZE SUB DUP2 ADD SWAP1 PUSH2 0x306 SWAP2 SWAP1 PUSH2 0x16BB JUMP JUMPDEST PUSH2 0x676 JUMP JUMPDEST PUSH1 0x40 MLOAD PUSH2 0x318 SWAP2 SWAP1 PUSH2 0x15E9 JUMP JUMPDEST PUSH1 0x40 MLOAD DUP1 SWAP2 SUB SWAP1 RETURN JUMPDEST PUSH2 0x329 PUSH2 0x6BE JUMP JUMPDEST STOP JUMPDEST PUSH2 0x345 PUSH1 0x4 DUP1 CALLDATASIZE SUB DUP2 ADD SWAP1 PUSH2 0x340 SWAP2 SWAP1 PUSH2 0x1564 JUMP JUMPDEST PUSH2 0x6D2 JUMP JUMPDEST STOP JUMPDEST PUSH2 0x34F PUSH2 0x6F2 JUMP JUMPDEST STOP JUMPDEST PUSH2 0x359 PUSH2 0x704 JUMP JUMPDEST PUSH1 0x40 MLOAD PUSH2 0x366 SWAP2 SWAP1 PUSH2 0x16F7 JUMP JUMPDEST PUSH1 0x40 MLOAD DUP1 SWAP2 SUB SWAP1 RETURN JUMPDEST PUSH2 0x377 PUSH2 0x72E JUMP JUMPDEST PUSH1 0x40 MLOAD PUSH2 0x384 SWAP2 SWAP1 PUSH2 0x14A9 JUMP JUMPDEST PUSH1 0x40 MLOAD DUP1 SWAP2 SUB SWAP1 RETURN JUMPDEST PUSH2 0x3A7 PUSH1 0x4 DUP1 CALLDATASIZE SUB DUP2 ADD SWAP1 PUSH2 0x3A2 SWAP2 SWAP1 PUSH2 0x1564 JUMP JUMPDEST PUSH2 0x7C0 JUMP JUMPDEST PUSH1 0x40 MLOAD PUSH2 0x3B4 SWAP2 SWAP1 PUSH2 0x15BF JUMP JUMPDEST PUSH1 0x40 MLOAD DUP1 SWAP2 SUB SWAP1 RETURN JUMPDEST PUSH2 0x3D7 PUSH1 0x4 DUP1 CALLDATASIZE SUB DUP2 ADD SWAP1 PUSH2 0x3D2 SWAP2 SWAP1 PUSH2 0x1564 JUMP JUMPDEST PUSH2 0x837 JUMP JUMPDEST PUSH1 0x40 MLOAD PUSH2 0x3E4 SWAP2 SWAP1 PUSH2 0x15BF JUMP JUMPDEST PUSH1 0x40 MLOAD DUP1 SWAP2 SUB SWAP1 RETURN JUMPDEST PUSH2 0x407 PUSH1 0x4 DUP1 CALLDATASIZE SUB DUP2 ADD SWAP1 PUSH2 0x402 SWAP2 SWAP1 PUSH2 0x1712 JUMP JUMPDEST PUSH2 0x85A JUMP JUMPDEST PUSH1 0x40 MLOAD PUSH2 0x414 SWAP2 SWAP1 PUSH2 0x15E9 JUMP JUMPDEST PUSH1 0x40 MLOAD DUP1 SWAP2 SUB SWAP1 RETURN JUMPDEST PUSH2 0x437 PUSH1 0x4 DUP1 CALLDATASIZE SUB DUP2 ADD SWAP1 PUSH2 0x432 SWAP2 SWAP1 PUSH2 0x16BB JUMP JUMPDEST PUSH2 0x8E1 JUMP JUMPDEST STOP JUMPDEST PUSH1 0x60 PUSH1 0x3 DUP1 SLOAD PUSH2 0x448 SWAP1 PUSH2 0x1781 JUMP JUMPDEST DUP1 PUSH1 0x1F ADD PUSH1 0x20 DUP1 SWAP2 DIV MUL PUSH1 0x20 ADD PUSH1 0x40 MLOAD SWAP1 DUP2 ADD PUSH1 0x40 MSTORE DUP1 SWAP3 SWAP2 SWAP1 DUP2 DUP2 MSTORE PUSH1 0x20 ADD DUP3 DUP1 SLOAD PUSH2 0x474 SWAP1 PUSH2 0x1781 JUMP JUMPDEST DUP1 ISZERO PUSH2 0x4C1 JUMPI DUP1 PUSH1 0x1F LT PUSH2 0x496 JUMPI PUSH2 0x100 DUP1 DUP4 SLOAD DIV MUL DUP4 MSTORE SWAP2 PUSH1 0x20 ADD SWAP2 PUSH2 0x4C1 JUMP JUMPDEST DUP3 ADD SWAP2 SWAP1 PUSH1 0x0 MSTORE PUSH1 0x20 PUSH1 0x0 KECCAK256 SWAP1 JUMPDEST DUP2 SLOAD DUP2 MSTORE SWAP1 PUSH1 0x1 ADD SWAP1 PUSH1 0x20 ADD DUP1 DUP4 GT PUSH2 0x4A4 JUMPI DUP3 SWAP1 SUB PUSH1 0x1F AND DUP3 ADD SWAP2 JUMPDEST POP POP POP POP POP SWAP1 POP SWAP1 JUMP JUMPDEST PUSH1 0x0 DUP1 PUSH2 0x4D6 PUSH2 0x964 JUMP JUMPDEST SWAP1 POP PUSH2 0x4E3 DUP2 DUP6 DUP6 PUSH2 0x96C JUMP JUMPDEST PUSH1 0x1 SWAP2 POP POP SWAP3 SWAP2 POP POP JUMP JUMPDEST PUSH1 0x0 PUSH1 0x2 SLOAD SWAP1 POP SWAP1 JUMP JUMPDEST PUSH1 0x0 DUP1 PUSH2 0x503 PUSH2 0x964 JUMP JUMPDEST SWAP1 POP PUSH2 0x510 DUP6 DUP3 DUP6 PUSH2 0xB35 JUMP JUMPDEST PUSH2 0x51B DUP6 DUP6 DUP6 PUSH2 0xBC1 JUMP JUMPDEST PUSH1 0x1 SWAP2 POP POP SWAP4 SWAP3 POP POP POP JUMP JUMPDEST PUSH1 0x0 PUSH2 0x532 DUP4 PUSH2 0x676 JUMP JUMPDEST DUP3 LT PUSH2 0x573 JUMPI PUSH1 0x40 MLOAD PUSH32 0x8C379A000000000000000000000000000000000000000000000000000000000 DUP2 MSTORE PUSH1 0x4 ADD PUSH2 0x56A SWAP1 PUSH2 0x17FE JUMP JUMPDEST PUSH1 0x40 MLOAD DUP1 SWAP2 SUB SWAP1 REVERT JUMPDEST PUSH2 0x57C DUP3 PUSH2 0x600 JUMP JUMPDEST SWAP1 POP SWAP3 SWAP2 POP POP JUMP JUMPDEST PUSH1 0x0 PUSH1 0x12 SWAP1 POP SWAP1 JUMP JUMPDEST PUSH1 0x0 DUP1 PUSH2 0x598 PUSH2 0x964 JUMP JUMPDEST SWAP1 POP PUSH2 0x5B9 DUP2 DUP6 DUP6 PUSH2 0x5AA DUP6 DUP10 PUSH2 0x85A JUMP JUMPDEST PUSH2 0x5B4 SWAP2 SWAP1 PUSH2 0x184D JUMP JUMPDEST PUSH2 0x96C JUMP JUMPDEST PUSH1 0x1 SWAP2 POP POP SWAP3 SWAP2 POP POP JUMP JUMPDEST PUSH2 0x5CC PUSH2 0xE37 JUMP JUMPDEST PUSH2 0x5D4 PUSH2 0xEB5 JUMP JUMPDEST JUMP JUMPDEST PUSH2 0x5DE PUSH2 0xE37 JUMP JUMPDEST PUSH2 0x5E8 DUP3 DUP3 PUSH2 0xF18 JUMP JUMPDEST POP POP JUMP JUMPDEST PUSH2 0x5FD PUSH2 0x5F7 PUSH2 0x964 JUMP JUMPDEST DUP3 PUSH2 0x106E JUMP JUMPDEST POP JUMP JUMPDEST PUSH1 0x0 PUSH2 0x60A PUSH2 0x4EE JUMP JUMPDEST DUP3 LT PUSH2 0x64B JUMPI PUSH1 0x40 MLOAD PUSH32 0x8C379A000000000000000000000000000000000000000000000000000000000 DUP2 MSTORE PUSH1 0x4 ADD PUSH2 0x642 SWAP1 PUSH2 0x17FE JUMP JUMPDEST PUSH1 0x40 MLOAD DUP1 SWAP2 SUB SWAP1 REVERT JUMPDEST PUSH1 0x1 DUP3 PUSH2 0x658 SWAP2 SWAP1 PUSH2 0x184D JUMP JUMPDEST SWAP1 POP SWAP2 SWAP1 POP JUMP JUMPDEST PUSH1 0x0 PUSH1 0x5 PUSH1 0x0 SWAP1 SLOAD SWAP1 PUSH2 0x100 EXP SWAP1 DIV PUSH1 0xFF AND SWAP1 POP SWAP1 JUMP JUMPDEST PUSH1 0x0 DUP1 PUSH1 0x0 DUP4 PUSH20 0xFFFFFFFFFFFFFFFFFFFFFFFFFFFFFFFFFFFFFFFF AND PUSH20 0xFFFFFFFFFFFFFFFFFFFFFFFFFFFFFFFFFFFFFFFF AND DUP2 MSTORE PUSH1 0x20 ADD SWAP1 DUP2 MSTORE PUSH1 0x20 ADD PUSH1 0x0 KECCAK256 SLOAD SWAP1 POP SWAP2 SWAP1 POP JUMP JUMPDEST PUSH2 0x6C6 PUSH2 0xE37 JUMP JUMPDEST PUSH2 0x6D0 PUSH1 0x0 PUSH2 0x123B JUMP JUMPDEST JUMP JUMPDEST PUSH2 0x6E4 DUP3 PUSH2 0x6DE PUSH2 0x964 JUMP JUMPDEST DUP4 PUSH2 0xB35 JUMP JUMPDEST PUSH2 0x6EE DUP3 DUP3 PUSH2 0x106E JUMP JUMPDEST POP POP JUMP JUMPDEST PUSH2 0x6FA PUSH2 0xE37 JUMP JUMPDEST PUSH2 0x702 PUSH2 0x1301 JUMP JUMPDEST JUMP JUMPDEST PUSH1 0x0 PUSH1 0x5 PUSH1 0x1 SWAP1 SLOAD SWAP1 PUSH2 0x100 EXP SWAP1 DIV PUSH20 0xFFFFFFFFFFFFFFFFFFFFFFFFFFFFFFFFFFFFFFFF AND SWAP1 POP SWAP1 JUMP JUMPDEST PUSH1 0x60 PUSH1 0x4 DUP1 SLOAD PUSH2 0x73D SWAP1 PUSH2 0x1781 JUMP JUMPDEST DUP1 PUSH1 0x1F ADD PUSH1 0x20 DUP1 SWAP2 DIV MUL PUSH1 0x20 ADD PUSH1 0x40 MLOAD SWAP1 DUP2 ADD PUSH1 0x40 MSTORE DUP1 SWAP3 SWAP2 SWAP1 DUP2 DUP2 MSTORE PUSH1 0x20 ADD DUP3 DUP1 SLOAD PUSH2 0x769 SWAP1 PUSH2 0x1781 JUMP JUMPDEST DUP1 ISZERO PUSH2 0x7B6 JUMPI DUP1 PUSH1 0x1F LT PUSH2 0x78B JUMPI PUSH2 0x100 DUP1 DUP4 SLOAD DIV MUL DUP4 MSTORE SWAP2 PUSH1 0x20 ADD SWAP2 PUSH2 0x7B6 JUMP JUMPDEST DUP3 ADD SWAP2 SWAP1 PUSH1 0x0 MSTORE PUSH1 0x20 PUSH1 0x0 KECCAK256 SWAP1 JUMPDEST DUP2 SLOAD DUP2 MSTORE SWAP1 PUSH1 0x1 ADD SWAP1 PUSH1 0x20 ADD DUP1 DUP4 GT PUSH2 0x799 JUMPI DUP3 SWAP1 SUB PUSH1 0x1F AND DUP3 ADD SWAP2 JUMPDEST POP POP POP POP POP SWAP1 POP SWAP1 JUMP JUMPDEST PUSH1 0x0 DUP1 PUSH2 0x7CB PUSH2 0x964 JUMP JUMPDEST SWAP1 POP PUSH1 0x0 PUSH2 0x7D9 DUP3 DUP7 PUSH2 0x85A JUMP JUMPDEST SWAP1 POP DUP4 DUP2 LT ISZERO PUSH2 0x81E JUMPI PUSH1 0x40 MLOAD PUSH32 0x8C379A000000000000000000000000000000000000000000000000000000000 DUP2 MSTORE PUSH1 0x4 ADD PUSH2 0x815 SWAP1 PUSH2 0x18F3 JUMP JUMPDEST PUSH1 0x40 MLOAD DUP1 SWAP2 SUB SWAP1 REVERT JUMPDEST PUSH2 0x82B DUP3 DUP7 DUP7 DUP5 SUB PUSH2 0x96C JUMP JUMPDEST PUSH1 0x1 SWAP3 POP POP POP SWAP3 SWAP2 POP POP JUMP JUMPDEST PUSH1 0x0 DUP1 PUSH2 0x842 PUSH2 0x964 JUMP JUMPDEST SWAP1 POP PUSH2 0x84F DUP2 DUP6 DUP6 PUSH2 0xBC1 JUMP JUMPDEST PUSH1 0x1 SWAP2 POP POP SWAP3 SWAP2 POP POP JUMP JUMPDEST PUSH1 0x0 PUSH1 0x1 PUSH1 0x0 DUP5 PUSH20 0xFFFFFFFFFFFFFFFFFFFFFFFFFFFFFFFFFFFFFFFF AND PUSH20 0xFFFFFFFFFFFFFFFFFFFFFFFFFFFFFFFFFFFFFFFF AND DUP2 MSTORE PUSH1 0x20 ADD SWAP1 DUP2 MSTORE PUSH1 0x20 ADD PUSH1 0x0 KECCAK256 PUSH1 0x0 DUP4 PUSH20 0xFFFFFFFFFFFFFFFFFFFFFFFFFFFFFFFFFFFFFFFF AND PUSH20 0xFFFFFFFFFFFFFFFFFFFFFFFFFFFFFFFFFFFFFFFF AND DUP2 MSTORE PUSH1 0x20 ADD SWAP1 DUP2 MSTORE PUSH1 0x20 ADD PUSH1 0x0 KECCAK256 SLOAD SWAP1 POP SWAP3 SWAP2 POP POP JUMP JUMPDEST PUSH2 0x8E9 PUSH2 0xE37 JUMP JUMPDEST PUSH1 0x0 PUSH20 0xFFFFFFFFFFFFFFFFFFFFFFFFFFFFFFFFFFFFFFFF AND DUP2 PUSH20 0xFFFFFFFFFFFFFFFFFFFFFFFFFFFFFFFFFFFFFFFF AND SUB PUSH2 0x958 JUMPI PUSH1 0x40 MLOAD PUSH32 0x8C379A000000000000000000000000000000000000000000000000000000000 DUP2 MSTORE PUSH1 0x4 ADD PUSH2 0x94F SWAP1 PUSH2 0x1985 JUMP JUMPDEST PUSH1 0x40 MLOAD DUP1 SWAP2 SUB SWAP1 REVERT JUMPDEST PUSH2 0x961 DUP2 PUSH2 0x123B JUMP JUMPDEST POP JUMP JUMPDEST PUSH1 0x0 CALLER SWAP1 POP SWAP1 JUMP JUMPDEST PUSH1 0x0 PUSH20 0xFFFFFFFFFFFFFFFFFFFFFFFFFFFFFFFFFFFFFFFF AND DUP4 PUSH20 0xFFFFFFFFFFFFFFFFFFFFFFFFFFFFFFFFFFFFFFFF AND SUB PUSH2 0x9DB JUMPI PUSH1 0x40 MLOAD PUSH32 0x8C379A000000000000000000000000000000000000000000000000000000000 DUP2 MSTORE PUSH1 0x4 ADD PUSH2 0x9D2 SWAP1 PUSH2 0x1A17 JUMP JUMPDEST PUSH1 0x40 MLOAD DUP1 SWAP2 SUB SWAP1 REVERT JUMPDEST PUSH1 0x0 PUSH20 0xFFFFFFFFFFFFFFFFFFFFFFFFFFFFFFFFFFFFFFFF AND DUP3 PUSH20 0xFFFFFFFFFFFFFFFFFFFFFFFFFFFFFFFFFFFFFFFF AND SUB PUSH2 0xA4A JUMPI PUSH1 0x40 MLOAD PUSH32 0x8C379A000000000000000000000000000000000000000000000000000000000 DUP2 MSTORE PUSH1 0x4 ADD PUSH2 0xA41 SWAP1 PUSH2 0x1AA9 JUMP JUMPDEST PUSH1 0x40 MLOAD DUP1 SWAP2 SUB SWAP1 REVERT JUMPDEST DUP1 PUSH1 0x1 PUSH1 0x0 DUP6 PUSH20 0xFFFFFFFFFFFFFFFFFFFFFFFFFFFFFFFFFFFFFFFF AND PUSH20 0xFFFFFFFFFFFFFFFFFFFFFFFFFFFFFFFFFFFFFFFF AND DUP2 MSTORE PUSH1 0x20 ADD SWAP1 DUP2 MSTORE PUSH1 0x20 ADD PUSH1 0x0 KECCAK256 PUSH1 0x0 DUP5 PUSH20 0xFFFFFFFFFFFFFFFFFFFFFFFFFFFFFFFFFFFFFFFF AND PUSH20 0xFFFFFFFFFFFFFFFFFFFFFFFFFFFFFFFFFFFFFFFF AND DUP2 MSTORE PUSH1 0x20 ADD SWAP1 DUP2 MSTORE PUSH1 0x20 ADD PUSH1 0x0 KECCAK256 DUP2 SWAP1 SSTORE POP DUP2 PUSH20 0xFFFFFFFFFFFFFFFFFFFFFFFFFFFFFFFFFFFFFFFF AND DUP4 PUSH20 0xFFFFFFFFFFFFFFFFFFFFFFFFFFFFFFFFFFFFFFFF AND PUSH32 0x8C5BE1E5EBEC7D5BD14F71427D1E84F3DD0314C0F7B2291E5B200AC8C7C3B925 DUP4 PUSH1 0x40 MLOAD PUSH2 0xB28 SWAP2 SWAP1 PUSH2 0x15E9 JUMP JUMPDEST PUSH1 0x40 MLOAD DUP1 SWAP2 SUB SWAP1 LOG3 POP POP POP JUMP JUMPDEST PUSH1 0x0 PUSH2 0xB41 DUP5 DUP5 PUSH2 0x85A JUMP JUMPDEST SWAP1 POP PUSH32 0xFFFFFFFFFFFFFFFFFFFFFFFFFFFFFFFFFFFFFFFFFFFFFFFFFFFFFFFFFFFFFFFF DUP2 EQ PUSH2 0xBBB JUMPI DUP2 DUP2 LT ISZERO PUSH2 0xBAD JUMPI PUSH1 0x40 MLOAD PUSH32 0x8C379A000000000000000000000000000000000000000000000000000000000 DUP2 MSTORE PUSH1 0x4 ADD PUSH2 0xBA4 SWAP1 PUSH2 0x1B15 JUMP JUMPDEST PUSH1 0x40 MLOAD DUP1 SWAP2 SUB SWAP1 REVERT JUMPDEST PUSH2 0xBBA DUP5 DUP5 DUP5 DUP5 SUB PUSH2 0x96C JUMP JUMPDEST JUMPDEST POP POP POP POP JUMP JUMPDEST PUSH1 0x0 PUSH20 0xFFFFFFFFFFFFFFFFFFFFFFFFFFFFFFFFFFFFFFFF AND DUP4 PUSH20 0xFFFFFFFFFFFFFFFFFFFFFFFFFFFFFFFFFFFFFFFF AND SUB PUSH2 0xC30 JUMPI PUSH1 0x40 MLOAD PUSH32 0x8C379A000000000000000000000000000000000000000000000000000000000 DUP2 MSTORE PUSH1 0x4 ADD PUSH2 0xC27 SWAP1 PUSH2 0x1BA7 JUMP JUMPDEST PUSH1 0x40 MLOAD DUP1 SWAP2 SUB SWAP1 REVERT JUMPDEST PUSH1 0x0 PUSH20 0xFFFFFFFFFFFFFFFFFFFFFFFFFFFFFFFFFFFFFFFF AND DUP3 PUSH20 0xFFFFFFFFFFFFFFFFFFFFFFFFFFFFFFFFFFFFFFFF AND SUB PUSH2 0xC9F JUMPI PUSH1 0x40 MLOAD PUSH32 0x8C379A000000000000000000000000000000000000000000000000000000000 DUP2 MSTORE PUSH1 0x4 ADD PUSH2 0xC96 SWAP1 PUSH2 0x1C39 JUMP JUMPDEST PUSH1 0x40 MLOAD DUP1 SWAP2 SUB SWAP1 REVERT JUMPDEST PUSH2 0xCAA DUP4 DUP4 DUP4 PUSH2 0x1364 JUMP JUMPDEST PUSH1 0x0 DUP1 PUSH1 0x0 DUP6 PUSH20 0xFFFFFFFFFFFFFFFFFFFFFFFFFFFFFFFFFFFFFFFF AND PUSH20 0xFFFFFFFFFFFFFFFFFFFFFFFFFFFFFFFFFFFFFFFF AND DUP2 MSTORE PUSH1 0x20 ADD SWAP1 DUP2 MSTORE PUSH1 0x20 ADD PUSH1 0x0 KECCAK256 SLOAD SWAP1 POP DUP2 DUP2 LT ISZERO PUSH2 0xD30 JUMPI PUSH1 0x40 MLOAD PUSH32 0x8C379A000000000000000000000000000000000000000000000000000000000 DUP2 MSTORE PUSH1 0x4 ADD PUSH2 0xD27 SWAP1 PUSH2 0x1CCB JUMP JUMPDEST PUSH1 0x40 MLOAD DUP1 SWAP2 SUB SWAP1 REVERT JUMPDEST DUP2 DUP2 SUB PUSH1 0x0 DUP1 DUP7 PUSH20 0xFFFFFFFFFFFFFFFFFFFFFFFFFFFFFFFFFFFFFFFF AND PUSH20 0xFFFFFFFFFFFFFFFFFFFFFFFFFFFFFFFFFFFFFFFF AND DUP2 MSTORE PUSH1 0x20 ADD SWAP1 DUP2 MSTORE PUSH1 0x20 ADD PUSH1 0x0 KECCAK256 DUP2 SWAP1 SSTORE POP DUP2 PUSH1 0x0 DUP1 DUP6 PUSH20 0xFFFFFFFFFFFFFFFFFFFFFFFFFFFFFFFFFFFFFFFF AND PUSH20 0xFFFFFFFFFFFFFFFFFFFFFFFFFFFFFFFFFFFFFFFF AND DUP2 MSTORE PUSH1 0x20 ADD SWAP1 DUP2 MSTORE PUSH1 0x20 ADD PUSH1 0x0 KECCAK256 PUSH1 0x0 DUP3 DUP3 SLOAD ADD SWAP3 POP POP DUP2 SWAP1 SSTORE POP DUP3 PUSH20 0xFFFFFFFFFFFFFFFFFFFFFFFFFFFFFFFFFFFFFFFF AND DUP5 PUSH20 0xFFFFFFFFFFFFFFFFFFFFFFFFFFFFFFFFFFFFFFFF AND PUSH32 0xDDF252AD1BE2C89B69C2B068FC378DAA952BA7F163C4A11628F55A4DF523B3EF DUP5 PUSH1 0x40 MLOAD PUSH2 0xE1E SWAP2 SWAP1 PUSH2 0x15E9 JUMP JUMPDEST PUSH1 0x40 MLOAD DUP1 SWAP2 SUB SWAP1 LOG3 PUSH2 0xE31 DUP5 DUP5 DUP5 PUSH2 0x137C JUMP JUMPDEST POP POP POP POP JUMP JUMPDEST PUSH2 0xE3F PUSH2 0x964 JUMP JUMPDEST PUSH20 0xFFFFFFFFFFFFFFFFFFFFFFFFFFFFFFFFFFFFFFFF AND PUSH2 0xE5D PUSH2 0x704 JUMP JUMPDEST PUSH20 0xFFFFFFFFFFFFFFFFFFFFFFFFFFFFFFFFFFFFFFFF AND EQ PUSH2 0xEB3 JUMPI PUSH1 0x40 MLOAD PUSH32 0x8C379A000000000000000000000000000000000000000000000000000000000 DUP2 MSTORE PUSH1 0x4 ADD PUSH2 0xEAA SWAP1 PUSH2 0x1D37 JUMP JUMPDEST PUSH1 0x40 MLOAD DUP1 SWAP2 SUB SWAP1 REVERT JUMPDEST JUMP JUMPDEST PUSH2 0xEBD PUSH2 0x1381 JUMP JUMPDEST PUSH1 0x0 PUSH1 0x5 PUSH1 0x0 PUSH2 0x100 EXP DUP2 SLOAD DUP2 PUSH1 0xFF MUL NOT AND SWAP1 DUP4 ISZERO ISZERO MUL OR SWAP1 SSTORE POP PUSH32 0x5DB9EE0A495BF2E6FF9C91A7834C1BA4FDD244A5E8AA4E537BD38AEAE4B073AA PUSH2 0xF01 PUSH2 0x964 JUMP JUMPDEST PUSH1 0x40 MLOAD PUSH2 0xF0E SWAP2 SWAP1 PUSH2 0x16F7 JUMP JUMPDEST PUSH1 0x40 MLOAD DUP1 SWAP2 SUB SWAP1 LOG1 JUMP JUMPDEST PUSH1 0x0 PUSH20 0xFFFFFFFFFFFFFFFFFFFFFFFFFFFFFFFFFFFFFFFF AND DUP3 PUSH20 0xFFFFFFFFFFFFFFFFFFFFFFFFFFFFFFFFFFFFFFFF AND SUB PUSH2 0xF87 JUMPI PUSH1 0x40 MLOAD PUSH32 0x8C379A000000000000000000000000000000000000000000000000000000000 DUP2 MSTORE PUSH1 0x4 ADD PUSH2 0xF7E SWAP1 PUSH2 0x1DA3 JUMP JUMPDEST PUSH1 0x40 MLOAD DUP1 SWAP2 SUB SWAP1 REVERT JUMPDEST PUSH2 0xF93 PUSH1 0x0 DUP4 DUP4 PUSH2 0x1364 JUMP JUMPDEST DUP1 PUSH1 0x2 PUSH1 0x0 DUP3 DUP3 SLOAD PUSH2 0xFA5 SWAP2 SWAP1 PUSH2 0x184D JUMP JUMPDEST SWAP3 POP POP DUP2 SWAP1 SSTORE POP DUP1 PUSH1 0x0 DUP1 DUP5 PUSH20 0xFFFFFFFFFFFFFFFFFFFFFFFFFFFFFFFFFFFFFFFF AND PUSH20 0xFFFFFFFFFFFFFFFFFFFFFFFFFFFFFFFFFFFFFFFF AND DUP2 MSTORE PUSH1 0x20 ADD SWAP1 DUP2 MSTORE PUSH1 0x20 ADD PUSH1 0x0 KECCAK256 PUSH1 0x0 DUP3 DUP3 SLOAD ADD SWAP3 POP POP DUP2 SWAP1 SSTORE POP DUP2 PUSH20 0xFFFFFFFFFFFFFFFFFFFFFFFFFFFFFFFFFFFFFFFF AND PUSH1 0x0 PUSH20 0xFFFFFFFFFFFFFFFFFFFFFFFFFFFFFFFFFFFFFFFF AND PUSH32 0xDDF252AD1BE2C89B69C2B068FC378DAA952BA7F163C4A11628F55A4DF523B3EF DUP4 PUSH1 0x40 MLOAD PUSH2 0x1056 SWAP2 SWAP1 PUSH2 0x15E9 JUMP JUMPDEST PUSH1 0x40 MLOAD DUP1 SWAP2 SUB SWAP1 LOG3 PUSH2 0x106A PUSH1 0x0 DUP4 DUP4 PUSH2 0x137C JUMP JUMPDEST POP POP JUMP JUMPDEST PUSH1 0x0 PUSH20 0xFFFFFFFFFFFFFFFFFFFFFFFFFFFFFFFFFFFFFFFF AND DUP3 PUSH20 0xFFFFFFFFFFFFFFFFFFFFFFFFFFFFFFFFFFFFFFFF AND SUB PUSH2 0x10DD JUMPI PUSH1 0x40 MLOAD PUSH32 0x8C379A000000000000000000000000000000000000000000000000000000000 DUP2 MSTORE PUSH1 0x4 ADD PUSH2 0x10D4 SWAP1 PUSH2 0x1E35 JUMP JUMPDEST PUSH1 0x40 MLOAD DUP1 SWAP2 SUB SWAP1 REVERT JUMPDEST PUSH2 0x10E9 DUP3 PUSH1 0x0 DUP4 PUSH2 0x1364 JUMP JUMPDEST PUSH1 0x0 DUP1 PUSH1 0x0 DUP5 PUSH20 0xFFFFFFFFFFFFFFFFFFFFFFFFFFFFFFFFFFFFFFFF AND PUSH20 0xFFFFFFFFFFFFFFFFFFFFFFFFFFFFFFFFFFFFFFFF AND DUP2 MSTORE PUSH1 0x20 ADD SWAP1 DUP2 MSTORE PUSH1 0x20 ADD PUSH1 0x0 KECCAK256 SLOAD SWAP1 POP DUP2 DUP2 LT ISZERO PUSH2 0x116F JUMPI PUSH1 0x40 MLOAD PUSH32 0x8C379A000000000000000000000000000000000000000000000000000000000 DUP2 MSTORE PUSH1 0x4 ADD PUSH2 0x1166 SWAP1 PUSH2 0x1EC7 JUMP JUMPDEST PUSH1 0x40 MLOAD DUP1 SWAP2 SUB SWAP1 REVERT JUMPDEST DUP2 DUP2 SUB PUSH1 0x0 DUP1 DUP6 PUSH20 0xFFFFFFFFFFFFFFFFFFFFFFFFFFFFFFFFFFFFFFFF AND PUSH20 0xFFFFFFFFFFFFFFFFFFFFFFFFFFFFFFFFFFFFFFFF AND DUP2 MSTORE PUSH1 0x20 ADD SWAP1 DUP2 MSTORE PUSH1 0x20 ADD PUSH1 0x0 KECCAK256 DUP2 SWAP1 SSTORE POP DUP2 PUSH1 0x2 PUSH1 0x0 DUP3 DUP3 SLOAD SUB SWAP3 POP POP DUP2 SWAP1 SSTORE POP PUSH1 0x0 PUSH20 0xFFFFFFFFFFFFFFFFFFFFFFFFFFFFFFFFFFFFFFFF AND DUP4 PUSH20 0xFFFFFFFFFFFFFFFFFFFFFFFFFFFFFFFFFFFFFFFF AND PUSH32 0xDDF252AD1BE2C89B69C2B068FC378DAA952BA7F163C4A11628F55A4DF523B3EF DUP5 PUSH1 0x40 MLOAD PUSH2 0x1222 SWAP2 SWAP1 PUSH2 0x15E9 JUMP JUMPDEST PUSH1 0x40 MLOAD DUP1 SWAP2 SUB SWAP1 LOG3 PUSH2 0x1236 DUP4 PUSH1 0x0 DUP5 PUSH2 0x137C JUMP JUMPDEST POP POP POP JUMP JUMPDEST PUSH1 0x0 PUSH1 0x5 PUSH1 0x1 SWAP1 SLOAD SWAP1 PUSH2 0x100 EXP SWAP1 DIV PUSH20 0xFFFFFFFFFFFFFFFFFFFFFFFFFFFFFFFFFFFFFFFF AND SWAP1 POP DUP2 PUSH1 0x5 PUSH1 0x1 PUSH2 0x100 EXP DUP2 SLOAD DUP2 PUSH20 0xFFFFFFFFFFFFFFFFFFFFFFFFFFFFFFFFFFFFFFFF MUL NOT AND SWAP1 DUP4 PUSH20 0xFFFFFFFFFFFFFFFFFFFFFFFFFFFFFFFFFFFFFFFF AND MUL OR SWAP1 SSTORE POP DUP2 PUSH20 0xFFFFFFFFFFFFFFFFFFFFFFFFFFFFFFFFFFFFFFFF AND DUP2 PUSH20 0xFFFFFFFFFFFFFFFFFFFFFFFFFFFFFFFFFFFFFFFF AND PUSH32 0x8BE0079C531659141344CD1FD0A4F28419497F9722A3DAAFE3B4186F6B6457E0 PUSH1 0x40 MLOAD PUSH1 0x40 MLOAD DUP1 SWAP2 SUB SWAP1 LOG3 POP POP JUMP JUMPDEST PUSH2 0x1309 PUSH2 0x13CA JUMP JUMPDEST PUSH1 0x1 PUSH1 0x5 PUSH1 0x0 PUSH2 0x100 EXP DUP2 SLOAD DUP2 PUSH1 0xFF MUL NOT AND SWAP1 DUP4 ISZERO ISZERO MUL OR SWAP1 SSTORE POP PUSH32 0x62E78CEA01BEE320CD4E420270B5EA74000D11B0C9F74754EBDBFC544B05A258 PUSH2 0x134D PUSH2 0x964 JUMP JUMPDEST PUSH1 0x40 MLOAD PUSH2 0x135A SWAP2 SWAP1 PUSH2 0x16F7 JUMP JUMPDEST PUSH1 0x40 MLOAD DUP1 SWAP2 SUB SWAP1 LOG1 JUMP JUMPDEST PUSH2 0x136C PUSH2 0x13CA JUMP JUMPDEST PUSH2 0x1377 DUP4 DUP4 DUP4 PUSH2 0x1414 JUMP JUMPDEST POP POP POP JUMP JUMPDEST POP POP POP JUMP JUMPDEST PUSH2 0x1389 PUSH2 0x65F JUMP JUMPDEST PUSH2 0x13C8 JUMPI PUSH1 0x40 MLOAD PUSH32 0x8C379A000000000000000000000000000000000000000000000000000000000 DUP2 MSTORE PUSH1 0x4 ADD PUSH2 0x13BF SWAP1 PUSH2 0x1F33 JUMP JUMPDEST PUSH1 0x40 MLOAD DUP1 SWAP2 SUB SWAP1 REVERT JUMPDEST JUMP JUMPDEST PUSH2 0x13D2 PUSH2 0x65F JUMP JUMPDEST ISZERO PUSH2 0x1412 JUMPI PUSH1 0x40 MLOAD PUSH32 0x8C379A000000000000000000000000000000000000000000000000000000000 DUP2 MSTORE PUSH1 0x4 ADD PUSH2 0x1409 SWAP1 PUSH2 0x1F9F JUMP JUMPDEST PUSH1 0x40 MLOAD DUP1 SWAP2 SUB SWAP1 REVERT JUMPDEST JUMP JUMPDEST POP POP POP JUMP JUMPDEST PUSH1 0x0 DUP2 MLOAD SWAP1 POP SWAP2 SWAP1 POP JUMP JUMPDEST PUSH1 0x0 DUP3 DUP3 MSTORE PUSH1 0x20 DUP3 ADD SWAP1 POP SWAP3 SWAP2 POP POP JUMP JUMPDEST PUSH1 0x0 JUMPDEST DUP4 DUP2 LT ISZERO PUSH2 0x1453 JUMPI DUP1 DUP3 ADD MLOAD DUP2 DUP5 ADD MSTORE PUSH1 0x20 DUP2 ADD SWAP1 POP PUSH2 0x1438 JUMP JUMPDEST PUSH1 0x0 DUP5 DUP5 ADD MSTORE POP POP POP POP JUMP JUMPDEST PUSH1 0x0 PUSH1 0x1F NOT PUSH1 0x1F DUP4 ADD AND SWAP1 POP SWAP2 SWAP1 POP JUMP JUMPDEST PUSH1 0x0 PUSH2 0x147B DUP3 PUSH2 0x1419 JUMP JUMPDEST PUSH2 0x1485 DUP2 DUP6 PUSH2 0x1424 JUMP JUMPDEST SWAP4 POP PUSH2 0x1495 DUP2 DUP6 PUSH1 0x20 DUP7 ADD PUSH2 0x1435 JUMP JUMPDEST PUSH2 0x149E DUP2 PUSH2 0x145F JUMP JUMPDEST DUP5 ADD SWAP2 POP POP SWAP3 SWAP2 POP POP JUMP JUMPDEST PUSH1 0x0 PUSH1 0x20 DUP3 ADD SWAP1 POP DUP2 DUP2 SUB PUSH1 0x0 DUP4 ADD MSTORE PUSH2 0x14C3 DUP2 DUP5 PUSH2 0x1470 JUMP JUMPDEST SWAP1 POP SWAP3 SWAP2 POP POP JUMP JUMPDEST PUSH1 0x0 DUP1 REVERT JUMPDEST PUSH1 0x0 PUSH20 0xFFFFFFFFFFFFFFFFFFFFFFFFFFFFFFFFFFFFFFFF DUP3 AND SWAP1 POP SWAP2 SWAP1 POP JUMP JUMPDEST PUSH1 0x0 PUSH2 0x14FB DUP3 PUSH2 0x14D0 JUMP JUMPDEST SWAP1 POP SWAP2 SWAP1 POP JUMP JUMPDEST PUSH2 0x150B DUP2 PUSH2 0x14F0 JUMP JUMPDEST DUP2 EQ PUSH2 0x1516 JUMPI PUSH1 0x0 DUP1 REVERT JUMPDEST POP JUMP JUMPDEST PUSH1 0x0 DUP2 CALLDATALOAD SWAP1 POP PUSH2 0x1528 DUP2 PUSH2 0x1502 JUMP JUMPDEST SWAP3 SWAP2 POP POP JUMP JUMPDEST PUSH1 0x0 DUP2 SWAP1 POP SWAP2 SWAP1 POP JUMP JUMPDEST PUSH2 0x1541 DUP2 PUSH2 0x152E JUMP JUMPDEST DUP2 EQ PUSH2 0x154C JUMPI PUSH1 0x0 DUP1 REVERT JUMPDEST POP JUMP JUMPDEST PUSH1 0x0 DUP2 CALLDATALOAD SWAP1 POP PUSH2 0x155E DUP2 PUSH2 0x1538 JUMP JUMPDEST SWAP3 SWAP2 POP POP JUMP JUMPDEST PUSH1 0x0 DUP1 PUSH1 0x40 DUP4 DUP6 SUB SLT ISZERO PUSH2 0x157B JUMPI PUSH2 0x157A PUSH2 0x14CB JUMP JUMPDEST JUMPDEST PUSH1 0x0 PUSH2 0x1589 DUP6 DUP3 DUP7 ADD PUSH2 0x1519 JUMP JUMPDEST SWAP3 POP POP PUSH1 0x20 PUSH2 0x159A DUP6 DUP3 DUP7 ADD PUSH2 0x154F JUMP JUMPDEST SWAP2 POP POP SWAP3 POP SWAP3 SWAP1 POP JUMP JUMPDEST PUSH1 0x0 DUP2 ISZERO ISZERO SWAP1 POP SWAP2 SWAP1 POP JUMP JUMPDEST PUSH2 0x15B9 DUP2 PUSH2 0x15A4 JUMP JUMPDEST DUP3 MSTORE POP POP JUMP JUMPDEST PUSH1 0x0 PUSH1 0x20 DUP3 ADD SWAP1 POP PUSH2 0x15D4 PUSH1 0x0 DUP4 ADD DUP5 PUSH2 0x15B0 JUMP JUMPDEST SWAP3 SWAP2 POP POP JUMP JUMPDEST PUSH2 0x15E3 DUP2 PUSH2 0x152E JUMP JUMPDEST DUP3 MSTORE POP POP JUMP JUMPDEST PUSH1 0x0 PUSH1 0x20 DUP3 ADD SWAP1 POP PUSH2 0x15FE PUSH1 0x0 DUP4 ADD DUP5 PUSH2 0x15DA JUMP JUMPDEST SWAP3 SWAP2 POP POP JUMP JUMPDEST PUSH1 0x0 DUP1 PUSH1 0x0 PUSH1 0x60 DUP5 DUP7 SUB SLT ISZERO PUSH2 0x161D JUMPI PUSH2 0x161C PUSH2 0x14CB JUMP JUMPDEST JUMPDEST PUSH1 0x0 PUSH2 0x162B DUP7 DUP3 DUP8 ADD PUSH2 0x1519 JUMP JUMPDEST SWAP4 POP POP PUSH1 0x20 PUSH2 0x163C DUP7 DUP3 DUP8 ADD PUSH2 0x1519 JUMP JUMPDEST SWAP3 POP POP PUSH1 0x40 PUSH2 0x164D DUP7 DUP3 DUP8 ADD PUSH2 0x154F JUMP JUMPDEST SWAP2 POP POP SWAP3 POP SWAP3 POP SWAP3 JUMP JUMPDEST PUSH1 0x0 PUSH1 0xFF DUP3 AND SWAP1 POP SWAP2 SWAP1 POP JUMP JUMPDEST PUSH2 0x166D DUP2 PUSH2 0x1657 JUMP JUMPDEST DUP3 MSTORE POP POP JUMP JUMPDEST PUSH1 0x0 PUSH1 0x20 DUP3 ADD SWAP1 POP PUSH2 0x1688 PUSH1 0x0 DUP4 ADD DUP5 PUSH2 0x1664 JUMP JUMPDEST SWAP3 SWAP2 POP POP JUMP JUMPDEST PUSH1 0x0 PUSH1 0x20 DUP3 DUP5 SUB SLT ISZERO PUSH2 0x16A4 JUMPI PUSH2 0x16A3 PUSH2 0x14CB JUMP JUMPDEST JUMPDEST PUSH1 0x0 PUSH2 0x16B2 DUP5 DUP3 DUP6 ADD PUSH2 0x154F JUMP JUMPDEST SWAP2 POP POP SWAP3 SWAP2 POP POP JUMP JUMPDEST PUSH1 0x0 PUSH1 0x20 DUP3 DUP5 SUB SLT ISZERO PUSH2 0x16D1 JUMPI PUSH2 0x16D0 PUSH2 0x14CB JUMP JUMPDEST JUMPDEST PUSH1 0x0 PUSH2 0x16DF DUP5 DUP3 DUP6 ADD PUSH2 0x1519 JUMP JUMPDEST SWAP2 POP POP SWAP3 SWAP2 POP POP JUMP JUMPDEST PUSH2 0x16F1 DUP2 PUSH2 0x14F0 JUMP JUMPDEST DUP3 MSTORE POP POP JUMP JUMPDEST PUSH1 0x0 PUSH1 0x20 DUP3 ADD SWAP1 POP PUSH2 0x170C PUSH1 0x0 DUP4 ADD DUP5 PUSH2 0x16E8 JUMP JUMPDEST SWAP3 SWAP2 POP POP JUMP JUMPDEST PUSH1 0x0 DUP1 PUSH1 0x40 DUP4 DUP6 SUB SLT ISZERO PUSH2 0x1729 JUMPI PUSH2 0x1728 PUSH2 0x14CB JUMP JUMPDEST JUMPDEST PUSH1 0x0 PUSH2 0x1737 DUP6 DUP3 DUP7 ADD PUSH2 0x1519 JUMP JUMPDEST SWAP3 POP POP PUSH1 0x20 PUSH2 0x1748 DUP6 DUP3 DUP7 ADD PUSH2 0x1519 JUMP JUMPDEST SWAP2 POP POP SWAP3 POP SWAP3 SWAP1 POP JUMP JUMPDEST PUSH32 0x4E487B7100000000000000000000000000000000000000000000000000000000 PUSH1 0x0 MSTORE PUSH1 0x22 PUSH1 0x4 MSTORE PUSH1 0x24 PUSH1 0x0 REVERT JUMPDEST PUSH1 0x0 PUSH1 0x2 DUP3 DIV SWAP1 POP PUSH1 0x1 DUP3 AND DUP1 PUSH2 0x1799 JUMPI PUSH1 0x7F DUP3 AND SWAP2 POP JUMPDEST PUSH1 0x20 DUP3 LT DUP2 SUB PUSH2 0x17AC JUMPI PUSH2 0x17AB PUSH2 0x1752 JUMP JUMPDEST JUMPDEST POP SWAP2 SWAP1 POP JUMP JUMPDEST PUSH32 0x496E76616C696420746F6B656E20696E64657800000000000000000000000000 PUSH1 0x0 DUP3 ADD MSTORE POP JUMP JUMPDEST PUSH1 0x0 PUSH2 0x17E8 PUSH1 0x13 DUP4 PUSH2 0x1424 JUMP JUMPDEST SWAP2 POP PUSH2 0x17F3 DUP3 PUSH2 0x17B2 JUMP JUMPDEST PUSH1 0x20 DUP3 ADD SWAP1 POP SWAP2 SWAP1 POP JUMP JUMPDEST PUSH1 0x0 PUSH1 0x20 DUP3 ADD SWAP1 POP DUP2 DUP2 SUB PUSH1 0x0 DUP4 ADD MSTORE PUSH2 0x1817 DUP2 PUSH2 0x17DB JUMP JUMPDEST SWAP1 POP SWAP2 SWAP1 POP JUMP JUMPDEST PUSH32 0x4E487B7100000000000000000000000000000000000000000000000000000000 PUSH1 0x0 MSTORE PUSH1 0x11 PUSH1 0x4 MSTORE PUSH1 0x24 PUSH1 0x0 REVERT JUMPDEST PUSH1 0x0 PUSH2 0x1858 DUP3 PUSH2 0x152E JUMP JUMPDEST SWAP2 POP PUSH2 0x1863 DUP4 PUSH2 0x152E JUMP JUMPDEST SWAP3 POP DUP3 DUP3 ADD SWAP1 POP DUP1 DUP3 GT ISZERO PUSH2 0x187B JUMPI PUSH2 0x187A PUSH2 0x181E JUMP JUMPDEST JUMPDEST SWAP3 SWAP2 POP POP JUMP JUMPDEST PUSH32 0x45524332303A2064656372656173656420616C6C6F77616E63652062656C6F77 PUSH1 0x0 DUP3 ADD MSTORE PUSH32 0x207A65726F000000000000000000000000000000000000000000000000000000 PUSH1 0x20 DUP3 ADD MSTORE POP JUMP JUMPDEST PUSH1 0x0 PUSH2 0x18DD PUSH1 0x25 DUP4 PUSH2 0x1424 JUMP JUMPDEST SWAP2 POP PUSH2 0x18E8 DUP3 PUSH2 0x1881 JUMP JUMPDEST PUSH1 0x40 DUP3 ADD SWAP1 POP SWAP2 SWAP1 POP JUMP JUMPDEST PUSH1 0x0 PUSH1 0x20 DUP3 ADD SWAP1 POP DUP2 DUP2 SUB PUSH1 0x0 DUP4 ADD MSTORE PUSH2 0x190C DUP2 PUSH2 0x18D0 JUMP JUMPDEST SWAP1 POP SWAP2 SWAP1 POP JUMP JUMPDEST PUSH32 0x4F776E61626C653A206E6577206F776E657220697320746865207A65726F2061 PUSH1 0x0 DUP3 ADD MSTORE PUSH32 0x6464726573730000000000000000000000000000000000000000000000000000 PUSH1 0x20 DUP3 ADD MSTORE POP JUMP JUMPDEST PUSH1 0x0 PUSH2 0x196F PUSH1 0x26 DUP4 PUSH2 0x1424 JUMP JUMPDEST SWAP2 POP PUSH2 0x197A DUP3 PUSH2 0x1913 JUMP JUMPDEST PUSH1 0x40 DUP3 ADD SWAP1 POP SWAP2 SWAP1 POP JUMP JUMPDEST PUSH1 0x0 PUSH1 0x20 DUP3 ADD SWAP1 POP DUP2 DUP2 SUB PUSH1 0x0 DUP4 ADD MSTORE PUSH2 0x199E DUP2 PUSH2 0x1962 JUMP JUMPDEST SWAP1 POP SWAP2 SWAP1 POP JUMP JUMPDEST PUSH32 0x45524332303A20617070726F76652066726F6D20746865207A65726F20616464 PUSH1 0x0 DUP3 ADD MSTORE PUSH32 0x7265737300000000000000000000000000000000000000000000000000000000 PUSH1 0x20 DUP3 ADD MSTORE POP JUMP JUMPDEST PUSH1 0x0 PUSH2 0x1A01 PUSH1 0x24 DUP4 PUSH2 0x1424 JUMP JUMPDEST SWAP2 POP PUSH2 0x1A0C DUP3 PUSH2 0x19A5 JUMP JUMPDEST PUSH1 0x40 DUP3 ADD SWAP1 POP SWAP2 SWAP1 POP JUMP JUMPDEST PUSH1 0x0 PUSH1 0x20 DUP3 ADD SWAP1 POP DUP2 DUP2 SUB PUSH1 0x0 DUP4 ADD MSTORE PUSH2 0x1A30 DUP2 PUSH2 0x19F4 JUMP JUMPDEST SWAP1 POP SWAP2 SWAP1 POP JUMP JUMPDEST PUSH32 0x45524332303A20617070726F766520746F20746865207A65726F206164647265 PUSH1 0x0 DUP3 ADD MSTORE PUSH32 0x7373000000000000000000000000000000000000000000000000000000000000 PUSH1 0x20 DUP3 ADD MSTORE POP JUMP JUMPDEST PUSH1 0x0 PUSH2 0x1A93 PUSH1 0x22 DUP4 PUSH2 0x1424 JUMP JUMPDEST SWAP2 POP PUSH2 0x1A9E DUP3 PUSH2 0x1A37 JUMP JUMPDEST PUSH1 0x40 DUP3 ADD SWAP1 POP SWAP2 SWAP1 POP JUMP JUMPDEST PUSH1 0x0 PUSH1 0x20 DUP3 ADD SWAP1 POP DUP2 DUP2 SUB PUSH1 0x0 DUP4 ADD MSTORE PUSH2 0x1AC2 DUP2 PUSH2 0x1A86 JUMP JUMPDEST SWAP1 POP SWAP2 SWAP1 POP JUMP JUMPDEST PUSH32 0x45524332303A20696E73756666696369656E7420616C6C6F77616E6365000000 PUSH1 0x0 DUP3 ADD MSTORE POP JUMP JUMPDEST PUSH1 0x0 PUSH2 0x1AFF PUSH1 0x1D DUP4 PUSH2 0x1424 JUMP JUMPDEST SWAP2 POP PUSH2 0x1B0A DUP3 PUSH2 0x1AC9 JUMP JUMPDEST PUSH1 0x20 DUP3 ADD SWAP1 POP SWAP2 SWAP1 POP JUMP JUMPDEST PUSH1 0x0 PUSH1 0x20 DUP3 ADD SWAP1 POP DUP2 DUP2 SUB PUSH1 0x0 DUP4 ADD MSTORE PUSH2 0x1B2E DUP2 PUSH2 0x1AF2 JUMP JUMPDEST SWAP1 POP SWAP2 SWAP1 POP JUMP JUMPDEST PUSH32 0x45524332303A207472616E736665722066726F6D20746865207A65726F206164 PUSH1 0x0 DUP3 ADD MSTORE PUSH32 0x6472657373000000000000000000000000000000000000000000000000000000 PUSH1 0x20 DUP3 ADD MSTORE POP JUMP JUMPDEST PUSH1 0x0 PUSH2 0x1B91 PUSH1 0x25 DUP4 PUSH2 0x1424 JUMP JUMPDEST SWAP2 POP PUSH2 0x1B9C DUP3 PUSH2 0x1B35 JUMP JUMPDEST PUSH1 0x40 DUP3 ADD SWAP1 POP SWAP2 SWAP1 POP JUMP JUMPDEST PUSH1 0x0 PUSH1 0x20 DUP3 ADD SWAP1 POP DUP2 DUP2 SUB PUSH1 0x0 DUP4 ADD MSTORE PUSH2 0x1BC0 DUP2 PUSH2 0x1B84 JUMP JUMPDEST SWAP1 POP SWAP2 SWAP1 POP JUMP JUMPDEST PUSH32 0x45524332303A207472616E7366657220746F20746865207A65726F2061646472 PUSH1 0x0 DUP3 ADD MSTORE PUSH32 0x6573730000000000000000000000000000000000000000000000000000000000 PUSH1 0x20 DUP3 ADD MSTORE POP JUMP JUMPDEST PUSH1 0x0 PUSH2 0x1C23 PUSH1 0x23 DUP4 PUSH2 0x1424 JUMP JUMPDEST SWAP2 POP PUSH2 0x1C2E DUP3 PUSH2 0x1BC7 JUMP JUMPDEST PUSH1 0x40 DUP3 ADD SWAP1 POP SWAP2 SWAP1 POP JUMP JUMPDEST PUSH1 0x0 PUSH1 0x20 DUP3 ADD SWAP1 POP DUP2 DUP2 SUB PUSH1 0x0 DUP4 ADD MSTORE PUSH2 0x1C52 DUP2 PUSH2 0x1C16 JUMP JUMPDEST SWAP1 POP SWAP2 SWAP1 POP JUMP JUMPDEST PUSH32 0x45524332303A207472616E7366657220616D6F756E7420657863656564732062 PUSH1 0x0 DUP3 ADD MSTORE PUSH32 0x616C616E63650000000000000000000000000000000000000000000000000000 PUSH1 0x20 DUP3 ADD MSTORE POP JUMP JUMPDEST PUSH1 0x0 PUSH2 0x1CB5 PUSH1 0x26 DUP4 PUSH2 0x1424 JUMP JUMPDEST SWAP2 POP PUSH2 0x1CC0 DUP3 PUSH2 0x1C59 JUMP JUMPDEST PUSH1 0x40 DUP3 ADD SWAP1 POP SWAP2 SWAP1 POP JUMP JUMPDEST PUSH1 0x0 PUSH1 0x20 DUP3 ADD SWAP1 POP DUP2 DUP2 SUB PUSH1 0x0 DUP4 ADD MSTORE PUSH2 0x1CE4 DUP2 PUSH2 0x1CA8 JUMP JUMPDEST SWAP1 POP SWAP2 SWAP1 POP JUMP JUMPDEST PUSH32 0x4F776E61626C653A2063616C6C6572206973206E6F7420746865206F776E6572 PUSH1 0x0 DUP3 ADD MSTORE POP JUMP JUMPDEST PUSH1 0x0 PUSH2 0x1D21 PUSH1 0x20 DUP4 PUSH2 0x1424 JUMP JUMPDEST SWAP2 POP PUSH2 0x1D2C DUP3 PUSH2 0x1CEB JUMP JUMPDEST PUSH1 0x20 DUP3 ADD SWAP1 POP SWAP2 SWAP1 POP JUMP JUMPDEST PUSH1 0x0 PUSH1 0x20 DUP3 ADD SWAP1 POP DUP2 DUP2 SUB PUSH1 0x0 DUP4 ADD MSTORE PUSH2 0x1D50 DUP2 PUSH2 0x1D14 JUMP JUMPDEST SWAP1 POP SWAP2 SWAP1 POP JUMP JUMPDEST PUSH32 0x45524332303A206D696E7420746F20746865207A65726F206164647265737300 PUSH1 0x0 DUP3 ADD MSTORE POP JUMP JUMPDEST PUSH1 0x0 PUSH2 0x1D8D PUSH1 0x1F DUP4 PUSH2 0x1424 JUMP JUMPDEST SWAP2 POP PUSH2 0x1D98 DUP3 PUSH2 0x1D57 JUMP JUMPDEST PUSH1 0x20 DUP3 ADD SWAP1 POP SWAP2 SWAP1 POP JUMP JUMPDEST PUSH1 0x0 PUSH1 0x20 DUP3 ADD SWAP1 POP DUP2 DUP2 SUB PUSH1 0x0 DUP4 ADD MSTORE PUSH2 0x1DBC DUP2 PUSH2 0x1D80 JUMP JUMPDEST SWAP1 POP SWAP2 SWAP1 POP JUMP JUMPDEST PUSH32 0x45524332303A206275726E2066726F6D20746865207A65726F20616464726573 PUSH1 0x0 DUP3 ADD MSTORE PUSH32 0x7300000000000000000000000000000000000000000000000000000000000000 PUSH1 0x20 DUP3 ADD MSTORE POP JUMP JUMPDEST PUSH1 0x0 PUSH2 0x1E1F PUSH1 0x21 DUP4 PUSH2 0x1424 JUMP JUMPDEST SWAP2 POP PUSH2 0x1E2A DUP3 PUSH2 0x1DC3 JUMP JUMPDEST PUSH1 0x40 DUP3 ADD SWAP1 POP SWAP2 SWAP1 POP JUMP JUMPDEST PUSH1 0x0 PUSH1 0x20 DUP3 ADD SWAP1 POP DUP2 DUP2 SUB PUSH1 0x0 DUP4 ADD MSTORE PUSH2 0x1E4E DUP2 PUSH2 0x1E12 JUMP JUMPDEST SWAP1 POP SWAP2 SWAP1 POP JUMP JUMPDEST PUSH32 0x45524332303A206275726E20616D6F756E7420657863656564732062616C616E PUSH1 0x0 DUP3 ADD MSTORE PUSH32 0x6365000000000000000000000000000000000000000000000000000000000000 PUSH1 0x20 DUP3 ADD MSTORE POP JUMP JUMPDEST PUSH1 0x0 PUSH2 0x1EB1 PUSH1 0x22 DUP4 PUSH2 0x1424 JUMP JUMPDEST SWAP2 POP PUSH2 0x1EBC DUP3 PUSH2 0x1E55 JUMP JUMPDEST PUSH1 0x40 DUP3 ADD SWAP1 POP SWAP2 SWAP1 POP JUMP JUMPDEST PUSH1 0x0 PUSH1 0x20 DUP3 ADD SWAP1 POP DUP2 DUP2 SUB PUSH1 0x0 DUP4 ADD MSTORE PUSH2 0x1EE0 DUP2 PUSH2 0x1EA4 JUMP JUMPDEST SWAP1 POP SWAP2 SWAP1 POP JUMP JUMPDEST PUSH32 0x5061757361626C653A206E6F7420706175736564000000000000000000000000 PUSH1 0x0 DUP3 ADD MSTORE POP JUMP JUMPDEST PUSH1 0x0 PUSH2 0x1F1D PUSH1 0x14 DUP4 PUSH2 0x1424 JUMP JUMPDEST SWAP2 POP PUSH2 0x1F28 DUP3 PUSH2 0x1EE7 JUMP JUMPDEST PUSH1 0x20 DUP3 ADD SWAP1 POP SWAP2 SWAP1 POP JUMP JUMPDEST PUSH1 0x0 PUSH1 0x20 DUP3 ADD SWAP1 POP DUP2 DUP2 SUB PUSH1 0x0 DUP4 ADD MSTORE PUSH2 0x1F4C DUP2 PUSH2 0x1F10 JUMP JUMPDEST SWAP1 POP SWAP2 SWAP1 POP JUMP JUMPDEST PUSH32 0x5061757361626C653A2070617573656400000000000000000000000000000000 PUSH1 0x0 DUP3 ADD MSTORE POP JUMP JUMPDEST PUSH1 0x0 PUSH2 0x1F89 PUSH1 0x10 DUP4 PUSH2 0x1424 JUMP JUMPDEST SWAP2 POP PUSH2 0x1F94 DUP3 PUSH2 0x1F53 JUMP JUMPDEST PUSH1 0x20 DUP3 ADD SWAP1 POP SWAP2 SWAP1 POP JUMP JUMPDEST PUSH1 0x0 PUSH1 0x20 DUP3 ADD SWAP1 POP DUP2 DUP2 SUB PUSH1 0x0 DUP4 ADD MSTORE PUSH2 0x1FB8 DUP2 PUSH2 0x1F7C JUMP JUMPDEST SWAP1 POP SWAP2 SWAP1 POP JUMP INVALID LOG2 PUSH5 0x6970667358 0x22 SLT KECCAK256 SMOD CHAINID PUSH25 0x3B249B9B434836FAA30987E10AADC7DF1FC2D28FB8BCB5AD15 PUSH16 0x277C6664736F6C634300081200330000 "
				},
				"gasEstimates": {
					"creation": {
						"codeDepositCost": "1636200",
						"executionCost": "infinite",
						"totalCost": "infinite"
					},
					"external": {
						"allowance(address,address)": "infinite",
						"approve(address,uint256)": "infinite",
						"balanceOf(address)": "2886",
						"burn(uint256)": "infinite",
						"burnFrom(address,uint256)": "infinite",
						"decimals()": "366",
						"decreaseAllowance(address,uint256)": "infinite",
						"increaseAllowance(address,uint256)": "infinite",
						"mint(address,uint256)": "infinite",
						"name()": "infinite",
						"owner()": "2594",
						"pause()": "infinite",
						"paused()": "2502",
						"renounceOwnership()": "30615",
						"symbol()": "infinite",
						"tokenByIndex(uint256)": "infinite",
						"tokenOfOwnerByIndex(address,uint256)": "infinite",
						"totalSupply()": "2505",
						"transfer(address,uint256)": "infinite",
						"transferFrom(address,address,uint256)": "infinite",
						"transferOwnership(address)": "31026",
						"unpause()": "infinite"
					},
					"internal": {
						"_beforeTokenTransfer(address,address,uint256)": "infinite"
					}
				},
				"methodIdentifiers": {
					"allowance(address,address)": "dd62ed3e",
					"approve(address,uint256)": "095ea7b3",
					"balanceOf(address)": "70a08231",
					"burn(uint256)": "42966c68",
					"burnFrom(address,uint256)": "79cc6790",
					"decimals()": "313ce567",
					"decreaseAllowance(address,uint256)": "a457c2d7",
					"increaseAllowance(address,uint256)": "39509351",
					"mint(address,uint256)": "40c10f19",
					"name()": "06fdde03",
					"owner()": "8da5cb5b",
					"pause()": "8456cb59",
					"paused()": "5c975abb",
					"renounceOwnership()": "715018a6",
					"symbol()": "95d89b41",
					"tokenByIndex(uint256)": "4f6ccce7",
					"tokenOfOwnerByIndex(address,uint256)": "2f745c59",
					"totalSupply()": "18160ddd",
					"transfer(address,uint256)": "a9059cbb",
					"transferFrom(address,address,uint256)": "23b872dd",
					"transferOwnership(address)": "f2fde38b",
					"unpause()": "3f4ba83a"
				}
			},
			"storageLayout": {
				"storage": [
					{
						"astId": 236,
						"contract": "contract-54a644c577.sol:GrimaceMandalaNFT",
						"label": "_balances",
						"offset": 0,
						"slot": "0",
						"type": "t_mapping(t_address,t_uint256)"
					},
					{
						"astId": 242,
						"contract": "contract-54a644c577.sol:GrimaceMandalaNFT",
						"label": "_allowances",
						"offset": 0,
						"slot": "1",
						"type": "t_mapping(t_address,t_mapping(t_address,t_uint256))"
					},
					{
						"astId": 244,
						"contract": "contract-54a644c577.sol:GrimaceMandalaNFT",
						"label": "_totalSupply",
						"offset": 0,
						"slot": "2",
						"type": "t_uint256"
					},
					{
						"astId": 246,
						"contract": "contract-54a644c577.sol:GrimaceMandalaNFT",
						"label": "_name",
						"offset": 0,
						"slot": "3",
						"type": "t_string_storage"
					},
					{
						"astId": 248,
						"contract": "contract-54a644c577.sol:GrimaceMandalaNFT",
						"label": "_symbol",
						"offset": 0,
						"slot": "4",
						"type": "t_string_storage"
					},
					{
						"astId": 130,
						"contract": "contract-54a644c577.sol:GrimaceMandalaNFT",
						"label": "_paused",
						"offset": 0,
						"slot": "5",
						"type": "t_bool"
					},
					{
						"astId": 7,
						"contract": "contract-54a644c577.sol:GrimaceMandalaNFT",
						"label": "_owner",
						"offset": 1,
						"slot": "5",
						"type": "t_address"
					}
				],
				"types": {
					"t_address": {
						"encoding": "inplace",
						"label": "address",
						"numberOfBytes": "20"
					},
					"t_bool": {
						"encoding": "inplace",
						"label": "bool",
						"numberOfBytes": "1"
					},
					"t_mapping(t_address,t_mapping(t_address,t_uint256))": {
						"encoding": "mapping",
						"key": "t_address",
						"label": "mapping(address => mapping(address => uint256))",
						"numberOfBytes": "32",
						"value": "t_mapping(t_address,t_uint256)"
					},
					"t_mapping(t_address,t_uint256)": {
						"encoding": "mapping",
						"key": "t_address",
						"label": "mapping(address => uint256)",
						"numberOfBytes": "32",
						"value": "t_uint256"
					},
					"t_string_storage": {
						"encoding": "bytes",
						"label": "string",
						"numberOfBytes": "32"
					},
					"t_uint256": {
						"encoding": "inplace",
						"label": "uint256",
						"numberOfBytes": "32"
					}
				}
			},
			"userdoc": {
				"kind": "user",
				"methods": {},
				"version": 1
			}
		}
	}
}